:020000040800F2
:10000000E81C002045010008313E00089533000837
:100010002D3E0008CD2F0008EF470008000000002B
:10002000000000000000000000000000F93F000890
:10003000D12F000800000000E13E0008094500083B
:100040005F0100085F0100085F0100085F01000810
:100050005F0100085F0100085F0100085F01000800
:100060005F0100085F0100085F0100085F010008F0
:100070005F0100085F0100085F0100085F010008E0
:100080005F0100085F0100085F0100085F010008D0
:100090005F0100085F0100085F010008D32F00081E
:1000A0005F0100085F0100085F0100085F010008B0
:1000B0005F0100085F0100085F0100085F010008A0
:1000C0005F0100085F0100085F0100085F01000890
:1000D0005F0100085F0100085F0100085F01000880
:1000E0005F0100085F0100085F0100085F01000870
:1000F0005F0100085F0100085F0100085F01000860
:100100005F0100085F0100085F0100085F0100084F
:100110005F0100085F0100085F0100085F0100083F
:100120005F0100085F0100085F0100085F0100082F
:10013000DFF80CD002F038FF00480047198D0008A6
:10014000E81C00200648804706480047FEE7FEE717
:10015000FEE7FEE7FEE7FEE7FEE7FEE7FEE7FEE777
:10016000B54500083101000810B5F949C4074FF042
:1001700040434FF0804205D08B66CB66C1E91C320C
:100180008A67CA67840709D5C1F80031C1F804310C
:10019000C1E94232C1F81021C1F81421400709D544
:1001A000C1F89831C1F89C31C1E96832C1F8A82181
:1001B000C1F8AC2110BD2DE9F14F82B000210298A9
:1001C0008A468946806F00287DD000220020401C8E
:1001D0000428FCDB02984FF0000C00EBC203D3E9CB
:1001E0000010A1FB0167D3E9065400FB017701FB76
:1001F0000077CDE90067A646AE1B64EB0704AB466B
:100200000327A6FB075804FB078406FB0C44DDE923
:100210000067AD197C41A5FB016704FB017405FB78
:100220000045D3E90C47341B65EB0705CDE90045D4
:100230005D46A5FB05670324A6FB04580EFB0B7760
:100240000BFB0E7707FB048406FB0C44D3E9126317
:10025000761B63EB04034C18A4FB017C40EB000508
:1002600005FB01C504FB0055A7FB014C05FB01C5BF
:1002700007FB0055A4FB017C05FB01C504FB0054F2
:10028000F6196341DDE90045AD0045EA9475A40027
:10029000A4FB017C05FB01C104FB0014F01B73EB04
:1002A000040103D50023404263EB0101BAEB0004D3
:1002B00079EB010301DA82468946521C032A85DB69
:1002C0005046494600E010E002F02EFCA149896B3F
:1002D00002F033FA02F07CFC9D4AD2F80C2203B003
:1002E0009200BDE8F04F02F04DB9002003B0014686
:1002F000BDE8F08F2DE9F14F0020009A0146926F82
:10030000F2B300240022521C042AFCDB009A02EB08
:10031000C405AA46D5E90029A2FB023CD5E9067628
:100320009E46FB1A0325A3FB057809FB02CC02FBC2
:1003300009CB66EB0B0606FB05854FF0000C03FBB3
:100340000C5617EB0E03A3FB027C46EB0B0606FBD9
:1003500002C203FB0923DAE90C25BA1AAB4103D523
:100360000025524265EB0303851A71EB030501DAA0
:1003700010461946641C032CC4DB02F0D5FB00E0D8
:100380000EE07449896B02F0D8F902F021FC704A42
:10039000D2F80C22BDE8F84F02EB420202F0F2B8AC
:1003A00000200146BDE8F88F2DE9FE43684D8046E8
:1003B0000024D5F810626F4605EBC4013246D1E93E
:1003C000020102F0D0F805EB8401B1F884100904B1
:1003D000401847F8240004F10104032CECDB5C48CE
:1003E0009821083002F007F90120FFF7BDFE95F8CB
:1003F000E8010199042807D1D5F81802B0F5201FAB
:1004000002DD052085F8E801524C0098636AC11AA4
:1004100001D40E4600E01E1A0198A26A801A01D487
:10042000074601E0019FD71BBE4206DD002901D42B
:10043000084606E00098181A03E0002801D5019844
:10044000101A029AE16A521A01D4134601E0029B83
:10045000CB1A834205DB002A01D4104601E0029842
:10046000081AD8F8241007F01AFED5F8181281429D
:1004700006DD0321684608F001FB022008F066FB58
:10048000009860620198A0620298E062BDE8FE8375
:10049000304AC2E9020170472E4AC2E9060170479C
:1004A0002C4AC2E904017047294AD2F8E0310360BE
:1004B000D2E97402C1E900027047254AD2F8E0315E
:1004C0000360D2E97602C1E9000270472DE9FE47D8
:1004D00081460020EA468A6F22B901EB800339F990
:1004E0001020DA6701EB800239F91030D46F1D1B40
:1004F0004AF82050136E9D4200DD1566D36E9D4272
:1005000000DAD5660123002422464FEAE578A3FBF2
:10051000056704FB057403FB0844334602EB4206FF
:1005200001EBC60606EBC00CDCE90076FF1866415D
:10053000CCE90076521C042AE9DB401C0328CADB04
:10054000886F401C88670120C1F89000BDE8FE87D5
:10055000280700208809002030B5002302EB83051E
:1005600050F823405B1CEC66032BF7DBC2F88810C5
:10057000916F79B1002102EB810450F82130E56FD1
:100580005B1B00D55B42256E9D4200DA2366491C49
:100590000329F0DB906F401C90670120C2F89000A7
:1005A00030BD10B500210B4600EB8102491CD46E12
:1005B000D46713660329F7DBD0F8881040F8783F3A
:1005C000C0E9051310BDD0E92210081A7047014692
:1005D000D1E91802824200DB1046896E814200DBBD
:1005E000084670472DE9F0478046501E0126864098
:1005F0008946C2F12007404601F0C4FF04460D467B
:10060000404649463A4601F0AEFF3A4601F0BAFF8D
:10061000B04203DD641C45F1000505E071428842EB
:1006200002DA641E45F1FF3520462946BDE8F08711
:10063000F7490020086248628862C862086448641A
:100640008864C864086348638863C863086548654C
:100650008865C865704730B5EE4AD2F8483223B194
:10066000D2E990542D1A8C4101DAC2E990015B1C49
:10067000C2F8483230BD30B5E64AD2F8583223B11C
:10068000D2E994542D1A8C4101DAC2E994015B1C21
:10069000C2F8583230BD30B5DE4AD2F828322BB11C
:1006A000D2E98845041B71EB050401DAC2E988012F
:1006B0005B1CC2F8283230BD30B5D64AD2F8383289
:1006C0002BB1D2E98C45041B71EB050401DAC2E9B8
:1006D0008C015B1CC2F8383230BD2DE9F047024670
:1006E000CC48012508308046C36E016E046FC91ADC
:1006F000436E1B1B8B4200DB1946836ED8F87400D7
:10070000181A884200DB0146C14F6037F86B8842F7
:1007100004DA002400F00AFA204687E7108E01244C
:10072000BC4EC0054FF000010ED5D6F880303068C1
:10073000834209DBB2F87420D20506D5D6F8B02181
:10074000824201DB052400E00C4674B3600719D532
:10075000AF48C8388146FFF72EFD000D40EA013052
:100760000915C6E97601D7E904321B1A8A4102DA73
:100770000025FFF7A1FF9821484601F03CFF042027
:10078000FFF7F2FCE0070ED04046FFF714FDC6E984
:100790007C01D7E906340246181A8C4103DA002599
:1007A0001046FFF778FF284640E7FFE702203DE7C5
:1007B0001EB5044690F83000C0F38110032804D120
:1007C0009449201D0831FFF781FE94F87400C0F3AE
:1007D0008110032805D18E4904F14800C839FFF77C
:1007E00075FED4F8B8008B4AC0F38113A032694675
:1007F000032B0FD0C0F3411003281AD1002004EBC3
:100800008003D3F8A0309B1341F82030401C03280C
:10081000F5DB09E0002004EB4003B3F98C3041F82C
:100820002030401C0328F6DB6846D4F8C010FFF7E0
:1008300093FE1EBD2DE9F04705460020296BCA0531
:1008400067D501F05001402900D1012095F87410BE
:1008500001F05001402900D1012095F8B8106D4CED
:1008600001F05001402900D030B100F05FF90020C4
:10087000C4F8E00184F8E801654ED4F80812E86A8B
:100880006036814225D0C4F808020A28306B0ADAA3
:1008900040002060716B491CC4F80C1202F036F95C
:1008A0000AF072FA04E02060706BC4F80C02B06BBE
:1008B000C4F81402D4F80C02C0F11000C4F81002FD
:1008C0004FF48040C4F8180296F83410192088407C
:1008D000F0632846FFF76CFF94F8E811DFF83491D5
:1008E00005274FF0020809F1A009072911D2DFE816
:1008F00001F0041127305E7E8500D4F8E001411C30
:10090000C4F8E0110A2804DB00F010F9012084F893
:10091000E80186E0D4F89800012810D12846FFF7B6
:10092000DCFE10B1012803D004E084F8E87101E096
:1009300084F8E8814846FFF734FEFFF779FE70E05F
:10094000032084F8E8012846FFF72EFD00F0EEF8BA
:1009500067E02846FFF7C1FEF0B3012861D1B5F882
:10096000B8004FF00403C00515D54846FFF72FFE29
:100970000146C017C4E97410D6E902C2BCEB0101FC
:10098000824102DA84F8E87108E04846FFF71BFE6E
:10099000316A884202D384F8E83124E0F4E9760130
:1009A000FFF769FED4E90601FFF755FE39E0B5F817
:1009B000B800C0050BD54846FFF709FE0146C01731
:1009C000C4E97410D6E90232591A824108DB28467C
:1009D000FFF783FE00B100E002E0012803D020E031
:1009E00084F8E8711DE02846FFF7DEFCD6E7062014
:1009F00084F8E801012008F0A9F80DE02846FFF787
:100A00006CFE012801D038B10BE084F8E88108E0E1
:100A1000280900202807002000F088F84846FFF742
:100A2000C0FD002002E610B500214010002802D0D1
:100A300001F10101F9DC454C4FF0010001F1010128
:100A400000FA01F0C4E90C0102F060F80AF09CF928
:100A5000A06394F8341019208840E06310BD10B5ED
:100A60004FF418713A4801F0C6FD4021374801F0B3
:100A7000C2FD0720FFF778FB344840F2DC5100222A
:100A8000C0E906121421C0E902124FF41671C0E940
:100A9000041230492E4C01620120C4F8E4011920EF
:100AA000FFF7C1FF0020C4F8080210BD10B54FF4D5
:100AB0001871274801F09FFD0720FFF755FB2448D8
:100AC00001210022C0F8E41180F8E811032101207F
:100AD00008F02EF807226421AFF2A720BDE81040ED
:100AE00007F0AEBD10B5012008F030F8AFF2BB2022
:100AF000BDE8104008F0AEB810B5FFF7B0FF002811
:100B000005D1AFF25700BDE8104007F05DBE10BD43
:100B100010B5FFF7E7FFAFF26B00BDE8104008F03B
:100B2000CBB80B49D1E97C0170477047084810B534
:100B30009821083001F05FFD9821074801F05BFD26
:100B4000BDE810400520FFF70FBB0000880900201A
:100B5000280700200008AF2F600800202DE9FC5F67
:100B60000D460026416B99469246B046002904DBAB
:100B7000D0F8BC00032800D10126FF492422081F19
:100B800001F012FDFC4FC03F0024C7F8E05007EB16
:100B90008400D0F8BC10404601F045FD641C80463E
:100BA0000A2CF4DBF54901F0C8FDF54C80464FF006
:100BB000C80BC7F8E400BAF1320F21DB4846C7F88A
:100BC0001CB101F0A3FF00900190EE49284601F00E
:100BD000B4FD019901F07FFD214601F0AEFD044610
:100BE000BAF57A7F33DBE8492846009C01F0A5FD81
:100BF000214601F070FDE24901F09FFD044626E028
:100C000041F2883199FBF1F04042D7F81C1100EB1A
:100C100080004018C7F81C0102D50020C7F81C014D
:100C2000484601F073FF8246D849284601F085FD09
:100C3000514601F050FD214601F07FFD0446D7F8F2
:100C40001C0120B9D7F82801012800D10024D7F8C9
:100C5000200100B12C46CE49894500D12C4614F024
:100C6000FF4F11D04046C7F8E880414601F02DFD06
:100C700020F00040C74902F03DF822D2D7F8B80072
:100C800010F0FF4F03D01CE0D7F8E800EDE7C6B145
:100C90004846C7F81CB101F05DFF04460E462846E1
:100CA00001F0D6FF0022BC4B01F0AAFE22463346DB
:100CB00001F034FE0022B94B01F0A2FE01F0F4FF76
:100CC00004462046BDE8FC9F2DE9F04FABB04FF045
:100CD000000AA94FCDF810A0C03FCDF814A0CDF860
:100CE00018A00446D7F82011022003297DD0002641
:100CF00020AD07EB8600D0F8A80001F007FF6FF0E9
:100D00001D0101F058FD45F82600761C042EF0DB8D
:100D10000FA806F039FD24A806F080FD964B24AA02
:100D2000183B0FA92046279300F0F4F9064604F17A
:100D3000180006F0EFFD82099548D7F8303183425C
:100D400000DB034631462046FFF708FFBB4607F1AC
:100D5000B806D7F8EC1001F0BEFC30600BA806F026
:100D600013FD13A90BA807F0FDFB83480FAA3C3025
:100D70000BA9064607F0EDF931460BA807F0CEF9AE
:100D800000210DF13C080DF14C090DF1100E00226F
:100D90001346104601EB410C0CEB000759F8276095
:100DA00008EB8007401C7F680328C6FB0723F3DBA2
:100DB000900F40EA83004EF82100491C0329E6DB2E
:100DC000DBF820015F4600287DD05046CDF818A002
:100DD000404201F09BFE6FF01D09494601F0EBFC1B
:100DE00004F06AFDD046564600E074E0CDE9000A02
:100DF0000698CDF808A0404201F088FE494601F06F
:100E0000DAFC09F0FDFE0390D7F8300141F2883199
:100E100090FBF1F04FF0804A01F078FE2890299085
:100E2000069801F073FEDFF878B1594601F085FCB1
:100E3000299901F082FC514601F07FFC01F09BFEF4
:100E400040000690DDF8A0A001F060FE594601F0D8
:100E500042FC514601F03FFC01F08DFE069001F08E
:100E600055FE494601F0A7FC04F026FDCDE9070632
:100E70000996069801F04AFE494601F09CFC09F0EB
:100E8000BFFE0A901CAA694620A807F0BBF96A4673
:100E900007A91CA807F0B6F9D4F8BC00EA46002858
:100EA00010DD00261E215AF8260045F8260001F024
:100EB00082FC01F060FE07EB8601761CC1F8A800F9
:100EC000042EEFDB00E00BE0D4F8BC004FF0FF3560
:100ED00003280AD106E0C7F820012BB0BDE8F08F47
:100EE000069875E701F007FBF0B357F8A80F01F07B
:100EF0000DFE4E46494601F05EFC1C90786801F0FC
:100F000005FE314601F057FC1D90B86801F0FEFD6A
:100F1000314601F050FC1E90F86801F0F7FD3146B3
:100F200001F049FC1F90B86FA83F0028D5D0D7F832
:100F3000B8002946A83701F03EFC04F0BDFC1E2194
:100F400001F039FC01F017FEC7E90008C7F8088076
:100F50002946386901F02FFC09F052FE1E2101F0EC
:100F60002AFC01F008FE00E01CE0F860D4F8C01094
:100F7000A83F279844E00000880A00200000204194
:100F800000409C4500004843000048420000C84320
:100F900040420F000E2DB23D000079400088B34062
:100FA000E10237472946D7F8B80001F004FC04F005
:100FB00083FCCDE90708CDF824802946D7F8B8008E
:100FC00001F0F9FB09F01CFE0A906A4607A920A867
:100FD00007F018F9684607F0E5F9002556461E2186
:100FE00056F8250001F0E7FB01F0C5FD07EB850190
:100FF0006D1CC1F8A800042DF1DBD4F8C0102798AF
:1010000007F094FCD7F8200100288FD0401E62E73B
:1010100070B590F8B810664ACC064FF000034FF058
:10102000030101D4C2E94813B0F82041E40509D412
:10103000048EE40503D5B0F87440E40502D4C2E997
:1010400048131AE0D2F8341139B1D0E93013C91A73
:101050004FF47A73B1FBF3F105E0D0F8B01044F629
:101060002064A14202DBC2F830110AE0D2F82C5110
:101070002944C2F82C11A14201DA002070BDC2E956
:101080004B31FFF721FEF8E710B54FF49C7148484B
:1010900001F0B1FA464C4FF080400021C4F8FC004A
:1010A00044F8A80F4248A83007F040FC4FF47A708B
:1010B00060674FF07E50606410BD3D49C1F8EC00A0
:1010C000002070473A49C1F828010020704738498C
:1010D000C1F834010020704704224FF41671AFF2BA
:1010E000CF0007F0ADBAAFF2D70007F0B3BD10B52F
:1010F000FFF7CAFF2E490020C1F82801C1F83401CA
:10110000AFF22B00BDE8104007F05EBBAFF2370036
:1011100007F0D2BD2DE9FF470C4625491546074685
:1011200099463C220C31224801F03EFA20495022D7
:101130005831A1F1100001F037FA1D4E95E8070073
:1011400006F13C031B4D83E807001ECC06F1980016
:1011500080E81E00D6F82401401CC6F824010628A9
:1011600002DD0620C6F82401C0F1060407F1A0083C
:1011700018E006EB04116A464846483106F0E9FFDC
:1011800004EB440006EB80016A46404606F028F96D
:10119000074625F0004120F0004001F0A1FD00D2FB
:1011A0003D46641C062CE4DB04B02846BDE8F0870D
:1011B000C8090020002474491FB501461022684662
:1011C00001F0F2F9F6489DE80E0080E80E00F549BE
:1011D0009DF80C0081F8B001002004B010BD1FB5CF
:1011E000EF490EC98DE80E00EE49102291F8B011BA
:1011F0008DF80C10694601F0D7F90020EDE72DE9D4
:10120000F04F91B000251821684601F0F4F9002450
:10121000182106A801F0EFF9E249A046C14691F86D
:10122000C00101287ED1D1F8B8B1D1F8B4A1002213
:10123000C2EBC20000EB4001DA4800EB810E9EF8E1
:1012400050000F90002863D000215EE05EF821304E
:10125000DDE900676D1CD8170E939B197841CDE925
:1012600000300EEB8100EDB243690D93DDE9027CA5
:10127000DE17DB1946EB0C06CDE90236836ADDE9A1
:10128000047CDE170C93DB1946EB0C06CDE9043623
:10129000C06B0E9BDDE9067C83FB0063360C46EADF
:1012A0000346F6194CEB2343CDE906630D9BDDE9BC
:1012B000087C83FB00634FEA164646EA0346F619AC
:1012C0004CEB2343CDE908630C9BDDE90A7C83FBEF
:1012D00000634FEA164646EA0346F6194CEB2343F1
:1012E000CDE90A6380FB00634FEA164646EA0346EF
:1012F00016EB080849EB23490444584501DA8346B4
:1013000002E0504500DD8246491C0F9888429DDC72
:10131000521C052A8CDBA348AAEB0B01D0F8BC01B8
:10132000814200E053E052DBA5FB0872E017002683
:101330000F9006FB082005FB09000E9084FB0410AB
:10134000090C41EA00410014CDE90C0106A800EBAC
:10135000C601D1E90002A0FB05BC02FB05C20021C9
:1013600000FB012C684600EBC601D1E90002A0FB9E
:10137000043802FB04820F9900FB0120190C0CAA0F
:1013800041EA00494FEA204A92E80B0087EA01024D
:1013900083EA000852EA080212D07A1A63EB0003CB
:1013A000BBEB09006CEB0A0C4FEA0C4141EA10411F
:1013B000000401F0A7F87B4901EB8601C1F8A40104
:1013C000761C032EC2DB7748012180F8B01111B0E2
:1013D0000020BDE8F08FF8B5724D0E460446D5E901
:1013E0006D01091A052291FBF2F1301A90FBF1F020
:1013F000C0B28DF80000042801D92020F8BDC0EB50
:10140000C00000EB400005EB800191F8500005287A
:1014100016D0421C81F850209DF80010C1EBC1018C
:1014200001EB410105EB810202EB8001CE632368F1
:1014300042F8203060684861A06888620020F8BDEA
:1014400001F14003181F1022194601F0ADF89DF874
:1014500000001022C0EBC00000EB400005EB800054
:10146000011D01F0A1F89DF800001022C0EBC000A2
:1014700000EB400005EB800000F11801143001F092
:1014800093F89DF800001022C0EBC00000EB400074
:1014900005EB800000F12C01283001F085F80420D4
:1014A000BAE730B585B0044603A9684606F0F4F9FA
:1014B00004A806F0AFFA02282BD0D4F8E400039970
:1014C000401A384991F8B02112B308B3D1F8A421D9
:1014D000009C80FB0232150445EA1342224400922C
:1014E000D1F8A821019C80FB0232150445EA134281
:1014F00022440192D1F8AC11029A80FB011003043E
:1015000043EA1140104402900321684607F0B6FAFE
:101510000CE0606B032809D106F0D0F930B16846C1
:101520000399FFF758FF08B9FFF769FE05B00020DF
:1015300030BD10B54FF4E2711A4801F05CF819485B
:101540001949C0F8B4114FF4AA01C0F8B8114FF40A
:10155000A021C0F8BC11012180F8C011002010BDED
:101560001049C1F8B801002070470E49C1F8B40114
:10157000002070470B49C1F8BC010020704758B1EA
:101580000849D1F8A4210260D1F8A8214260D1F81D
:10159000AC118160002070470520704724207047FF
:1015A000A40C0020000B00200000D8FF20B12D4922
:1015B00081F8C0010020704724207047294B93F820
:1015C000B101002818D0D3E96D10401A052190FB15
:1015D000F1F00020C0EBC00101EB410103EB810100
:1015E00091F8502022B1002100E0491C8A42FCDC25
:1015F000401C0528EEDB00207047082296211A487F
:1016000007F01EB8184807F025BB10B5FFF791FF8B
:101610004FF49A7310221549154807F08DF820B938
:10162000AFF2290007F0D0F808B1012010BD0D4934
:10163000012081F8B101002010BD10B5094C94F8CB
:10164000B101002808D0084807F004FBAFF25500AC
:1016500007F032FB08B1012010BD002084F8B10171
:1016600010BD0000000B0020A3140008DF110008CB
:10167000B91100082DE9F043044699B01D46914682
:101680000E46806801F042FA014601F024F88046D7
:10169000606801F03BFA014601F01DF8074620683A
:1016A00001F034FA014601F016F8394600F0BBFFAC
:1016B000414600F0B8FF09F067FB074620F0004004
:1016C0004FF08D4101F016FB7ED2306801F01EFA1A
:1016D0006FF01D08414601F06EF80490706801F04B
:1016E00015FA414601F067F80590B06801F00EFA6E
:1016F000414601F060F80690F06801F007FA4146B3
:1017000001F059F800260C960790206801F0FEF9C8
:10171000394601F012F80D90606801F0F7F939468A
:1017200001F00BF80E90A06801F0F0F9394601F0D5
:1017300004F80F9010AA0CA904A806F063FD14A9E0
:1017400004A806F0F7FC6A4614A910A806F05AFD92
:101750000199084600F0BFFF02990446084600F0D0
:10176000BAFF214600F05FFFFE49884201DAFE4CD5
:101770000BE0FE49884201DAFD4C06E0FD49884253
:1017800002DA4FF07A5400E0FB4C484601F0BEF913
:10179000FA4900F0D2FF214600F09DFF044608966A
:1017A0002146029800F097FF09900198214680F0A9
:1017B000004000F090FFCDE90A066A4604A908A897
:1017C00006F020FD6A4600E025E004A9104606F078
:1017D0008CFC684606F09DFD1E21009800F0EBFF92
:1017E00001F0C9F928601E21019800F0E4FF01F022
:1017F000C2F968601E21029800F0DDFF01F0BBF91C
:10180000A8601E21039800F0D6FF01F0B4F9E8604B
:1018100019B0BDE8F08396E80F0085E80F00F7E700
:101820002DE9F05F05460C46806801F06FF901462E
:1018300000F051FF0746686801F068F9014600F0C2
:101840004AFF0646286801F061F9014600F043FFAF
:10185000314600F0E8FE394600F0E5FE09F094FA62
:101860004FF07E59002706464FF08048484505DC7A
:10187000C4E90087A760E760BDE8F09FA86801F0B1
:1018800045F9314600F059FF82460146484600F0CE
:101890001CFF4FF40006B04200DA00204FF0FF3189
:1018A00000F089FF09F070FA83464946504600F07F
:1018B000BAFEB04200DA00204FF0FF3100F07BFFAB
:1018C00009F062FA8246686801F020F9014600F0EA
:1018D00002FF0646286801F019F9014600F0FBFEF8
:1018E000314600F0A0FE09F04FFA06464845BFDD3C
:1018F0001E21504600F05FFF01F03DF9206068684E
:1019000001F004F9314600F018FF594600F0E3FEFB
:101910001E2100F050FF01F02EF96060286801F0F0
:10192000F5F8314600F009FF594600F0D4FE94491D
:1019300000F0D1FE01F01FF9C4E902079CE72DE990
:10194000F04105460C46C06801F0E0F8014600F0A1
:10195000C2FE8046A86801F0D9F8014600F0BBFE3F
:101960000746686801F0D2F8014600F0B4FE06466A
:10197000286801F0CBF8014600F0ADFE314600F0DA
:1019800052FE394600F04FFE414600F04CFEB0F5E5
:10199000000F06DA4FF08040206000206060A060F9
:1019A0002DE009F0F1F901464FF07E5000F0C5FE40
:1019B0001E2100F000FF0646286801F0A7F8314616
:1019C00000F089FE01F0D7F82060686801F09EF809
:1019D000314600F080FE01F0CEF86060A86801F0AA
:1019E00095F8314600F077FE01F0C5F8A060E86890
:1019F00001F08CF8314600F06EFE01F0BCF8E060BA
:101A0000BDE8F08170B5044690F8300088B040061B
:101A100076D5A069002801DB014600E041424FF481
:101A200080320026574D91420BDAE169002900DA35
:101A30004942914205DA216A002900DA494291427D
:101A400060DB002800DA40424FF4C80188420BDC1A
:101A5000E069002800DA4042884205DC206A00285C
:101A600000DA4042884201DD032000E00220A86342
:101A7000696BA06A814219D06863A06A01F046F8D8
:101A8000414900F05AFE1D2100F095FE01F0E0F8FA
:101A90003E4A3F4B00F042FF082201F020F80022AE
:101AA0003C4B00F0ADFF01F0B4F828630496296BBD
:101AB000A06906F0F4FA0590296BE06906F0EFFAE8
:101AC0000690296B206A06F0EAFA07906A4604A994
:101AD0002C4806F03EFB00982A4A800100900198AD
:101AE000694680010190029880010290039880016C
:101AF0000390104606F0E7FA22490846FFF71FFF59
:101B000008B070BDAE63FBE72DE9F0430446D0F8A2
:101B100020018FB041067CD51A4DD4F810111E4B10
:101B20002A68891AD4F82C215A438A4201DA0321FF
:101B300000E00221A963810504F58870804601D583
:101B40001049D4E0002104A805F0A6FE0D490C229E
:101B50003C3104A800F05AFD08BBD4F82801A96D57
:101B600088421BE017B75139A69BC43B0AD7233CD8
:101B70008FC2753DCDCC4C3ECDCCCC3E0014CD4774
:101B8000000080CEC40C002000247449112D445460
:101B9000FB2109400080664071981C007ED020889F
:101BA00007AB80B204AA616A05F074FC099800F0E2
:101BB000ADFF014600F08FFD0746089800F0A6FF34
:101BC000014600F088FD0646079800F09FFF014699
:101BD00000F081FD314600F026FD394600F023FD7E
:101BE00009F0D2F80646E84900F075FDE74900F033
:101BF000A4FD6FF00F0100F0DEFD0746D4F82801C8
:101C000000F084FF394600F066FDE14900F095FDE3
:101C100000E06EE04FF0FF3100F0CDFD074603F02D
:101C20004BFE8146384608F0EBFF07464FF08040F8
:101C3000864204DAA8640020E864286533E01E21A7
:101C4000484600F0B8FD00F096FFA864079800F041
:101C50005DFF8146CF49384600F03DFD07464946C5
:101C600000F039FD314600F068FD00F084FFE864C3
:101C7000089800F04BFF0146384600F02CFD314635
:101C800000F05BFD00F077FF2865099800F03EFF4B
:101C90000146384600F01FFD314600E00EE000F03E
:101CA0004CFD00F068FF04AB686593E8070005F1A0
:101CB0003C0383E80700D4F82801A8656A46B649C2
:101CC000404606F046FAB4480AAA1430694604466B
:101CD00006F03FFA2146404606F020FAAE486A4632
:101CE0000AA9483806F035FAAB4968464839FFF783
:101CF00026FE0FB08DE51FB50446A7486946483853
:101D000006F00CFAA44A6946283A204606F021FA61
:101D1000A1491DCC383981E81D001FBD2DE9F047D0
:101D20009D4E0446483E90F8740006F15C0A06F1A8
:101D30002008012500F05001103692B004F5887992
:101D400004F15C07402906D094F8200100F050000F
:101D500040280DD01EE031463846FFF761FDB4F84B
:101D60002001C0050CD55146484606F0D7F907E0DA
:101D70005146484606F0D2F9B4F87400C00509D5BA
:101D800085486946483806F0C9F9424669463046F2
:101D900006F0DFF9B4F82001C005204602D5FFF7B0
:101DA000B3FE01E0FFF72EFE7B493246483940463C
:101DB00006F0CFF994F87400400671D5208EB4F87F
:101DC00020110843C00578D50FAA3946304606F0E1
:101DD000A0FBD4E9172080FB0001C2FB0201626E68
:101DE0006D4FC2FB0201483F4FF08042801A71F1F3
:101DF000020014DB04A805F0CFFDDDE9042080FB20
:101E00000001C2FB0201069AC2FB02014FF08042B0
:101E1000801A71F1020002DB0420B8630BE0B86B9A
:101E2000042808D041F28832022806D0032804D0C2
:101E300001283AD009E0002507E0E16E91FBF2F5B8
:101E4000012D00DA0125032800D0AD0053480024FD
:101E50004543109807948002294606F020F908901F
:101E60000F9829464042800206F019F9CDE909048D
:101E70000BAA314607A806F06CF932460BA91046AA
:101E800006F021F931460846FFF759FD42486946F8
:101E9000483806F043F942466946304606F059F99B
:101EA00012B00020BDE8F08707E0E06E90FBF2F092
:101EB000012800DA01204500C7E7334619463846B5
:101EC000E26EFFF7D7FBE1E770B50446008EC1056F
:101ED000D4F8200107D4B4F87410C90503D4C1059F
:101EE00001D4002070BDC0F30120032808D0204693
:101EF000FFF714FF2848A16B383806F099FEF0E789
:101F000004F5887124482EC9383880E82E00F1E79E
:101F1000234806F09FBE204810B56C21483800F0D9
:101F20006AFB1D484FF08041483801610160016241
:101F3000C163C165002010BD1D4810B5082219A15C
:101F4000006800F063FB08B1322010BD1322BDE829
:101F50001040C821124806F073BB10B5FFF7DBFF35
:101F6000002805D1AFF22F00BDE8104006F02CBCD0
:101F700010BD10B50A4806F06DFEAFF24300BDE893
:101F8000104006F099BE0000DB0F494000003443CA
:101F900000247449000080CE0C0D0020A69BC400D4
:101FA000C91E0008654D504C20352E310000000040
:101FB00030000020002803DDFE490122C1E9200293
:101FC0000020704710B5B821FA4800F014FBF9481A
:101FD000F949C160F9498160F9490160F9494160F5
:101FE0004FF0804141664FF4FA61C167F649C0F88D
:101FF0009C10002010BD2DE9F041EE4C0E46074626
:102000000025216800F076FE11D33846616800F0A3
:1020100067FE0CD32069012813D13046E16800F037
:1020200069FE04D33046A16800F05AFE09D2606F01
:1020300020B9E048A16D183006F078FC0120C4E911
:102040001D05D4E91E01884204DB606F012800D120
:10205000E5656567BDE8F08170B50C46054605F09D
:102060009FFBD44A002110B9D848854202DD116196
:10207000516102E01069002808D150692044506184
:10208000B0F5FA7F02DD0120C2E9040170BDF0B5B0
:102090008DB00D4614460646694606F063FA09AA55
:1020A0003146284606F055F82946304606F036F8FF
:1020B0000021EC460DF1240E00231A46184601EBD0
:1020C00041073D180EEB80065CF825507668401CF1
:1020D000C5FB06320328F4DB980F40EA820044F87F
:1020E0002100491C0329E7DB0DB0F0BDB1490020F8
:1020F000C1F88C00704770B50446806800F006FD9A
:10210000014600F0E8FA0546606800F0FFFC014671
:1021100000F0E1FA0646206800F0F8FC014600F005
:10212000DAFA314600F07FFA294600F07CFA08F02E
:102130002BFEBDE870406FF00F0100F03CBB70B5A6
:102140000E4600259B4C012130B101280CD0C4F86B
:10215000981044F88C5F29E0C4F8A060C4E92965B0
:10216000E4E92415A56070BD3046D4F8A01000F055
:10217000ACFA20F00040D4F89C1000F0B1FD13D26E
:1021800054F8945F31466D1C2560206900F04BFACD
:102190002061943C312DE6DD022144F8901F8C49EA
:1021A00000F0CBFAA06170BD44F8905F656070BD2F
:1021B0002DE9FF4F8BB000267E4C05460396049612
:1021C0000596D4F888009346374600287ED005F05F
:1021D00085FB10B103A805F051FBD4F88000A1469F
:1021E000002819DD01204C46C9F8840005F076FB73
:1021F00048B103A805F08EFB8009B0F5C87F02D274
:10220000D4F8800004E0D4F88000401BC4F88000BB
:10221000002801DCC4F8847005F076FE002855D053
:1022200000240E9850F8240000F070FC82465BF801
:10223000240000F06BFC6FF00F08414600F0BBFA81
:10224000514600F048FA414600F0B5FA314600F038
:10225000EAF9641C0646032CE3DB5846FFF74BFF04
:1022600001460690304600F068FA4FF07E58DFF8DD
:1022700064A1404501DD404602E0504500D950468A
:1022800003F016F98346D9F88C004E4670B13168D8
:10229000069800F025FD09D27168069800F02AFD25
:1022A00004D25946D6F89000FFF749FF684605F07A
:1022B00091FB40490C22AC31684600F0A7F918B9EF
:1022C000D6F8980001286CD13A4800E0C6E09DE8B5
:1022D0000E00AC3080E80E00009818B9019808B9DB
:1022E000029858B36846FFF706FF044610F0FF4F08
:1022F00057D0DFF8E4902046494600F0E6F9014661
:1023000000F0E9F908F040FD70604946204600F011
:102310008AF9014600F0DFF908F036FD30600298D6
:1023200000F0F4FB6FF00F0100F045FA214600F0D9
:1023300004FA044640451FDD444620E02048306052
:1023400020487060D6F89800012804D01B48B0607F
:102350001948F06025E0D6F89C80D6F8A8404146A0
:10236000204600F0B2F9B0604146204600F05BF92B
:10237000C6F89870F06014E0544500D954462046E1
:1023800003F096F8D6F89C1000F09FF9B060204654
:1023900003F08EF8D6F89C1000F045F9C6F88C7062
:1023A000F060DFF81080F16D08F1580801BB0120E2
:1023B000002413E0300D00200000B4420000B4C23D
:1023C000000070420000F0417B142E3E00401C468D
:1023D00000004842000080BF00002041F06506EB8D
:1023E00004104146183005F005FA641C042CF6DB95
:1023F000434907AA0C460C98FFF749FE21460C9862
:1024000005F08CFE03A805F085FA00F088FB6FF05C
:10241000050100F0D0F92946FFF71EFE594606983F
:10242000FFF7E9FDD6E91E01884201DA2844B067CA
:10243000706F90B9306E28443066B0F57A7F0CDD4D
:102440002F4930223C39A1F11000376600F0ACF87A
:102450002B4841461C3805F0CDF9706F0FB0BDE830
:10246000F08F70B588B0044604A805F0D7F9D4E918
:102470003001451A684605F087F9064604AB04F1B9
:10248000A00269462846FFF793FE06F061FA08B0FD
:10249000304670BD04224FF49671AFF2390006F059
:1024A000CFB8AFF2410006F0D5BB10B5FFF78AFDFB
:1024B00000280DD1124800216438C0F88C10012189
:1024C000C0F88810AFF23300BDE8104006F07CB9C8
:1024D00010BD10B5AFF2750006F0BCFBAFF27D0089
:1024E000BDE8104006F0B6BB054901206439C1F8CB
:1024F0008C000020704702486438406F704700002D
:10250000940D00202DE9F0410024061B254671F1B1
:10251000000605DA01240027D0EB070067EB010174
:10252000161E73F1000605DA0027D2EB070201251B
:1025300067EB030300F0FEFB86460E4617469C46FB
:10254000AC4204D00025D0EB050E65EB010624B1AA
:102550000020D2EB000760EB030C704631463A4690
:102560006346BDE8F081202A04DB203A00FA02F13C
:10257000002070479140C2F1200320FA03F3194371
:1025800090407047202A06DBCB17203A41FA02F030
:1025900043EAE07306E041FA02F3D040C2F12002C0
:1025A000914008431946704710B5431A934209D227
:1025B0008318881803E010F8011D03F8011D521E4E
:1025C000F9D210BD40EA01039B0703D009E008C916
:1025D000121F08C0042AFAD203E011F8013B00F8E8
:1025E000013B521EF9D210BDD2B201E000F8012B1E
:1025F000491EFBD270470022F6E710B513460A4683
:1026000004461946FFF7F0FF204610BD30B50446DA
:102610000020034600E05B1C934203D2E05CCD5CEB
:10262000401BF8D030BDF0B480EA0102D40F420064
:10263000B2EB410F02D20246084611464A0042D090
:10264000C30DDDB2C1F3C752AD1A202D35DAC1F387
:10265000160141F4000204B15242C5F1200602FA0B
:1026600006F12A411044B3EBD05F23D0C4B1012D51
:10267000A0EBC35009DCF0BC4FF0004202EAC352A9
:10268000DBB200F5000000F09FBB400000F180705D
:1026900000EBC350A0F1807040EAD170490009E01E
:1026A000490841EAC071A0EBC35000F500004008A2
:1026B00000EBC350F0BC00F07EBB6142012202EB94
:1026C0004101001BF6E7F0BC704781F00041AAE72A
:1026D00080F00040A7E780EA010210B502F0004355
:1026E000400022D04A001FD0010E01EB1261C0F35E
:1026F0005600C2F3560240F4000042F40002A0FB70
:10270000022000047F39140400D0401C50EA12401B
:1027100001D44000491EC2B20C0604EBD010401C8C
:102720004008802A02D003E0002010BD20F0010004
:10273000002900DA0020184310BD30B480EA0102FD
:1027400002F0004530F0004221F0004013D090B17B
:10275000C30DD40DC2F31601C0F31600E41A41F400
:10276000000140F400027D34914201D3641C00E07A
:102770004900002C02DA30BC002070474FF4000002
:102780000023914201D3891A034340084FEA4101D3
:10279000F7D151B1914202D14FF0004105E002D290
:1027A0004FF0010101E06FF0010103EBC450284438
:1027B00030BC00F000BB420005D0C0F3C75252420B
:1027C000914201DC0020704700EBC15070472DE9B9
:1027D000FE4F804681EA0300C00F0C46009021F0B6
:1027E000004123F00045B8EB0200A94105D2404664
:1027F000214690461C460B46024623F000401043FB
:1028000047D0270DC7F30A00C3F30A510290401ABC
:10281000019040286BDAC3F3130040F4801B00984A
:10282000924620B10023D2EB030A63EB0B0B019815
:102830005946C0F140025046FFF795FE06460D4648
:1028400050465946019AFFF79DFE10EB0800614182
:10285000002487EA115284EAE7731A4340D0009AB1
:1028600062B3019A012A4FEA075215DC001B61EBA3
:1028700002014FF0004202EA0752CDE90042001C7B
:1028800041F5801132462B4600F028FB03B0BDE82D
:10289000F08F40462146F9E7001B61EB0201001C66
:1028A00041F5801300185B412018A2F5001747EB93
:1028B000030140EAD570B6196D4111E06D084FEA89
:1028C000360645EAC0754FEA0752001B61EB02016C
:1028D000001C41F5801149084FEA300000195141B0
:1028E00032462B4603B0BDE8F04F00F0E8BA00983E
:1028F000012240000023D0EB020263EBE07300985A
:1029000021464FEAE074B8EB000061EB0401E9E70F
:1029100083F000435BE781F0004158E72DE9FE4F6B
:1029200081EA030404F0004421F0004100944FF0D8
:10293000000B23F0004350EA01045ED052EA030486
:102940005BD0C3F30A54C1F30A552C44A4F2F33408
:102950000194A0FB0254C1F3130141F48011C3F3AD
:10296000130343F4801301FB024400FB034E840A6B
:10297000970A44EA815447EA8357A4FB0768029503
:102980008D0A05FB07854FEA932C04FB0C542705A1
:10299000029D4FEA065847EA1637B5EB08056EEB7D
:1029A000070C870E920E47EA811742EA8312A7FBB3
:1029B0000201B6EB0B0164EB00042B0D43EA0C3370
:1029C0005E1844EB1C50DA465146E7FB0201C5F3A2
:1029D00013044FEA0B3343EA14534FEA0432019CC9
:1029E00043EA0603A4F10C040294009CCDE900B470
:1029F00000F074FA03B0BDE8F08F00200146F9E75B
:102A00002DE9F04D81EA030404F0004B21F000456C
:102A100014464FF0000A23F0004150EA050220D08E
:102A200054EA01021DD0C5F30A570246C5F3130349
:102A3000C1F31300C1F30A5640F4801543F4801328
:102A4000A7EB0608101BD64608F2FD3873EB05000D
:102A500002D308F1010801E092185B41B8F1000FC0
:102A600003DA00200146BDE8F08D00204FF480110C
:102A7000064684460EE0171B73EB050705D3121BB1
:102A800063EB050306434CEA010C49084FEA3000AA
:102A900092185B4150EA0107EDD152EA030012D0CF
:102AA00082EA040083EA0501084305D0101BAB410C
:102AB00006D20122002306E000224FF0004302E08C
:102AC0006FF0010253101AEB06004CEB085110EBAB
:102AD0000A0041EB0B01BDE8F04D00F0F0B970B514
:102AE00021F0004303430CD0C1F30A550024D5EB79
:102AF000040564EB0403D617AD1AB34102DB0020D2
:102B0000014670BD201841EB025170BDC10F80EA33
:102B1000E0700844CA079623002100F055B99623B7
:102B20000022114600F050B9F0B4CA17CB0F504044
:102B30005140C61841F100054FEAC37231462800E2
:102B40004FF0960303D0B623F0BC00F03DB93046F9
:102B50000021F9E70EB5C10F80EAE0700844CA070A
:102B6000002140F233438DE80E000A460B4600F088
:102B7000B5F903B000BD00F0004220F00040C10DE7
:102B8000C0F3160040F400007F2901DA00207047EE
:102B9000962903DCC1F19601C84001E096398840CE
:102BA000002AF4D04042704720F00040C10DC0F32D
:102BB000160040F400007F2901DA002070479629B2
:102BC00003DCC1F19601C8407047963988407047D0
:102BD00010B500F0004420F00040C20DC0F3160014
:102BE00040F400007F2A02DA0020014610BD0021D7
:102BF000962A03DCC2F19602D04002E0963AFFF733
:102C0000B2FC002CF2D00023D0EB030063EB0101F7
:102C100010BD70B5C1F30A5201F000450024C1F3A4
:102C2000130140F2FF3341F480119A4201DA00208F
:102C300070BD40F233439A42A2F2334203DC524267
:102C400000F0A9F800E090402C43F1D0404270BD64
:102C500000F0004230F000400AD0C10D01F5607173
:102C6000C0F3160042EA0151C20840071143704701
:102C7000002001467047000030B5041E71F10004C9
:102C800004DB4FF00044404264EB0101141E73F179
:102C9000000405DB1C464FF00043524263EB040383
:102CA000994208BF904230BD01F0004330B421F09A
:102CB000004150EA010206D00A0DA2F56072C1F38C
:102CC0001301002A02DC30BC00207047440F44EAA4
:102CD000C104C100E01830BC00EBC25000F06BB87A
:102CE000002801DBC0F10040002901DBC1F10041F7
:102CF00081427047002801DBC0F10040002901DB60
:102D0000C1F100418842704730B50B4601460020B2
:102D10002022012409E021FA02F59D4205D303FA9D
:102D200002F5491B04FA02F52844151EA2F101021E
:102D3000F1DC30BD2DE9F05F0546002092469B4650
:102D400088460646814640241BE0284641464746C1
:102D5000224600F020F853465A46C01A914110D33B
:102D6000114618462246FFF7FEFB2D1A67EB0108B5
:102D70004F46224601200021FFF7F5FB17EB000923
:102D80004E41201EA4F10104DFDC484631462A46AC
:102D90004346BDE8F09F202A04DB203A21FA02F0E6
:102DA0000021704721FA02F3D040C2F12002914085
:102DB0000843194670470029A8BF7047401C4900C6
:102DC00008BF20F00100704710B4B0FA80FC00FA90
:102DD0000CF050EA010404BF10BC704749B1CCF1BB
:102DE000200421FA04F411FA0CF118BF0121214347
:102DF0000843A3EB0C01CB1D4FEA00614FEA102002
:102E000042BF002010BC704700EBC35010440029A3
:102E1000A4BF10BC7047401C490008BF20F001004F
:102E200010BC7047F0B4002802DCF0BC00207047F2
:102E3000C0F3C751C0F3160040F40000CA0701D127
:102E40004000491E3F2202EB6105002211464FF46B
:102E5000000626FA01F31344D418844201D8001B5B
:102E60001A464000491C1729F3DD5100814202D265
:102E70004FF0FF3100E0002102EBC550F0BCFFF73E
:102E80009ABF10B541000CD0C0F3C751962908DC99
:102E90007E2909DC06DB410204D000F0004040F04E
:102EA0007E5010BD002010BDC1F19604C4F1200178
:102EB00000FA01F1E040FFF77EFFA04010BD10B521
:102EC000141E73F1000408DA401C41F1000192184D
:102ED0005B411A4301D120F0010010BD2DE9F04DF6
:102EE00092469B4611B1B1FA81F202E0B0FA80F24B
:102EF00020329046FFF737FB04460F4640EA0A00AF
:102F000041EA0B0153465A46084313D0114653EA8F
:102F1000010019D0C8F140025046FFF73CFF0546BA
:102F20000E46504659464246FFF71DFB084305D062
:102F3000012004E020463946BDE8F08D002005431D
:102F400046EAE0762C4337430A986305E40AA0EB8F
:102F500008000022FD0A44EA47540A3002D5002046
:102F60000146E9E7010510196941DDE90845001945
:102F70006941BDE8F04DA2E7C1F30A52C1F3130164
:102F800040F2FF3341F480119A4202DA00200146F8
:102F9000704740F233439A42A2F2334202DC52427B
:102FA000FFF7F9BEFFF7DFBA064C074D06E0E06811
:102FB00040F0010394E8070098471034AC42F6D380
:102FC000FDF7BAF8B0F60008D0F6000800BFFEE73B
:102FD000704710B5802000F00DF820B103F0A6FE78
:102FE000802000F001F810BD014908607047000022
:102FF00014040140014600200022074B1B6803EA2D
:103000000102054B14331B680B4013B10AB10120B8
:1030100000E0002070470000000401400021234927
:103020008279002A3AD00A46126803689A430B460E
:103030001A600A1D126803689A430B1D1A60027910
:1030400011440A6803681A430A60184A0832126871
:1030500003689A43154B08331A601A1D12680368F7
:103060009A43124B0C331A604279102A0ED11A1F60
:10307000126803681A430D4B08331A601A1D126850
:1030800003681A43094B0C331A600DE00749427973
:1030900011440A6803681A430A6005E00279114482
:1030A0000A6803689A430A60704700000004014000
:1030B0000EB50121812000F025FF00F0BAFE80202E
:1030C000ADF8080004208DF80B0002A90A4800F0B2
:1030D000C3F80721052000F09FF880200090002011
:1030E0008DF8040008208DF8050001208DF80600F9
:1030F0006846FFF793FF0EBD001C014051B18200EE
:10310000A2F1C042126842F001038200A2F1C04263
:10311000136009E08200A2F1C0421268034B1A401A
:103120008300A3F1C0431A6070470000FEFF0F0048
:10313000D0E901121143C268114302691143426987
:10314000114382691143C2691143026A1143426A01
:103150001143826A1143C26A1143026B1143026830
:103160009200A2F1C0421160816808290BD1016868
:103170008900A1F1C041096841F04002016889005D
:10318000A1F1C0410A60416B0968426B526841EA93
:103190000211426B926841EA0221426B928941EA34
:1031A0000241426B128A41EA0251426B127D41EAAE
:1031B0000261426B926911430268521C9200A2F1B3
:1031C000C0421160C16AB1F5804F1BD1816B0968A3
:1031D000826B526841EA0211826B926841EA0221D5
:1031E000826B128A41EA0251826B127D41EA0261CE
:1031F000826B9269114302689200A2F1C042C2F848
:10320000041107E06FF0704201688900A1F1C0412C
:10321000C1F804217047000030B500228B071C0F55
:103220000F2303FA04F20B4B8C1053F82430934312
:10323000084C8D1044F8253023468C1053F8243068
:103240008C07240F00FA04F42343024C8D1044F839
:10325000253030BD080001402DE9F041024600252F
:103260000026002000230024002791F803C00CF062
:103270000F0591F803C00CF0100CBCF1000F03D047
:1032800091F802C04CEA050591F800C0BCF1000FAE
:1032900031D0146800202BE04FF0010C0CFA00F341
:1032A000B1F800C00CEA03069E4220D183004FF023
:1032B0000F0C0CFA03F7BC4305FA03FC4CEA0404B8
:1032C00091F803C0BCF1280F06D14FF0010C0CFAA5
:1032D00000FCC2F814C00AE091F803C0BCF1480F2A
:1032E00005D14FF0010C0CFA00FCC2F810C0401CD4
:1032F0000828D1D31460B1F800C0BCF1FF0F34DD51
:10330000546800202EE000F1080C4FF0010808FA84
:103310000CF3B1F800C00CEA03069E4221D18300F1
:103320004FF00F0C0CFA03F7BC4305FA03FC4CEA10
:10333000040491F803C0BCF1280F05D100F1080C7A
:1033400008FA0CF8C2F8148091F803C0BCF1480FD9
:1033500007D100F1080C4FF0010808FA0CF8C2F888
:103360001080401C0828CED35460BDE8F08102468E
:10337000002093680B400BB1012000E00020704753
:103380004161704701617047014800887047000043
:103390007C00002000BFFEE710B5052000F0EEFE27
:1033A00000BF00BF00F056FF10BD000010B504467E
:1033B00024B140210448FFF7E3FF03E04021024825
:1033C000FFF7E0FF10BD0000002001402DE9F041B3
:1033D00006460F4614461D462B46224639463046C1
:1033E00000F030FA04FB05F00249098800F0C7F844
:1033F000BDE8F0815E00002001B502E00098401EAB
:10340000009000980028F9D108BD00002DE9F05F78
:10341000804689461646A6F120001FFA80FA1E490A
:10342000096889881C4A1268D28801FB02F0C1171A
:1034300000EB5171C1F3C7071748006800680AFB29
:10344000070B15480068C3881348006882884946FE
:10345000404600F0F7F92C2000F0A0FC002416E014
:10346000002510E01BF8040080212941084020B10C
:103470000A48008800F096FC03E00948008800F044
:1034800091FC681CC5B2082DECDB601CC4B2BC42C8
:10349000E6DBBDE8F09F0000580000205C00002043
:1034A0005E00002070B505460E46144624E028460E
:1034B000134909688988084412490988884205DD4A
:1034C00000250F480068C088304486B230460C4959
:1034D0000968C98808440C490988884201DD00252B
:1034E0000026227831462846FFF790FF641C0448E6
:1034F00000688088284485B220780028D7D170BD24
:1035000058000020500000205200002000B597B065
:103510003C2108A8FFF76FF81C2101A8FFF76BF802
:103520000121080200F0DEFC01200190042003903C
:1035300080060790002002900490059006900620D7
:1035400008900020099008200A9010200B9000207D
:103550000C900E900F9010904FF48050119000201E
:1035600012901390149001A81590169008A8FFF7D8
:10357000DFFD01210620FFF7C1FD17B000BD70B5CA
:1035800004460D4600262C2000F008FC00BF03E096
:10359000284600F007FC761CA642F9D370BD000057
:1035A00008B501214FF4B07000F0ACFC03208DF899
:1035B000020018208DF803004FF48040ADF80000A1
:1035C00069465B48FFF748FE4FF40040ADF8000045
:1035D00069465748FFF740FE0120ADF800006946F4
:1035E0005348FFF739FE0220ADF800006946504805
:1035F000FFF732FE8020ADF8000069464D48FFF726
:103600002BFE4FF48070ADF8000069464948FFF783
:1036100023FE4FF40070ADF8000069464548FFF7FF
:103620001BFE4FF48060ADF8000069464148FFF78B
:1036300013FE4FF40060ADF8000069463D48FFF707
:103640000BFE4FF48050ADF8000069463948FFF793
:1036500003FE4FF40050ADF8000069463548FFF70F
:10366000FBFD4FF48040ADF8000069463148FFF79C
:10367000F3FD4FF40040ADF8000069462D48FFF718
:10368000EBFD4FF48070ADF8000069462848FFF765
:10369000E3FD4FF40070ADF8000069462448FFF7E1
:1036A000DBFD4FF48060ADF8000069462048FFF76D
:1036B000D3FD03208DF8020018208DF803001020A0
:1036C000ADF8000069461A48FFF7C6FD2020ADF8A6
:1036D000000069461648FFF7BFFD4FF48050ADF873
:1036E000000069461448FFF7B7FD0420ADF800005C
:1036F00069461048FFF7B0FD10208DF80300032045
:103700008DF802004FF40060ADF8000069460A48E9
:10371000FFF7A2FD10208DF8030003208DF80200B2
:103720004020ADF8000069460348FFF795FD08BD4D
:1037300000140140001801400020014010B504466B
:10374000072C00DD10BD31480470204604EBD07119
:103750004910A4EB410139B9F0202D4908804FF4FC
:10376000A0702C49088006E04FF4A070284908801A
:10377000F02028490880362000F010FB26480088F9
:1037800049F24131884205D1082141EA441000F054
:1037900009FB0AE02048008848F25251884204D1CF
:1037A000002141EA441000F0FDFA2A2000F0F6FA68
:1037B000002000F0F7FA002000F0F4FA144909881C
:1037C000491EC1F3072000F0EDFA11490978491E9E
:1037D000C8B200F0E7FA2B2000F0E0FA002000F079
:1037E000E1FA002000F0DEFA0A490988491EC1F317
:1037F000072000F0D7FA07490978491EC8B200F03F
:10380000D1FA2C2000F0CAFA00BF9BE75400002038
:1038100050000020520000205600002010B5FFF795
:10382000BFFEFFF773FE0120FFF7C0FD00F0A0FA16
:1038300000F038F802480078FFF780FF10BD000064
:10384000540000202DE9F04104460D4616461F465F
:103850002A2000F0A3FA201200F0A4FAE0B200F04F
:10386000A1FAA119491EC1F30F2000F09BFAA1197A
:10387000491EC8B200F096FA2B2000F08FFA2812E9
:1038800000F090FAE8B200F08DFAE919491EC1F390
:103890000F2000F087FAE919491EC8B200F082FA39
:1038A000BDE8F08110B500F025FAFE490880084611
:1038B000008849F2413188427ED1CF2000F06EFA73
:1038C000002000F06FFA812000F06CFA302000F048
:1038D00069FAED2000F062FA642000F063FA032038
:1038E00000F060FA122000F05DFA812000F05AFA30
:1038F000E82000F053FA852000F054FA102000F080
:1039000051FA782000F04EFACB2000F047FA392027
:1039100000F048FA2C2000F045FA002000F042FAAE
:10392000342000F03FFA022000F03CFAF72000F0CB
:1039300035FA202000F036FAEA2000F02FFA0020B5
:1039400000F030FA002000F02DFAB12000F026FA45
:10395000002000F027FA1B2000F024FAB62000F027
:103960001DFA0A2000F01EFAA22000F01BFAC02067
:1039700000F014FA352000F015FAC12000F00EFA1C
:10398000112000F00FFAC52000F008FA452000F0E1
:1039900009FA452000F006FAC72000F0FFF9A2203E
:1039A00000F000FAF22000F0F9F9002000F0FAF936
:1039B000262000F0F3F900E096E0012000F0F2F993
:1039C000E02000F0EBF90F2000F0ECF9262000F0E9
:1039D000E9F9242000F0E6F90B2000F0E3F90E20CD
:1039E00000F0E0F9092000F0DDF9542000F0DAF9E8
:1039F000A82000F0D7F9462000F0D4F90C2000F000
:103A0000D1F9172000F0CEF9092000F0CBF90F20F2
:103A100000F0C8F9072000F0C5F9002000F0C2F955
:103A2000E12000F0BBF9002000F0BCF9192000F003
:103A3000B9F91B2000F0B6F9042000F0B3F910200A
:103A400000F0B0F9072000F0ADF92A2000F0AAF943
:103A5000472000F0A7F9392000F0A4F9032000F076
:103A6000A1F9062000F09EF9062000F09BF9302015
:103A700000F098F9382000F095F90F2000F092F945
:103A8000362000F08BF9C82000F08CF92A2000F0D5
:103A900085F9002000F086F9002000F083F900206D
:103AA00000F080F9EF2000F07DF92B2000F076F98E
:103AB000002000F077F9002000F074F9012000F0F8
:103AC00071F93F2000F06EF93A2000F067F95520B7
:103AD00000F068F9112000F061F97348FFF78CFCE1
:103AE000292000F05BF901E16E48008848F252514C
:103AF0008842F8D1CF2000F051F9002000F052F9AF
:103B0000C12000F04FF9302000F04CF9ED2000F01A
:103B100045F9642000F046F9032000F043F9122033
:103B200000F040F9812000F03DF9E82000F036F97E
:103B3000852000F037F9102000F034F9782000F0EB
:103B400031F9CB2000F02AF9392000F02BF92C2094
:103B500000F028F9002000F025F9342000F022F9C7
:103B6000022000F01FF9F72000F018F9202000F0E3
:103B700019F9EA2000F012F9002000F013F90020F2
:103B800000F010F9C02000F009F9212000F00AF936
:103B9000C12000F003F9112000F004F9C52000F065
:103BA000FDF82D2000F0FEF8332000F0FBF8362061
:103BB00000F0F4F8002000F0F5F83A2000F0EEF8FC
:103BC000552000F0EFF8B12000F0E8F8002000F0F8
:103BD000E9F8172000F0E6F8B62000F0DFF80A2038
:103BE00000F0E0F8A22000F0DDF8F62000F0D6F8B2
:103BF000012000F0D7F8302000F0D4F8F22000F0D7
:103C0000CDF8002000F0CEF8262000F0C7F8012003
:103C100000F0C8F8E02000F0C1F8D02000F0C2F8B1
:103C2000002000F0BFF8022000F0BCF8072000F0F0
:103C3000B9F80B2000F0B6F81A2000F0B3F83120E4
:103C400000F0B0F8542000F0ADF8402000F0AAF8E1
:103C5000292000F0A7F8122000F0A4F8122000F0AC
:103C6000A1F8122000F09EF8172000F09BF8E12048
:103C700000F094F8D02000F095F8002000F092F8C1
:103C8000022000F08FF8072000F08CF8052000F0EB
:103C900089F8252000F086F82D2000F083F84420D4
:103CA00004E0000056000020FCBF020000F07AF89B
:103CB000452000F077F81C2000F074F8182000F080
:103CC00071F8162000F06EF81C2000F06BF81D2033
:103CD00000F068F8112000F061F80548FFF78CFB50
:103CE000292000F05BF82C2000F058F810BD0000EF
:103CF000FCBF020010B50024042000F04FF800BF04
:103D00004FF0DA40008800BF4FF0DA40008800F042
:103D10002BF804464FF6FF7000EA042400F024F864
:103D2000044348F25250844201D1204610BDD320B2
:103D300000F034F800BF4FF0DA40008800BF4FF0C9
:103D4000DA40008800F010F804464FF6FF7000EAF1
:103D5000042400F009F8044349F24130844201D1BF
:103D60002046E3E70020E1E74FF0DA4000887047A3
:103D700010B54FF400610848FFF702FB40F6FF2042
:103D8000FFF73AFB4FF400610348FFF7FBFA40F6F8
:103D9000FF20FFF731FB10BD002001404FF0D8415C
:103DA000088070474FF0DA4108807047024A10805F
:103DB000024A1180704700005C0000205E00002075
:103DC00001490860704700005800002008B5012133
:103DD000082000F097F82020ADF8000010208DF8A2
:103DE000030003208DF8020069460F48FFF734FAFC
:103DF0000120ADF8000069460B48FFF72DFA0220BC
:103E0000ADF8000069460848FFF726FA2021064869
:103E1000FFF7B8FA01210448FFF7B4FA022102487B
:103E2000FFF7B0FA08BD0000000C014000BFFEE73C
:103E3000704708B54FF4C06000F048F817208DF8BF
:103E4000000000208DF801008DF8020001208DF89F
:103E50000300684600F002F808BD000070B50021BC
:103E600000230F22C47804B3154C246804F4E064E2
:103E7000C4F5E064210AC1F10403CA40447804FA9D
:103E800003F184781440214309010E4C0678A155B2
:103E9000047804F01F050124AC4005786D11AD00D5
:103EA00005F1E025C5F8004109E0047804F01F059C
:103EB0000124AC40044D0678761145F8264070BDCB
:103EC0000CED00E000E400E080E100E00249014385
:103ED000024A1160704700000000FA050CED00E096
:103EE0007047000029B1064A52690243044B5A61E7
:103EF00004E0034A52698243014B5A617047000053
:103F00000010024029B1064A92690243044B9A61AB
:103F100004E0034A92698243014B9A6170470000B2
:103F20000010024030B500210022002400232D4D56
:103F30006D6805F00C0121B1042905D0082923D1B1
:103F400005E0294D056022E0274D05601FE0254D65
:103F50006D6805F47012234D6D6805F480340225F8
:103F600005EB92421CB9214D554305600BE01D4DF8
:103F70006D6805F400351DB11C4D5543056002E028
:103F8000194D5543056002E0174D056000BF00BFA5
:103F9000144D6D6805F0F0010909154D6B5C05685D
:103FA000DD4045600F4D6D6805F4E061090A104D74
:103FB0006B5C4568DD4085600A4D6D6805F46051B5
:103FC000C90A0B4D6B5C4568DD40C560054D6D68E9
:103FD00005F44041890B074D6B5CC568B5FBF3F5F3
:103FE000056130BD0010024000127A0000093D005A
:103FF000140000202400002070472DE9F0470746F8
:104000008846144699464FF0000A0025FFF7BCF990
:10401000064600BF0025E2B24B464146384600F056
:10402000B3F805466DB166B15046411C01F0FF0A78
:10403000042802DD2846BDE8F087304605F0D2F8B6
:10404000E8E72846F7E72DE9F04707468846144693
:1040500099464FF0000A0025FFF796F9064600BF83
:104060000025E2B24B464146384600F0C6F8054608
:104070006DB166B15046411C01F0FF0A042802DD13
:104080002846BDE8F087304605F0ACF8E8E728465A
:10409000F7E710B500F002F810BD00000CB50020E5
:1040A000019000903348006840F480303149086046
:1040B00000BF3048006800F4003000900198401CB8
:1040C0000190009818B90198B0F5A06FF1D1294876
:1040D000006800F4003010B10120009001E00020E1
:1040E00000900098012843D12348006840F0100058
:1040F000214908600846006820F00300086008466F
:10410000006840F0020008601A4840681949486099
:104110000846406848600846406840F4806048604F
:104120000846406820F47C1048600846406840F427
:10413000E81048600846006840F08070086000BFE2
:104140000C48006800F000700028F9D00948406869
:1041500020F00300074948600846406840F002002C
:10416000486000BF0348406800F00C000828F9D1FF
:104170000CBD0000001002400020024001490880F0
:10418000704700007C0000202DE9F041074688467A
:1041900014461D4600F0E2F8002141EA4701C8B28A
:1041A00000F040F9064616B13046BDE8F0814046C1
:1041B00000F038F906460EB13046F6E700F0CEF8CA
:1041C000012101EB4701C8B200F02CF906460EB1FF
:1041D0003046EAE70BE0012C03D100F063F82870C9
:1041E00002E000F08DF828706D1C601EC4B2002C37
:1041F000F1D100F0E3F80020D7E72DE9F0470646BB
:104200000F4690469946002500F0A8F8002141EAA3
:104210004601C8B200F006F9054615B12846BDE8CA
:10422000F087384600F0FEF805460DB12846F6E75F
:10423000002409E019F8040000F0F4F805460DB177
:104240002846ECE7601CC4B24445F3DB00F0B6F846
:104250000020E4E708B501210820FFF753FEC02045
:10426000ADF8000002208DF8020014208DF8030044
:1042700069460748FEF7F0FF40210548FFF782F83E
:1042800080210348FFF77EF8024800F005F808BDDA
:10429000000C0140A086010000BF411E081EFCD199
:1042A0007047000070B580211448FFF76BF840217B
:1042B0001248FFF765F80024002518E040210F4858
:1042C000FFF760F80A20FFF7E7FF6006040E802181
:1042D0000A48FFF74CF808B144F0010440210748B0
:1042E000FFF74EF80A20FFF7D7FF681CC5B2082D6C
:1042F000E4DB00F0C7F8204670BD0000000C014070
:1043000070B580211448FFF73DF840211248FFF7AF
:1043100037F80024002518E040210F48FFF732F855
:104320000A20FFF7B9FF6006040E80210A48FFF754
:104330001EF808B144F0010440210748FFF720F8B7
:104340000A20FFF7A9FF681CC5B2082DE4DB00F0C6
:104350004FF8204670BD0000000C014010B58021D0
:104360001548FFF70FF80A20FFF796FF4021124883
:10437000FFF708F80A20FFF78FFF80210E48FEF7AD
:10438000F6FF08B9012010BD80210B48FEF7F8FFA9
:104390000A20FFF781FF40210748FEF7F1FF0A20BE
:1043A000FFF77AFF80210448FEF7E1FF08B1022001
:1043B000E9E70020E7E70000000C014010B580218C
:1043C0000A48FEF7DDFF0A20FFF766FF4021074895
:1043D000FEF7D8FF0A20FFF75FFF80210348FEF7B2
:1043E000D1FF0A20FFF758FF10BD0000000C01406C
:1043F00010B580210A48FEF7C3FF0A20FFF74CFFE3
:1044000040210748FEF7BEFF0A20FFF745FF402185
:104410000348FEF7B5FF0A20FFF73EFF10BD00007E
:10442000000C014070B5044640211548FEF7A8FF76
:10443000002520E004F0800020B180211048FEF724
:10444000A1FF03E080210E48FEF79AFF6006040EEC
:104450000A20FFF721FF40210948FEF793FF0A20B9
:10446000FFF71AFF40210648FEF78AFF0A20FFF7F0
:1044700013FF681CC5B2082DDCDB00F01DF870BD11
:10448000000C014010B580210A48FEF77BFF0A208E
:10449000FFF702FF40210748FEF774FF0A20FFF7ED
:1044A000FBFE40210348FEF76BFF0A20FFF7F4FEF6
:1044B00010BD0000000C014010B5002480211148FF
:1044C000FEF760FF0A20FFF7E7FE40210D48FEF7E8
:1044D00059FF0A20FFF7E0FE07E0601CC4B2FA2C87
:1044E00003DDFFF76BFF022010BD80210548FEF7BA
:1044F0003EFF0028F1D140210248FEF741FF002095
:10450000F2E70000000C014010B500F08BF800F05D
:1045100081F800240CE0084850F8240030B1064827
:1045200050F82400401E044941F82400601CC4B225
:10453000022CF0DB10BD00004000002030B51A480E
:1045400000684FF47A72B0FBF2F1B1F1807F01D3D1
:1045500001201DE021F07F40401E4FF0E02250611D
:1045600050170F22002807DA13071D0E0F4B00F01B
:104570000F04241F1D5503E013071C0E0C4B1C5485
:1045800000BF00204FF0E022906107201061002062
:1045900008B100BFFEE74FF0E020006920F0010005
:1045A0004FF0E021086130BD0000002018ED00E070
:1045B00000E400E010B51348006840F00100114924
:1045C000086008464068104908400E49486008469F
:1045D00000680E4908400B4908600846006820F44E
:1045E000802008600846406820F4FE0048604FF4D0
:1045F0001F008860FFF74DFD4FF000600449086020
:1046000010BD0000001002400000FFF8FFFFF6FEA2
:1046100008ED00E002480068401C0149086070474E
:10462000480000200448006820B103480068401E8C
:1046300001490860704700004C00002001F400723E
:10464000B2F5007F00D100BFCA430280704721B19C
:10465000828942F40052828104E082894DF6FF7320
:104660001A4082817047000000B585B00121042006
:10467000FFF748FC01218803FFF744FC4FF400706A
:10468000ADF8100018208DF8130003208DF81200EB
:1046900004A91348FEF7E0FD4FF48060ADF8100068
:1046A00004208DF8130004A90D48FEF7D5FD4FF442
:1046B000E13000900020ADF80400ADF80600ADF840
:1046C0000800ADF80C000C20ADF80A00694605485A
:1046D00000F018F801210348FFF7B9FF05B000BD4D
:1046E000000801400038014002460020B1F5007F7B
:1046F00000D100BF13880B400BB1012000E0002067
:10470000704700002DE9F04786B005460E460024AC
:10471000A24600BFA1460027B08900B100BF2F46C6
:104720002C8A4CF6FF700440F08804432C82AC893C
:104730004EF6F3100440B08831890843718908436C
:104740000443AC81AC8A4FF6FF400440B089044377
:10475000AC8201A8FFF7E6FB1F48874202D1DDF8D3
:1047600010A001E0DDF80CA0A88900F4004040B1E1
:104770000AEBCA0000EB0A1031684900B0FBF1F8FF
:1047800007E00AEBCA0000EB0A1031688900B0FBB1
:10479000F1F86420B8FBF0F004012009642101FB6A
:1047A0001089A88900F4004040B1322000EBC90014
:1047B000B0FBF1F000F00700044308E0322000EB0A
:1047C00009106421B0FBF1F000F00F0004432C81CC
:1047D00006B0BDE8F0870000003801400146888837
:1047E000C0F308007047C1F308028280704700BF21
:1047F000FEE70FB42DE9F043C7B006468946092EFF
:104800000ED2DFE806F005060708090A0B0D0C00BA
:1048100000BF00BF00BF00BF00BF00BF00BF05E07A
:10482000002047B0BDE8F0035DF814FB00BF51A8BD
:10483000469006A8469A509900F064F80446002C69
:1048400003DC002046902046EBE718216846FDF780
:10485000D2FE24208DF8000001208DF80100F0B276
:104860008DF802000D208DF815000A208DF8160035
:1048700000251CE0601B122801DA601B00E01220FA
:1048800000F0FF0812210DF10300FDF7B4FE06A8A9
:10489000411942461538FDF787FE002704E01DF850
:1048A000070001F097FF7F1C172FF8DB1235A54298
:1048B000E0DB0020469000BFB3E700000FB4054BDB
:1048C00010B503A9044A029800F0F6F910BC5DF88F
:1048D00014FB0000B1670008B00000200FB4084BC3
:1048E00010B504A902AA039800F0E6F9044602A94B
:1048F000002000F078FD204610BC5DF814FB00009D
:10490000E753000837B514460846064B6A46214669
:1049100000F0D2F904466946002000F064FD20460C
:104920003EBD0000E75300084100080218BF042004
:104930000A0E18BF40F001004FF07F4232EA010139
:1049400008BF40F00200012808BF05207047012180
:10495000FDF731BFFDF767BE00210846FDF7EDBE4C
:104960006FF05E010807FDF726BF00002DE9F04D4E
:104970000D4614464FF07F41B1EB440F9EBF4FF000
:10498000FF312960BDE8F08D4FF0004040EA04217E
:10499000C4F3C750783810F01F024A4B4FEA601C2E
:1049A000C2F120067B44C4F3C750A0F178004FEA5F
:1049B000601003EB800053F82C3008BFD0E901C62B
:1049C00012D0D0F804C093402CFA06F73B43876816
:1049D0000CFA02FC27FA06F8C06807FA02F2F04067
:1049E0004CEA080C42EA0006A3FB0132ACFB01C012
:1049F000A6FB016101EB0C068E4234BF4FF0010CA7
:104A00004FF0000CC1186144BCF1000F02D081428C
:104A100002D903E0814201D2012000E000201044CD
:104A200000F120024FEA92188006CA0C40EA423098
:104A30004F03C5F80080FEF769F882463846FEF756
:104A40006EF86FF01201FDF7B6FE07463046FEF72E
:104A500066F86FF02501FDF7AEFE834639465046F5
:104A6000FDF7E1FD5946FDF7DEFD00F500666FF349
:104A70000B0651463046FDF728FE3946FDF725FE68
:104A80005946FDF725FE1049FDF725FE07460F495B
:104A90003046FDF720FE3946FDF7C5FD07460C49B7
:104AA0003046FDF718FE3946FDF7BDFD14F0004F06
:104AB00008BFBDE8F08DC8F1805180F0004029604A
:104AC000BDE8F08D98AC0000DB0FC92F22AAFD29AC
:104AD0000000C92FFEB507460C4615461E46234664
:104AE00003A2002106208DE8E000FFF782FEFEBD54
:104AF00025737C25737C25642072657475726E69DC
:104B00006E672025640A000002E008C8121F08C171
:104B1000002AFAD170477047002001E001C1121F3E
:104B2000002AFBD17047000001490860704700006F
:104B3000B40000202DE9FF5F82B00021DDE90430E0
:104B4000020DDDF840B0034318D044F61050A2F235
:104B5000FF3242431514119801281FD0A5EB0B001A
:104B6000401C5FEA000A4FF000064E4FDFF8389114
:104B7000B046504615D5CAF1000413E0119801243F
:104B80004AA3012801D16FEA0B010298119AC0E9EA
:104B90000031C0E9024206B0BDE8F09FCBF1000051
:104BA000DFE704460021404A491842EB0450CDE9B2
:104BB000001012E0E00707D032463B464046494627
:104BC000FDF7ACFE8046894632463B461046194604
:104BD000FDF7A4FE06460F466410002CEAD1DDE97D
:104BE0000401DDE90023BAF1000F06DAFDF796FEB5
:104BF00042464B46FDF792FE05E0FDF701FF4246B7
:104C00004B46FDF7FDFE04460E460022284BFEF7FC
:104C100033F803D84FF0FF30014607E00022254B60
:104C200020463146FDF7D3FDFEF7A6F9102409E032
:104C3000002C0ADB0A220023FEF77CF8039B3032AB
:104C40001A55641E50EA0102F2D1641C039AC4F1A1
:104C500011031444119A012A03D0012208430DD1F3
:104C60000AE0084304D000204FF0110B119072E7C6
:104C7000A3EB0B056D1E0DE05B4504DD4FF000025C
:104C800005F1010504E003DA4FF00002A5F101058A
:104C9000002AECD002981199C0E90231C0E9004520
:104CA00079E70000000014400000F03F30000000F1
:104CB0000000F0430000E03F2DE9FF4F95B09B4618
:104CC0008946064600250FE2252877D1002427468D
:104CD000F84A0121059400E0044316F8013F203B07
:104CE00001FA03F01042F7D130782A2811D06FF082
:104CF0002F033078A0F13002092A16D8059A44F023
:104D0000020402EB820203EB42021044761C05907F
:104D1000EFE759F8042B0592002A03DA504244F4D5
:104D20000054059044F00204761C30782E2816D1E9
:104D300016F8010F44F004042A280DD06FF02F025A
:104D40003078A0F13003092B09D807EB870302EB79
:104D50004303C718761CF3E759F8047B761C3078B8
:104D60006C280FD006DC4C2817D068280DD06A2894
:104D700014D104E0742810D07A280FD10DE044F447
:104D800000140AE044F4801401E044F44014727802
:104D9000824202D104F58014761C761C3078662895
:104DA0000BD013DC582877D009DC002875D04528B3
:104DB000F6D04628F4D047281AD19DE118E06328A0
:104DC00035D0642879D0652812D195E1702873D048
:104DD00008DC6728F1D069286FD06E280DD06F28C5
:104DE00006D1B5E073282CD0752875D0782874D0FA
:104DF0005A46179990476D1C75E1C4F3025002287A
:104E000009D003280DD0D9F8001004280DD00D606A
:104E100009F1040967E1D9F80010EA17C1E9005265
:104E2000F6E7D9F800100D80F2E70D70F0E719F8F9
:104E3000041B8DF8001000208DF80100EA460120C7
:104E400003E059F804AB4FF0FF3061074FF0000169
:104E500002D40DE008F101018846B9420FDA80451D
:104E6000F8DB1AF808100029F4D108E008F1010174
:104E700088468142FADB1AF808100029F6D1059815
:104E80005B46A0EB080721463846179A00F094FAD3
:104E9000284400EB080507E04DE029E10DE01AF891
:104EA000010B5A4617999047B8F10108F7D25B46B3
:104EB00021463846179A13E142E00A220092C4F3D1
:104EC00002524FF0000A022A08D059F804CB032AF4
:104ED0004FEAEC710AD00DE029E02AE009F1070160
:104EE00021F00702F2E802C1914609E00FFA8CFCBA
:104EF0004FEAEC71042A03D14FFA8CFC4FEAEC71B3
:104F0000002907DA0A460021DCF1000C61EB0201FE
:104F10002D2202E0220504D52B228DF80420012247
:104F200003E0E20701D02022F7E7904659E00A218A
:104F300002E010220DE010214FF0000A00910BE07A
:104F400010224FF0000A44F004040827009203E006
:104F500008224FF0000A0092C4F30252022A05D040
:104F600059F804CB0021032A08D009E009F1070110
:104F700021F00702F2E802C1914605E01FFA8CFC1D
:104F8000042A01D10CF0FF0C4FF00008220728D5AD
:104F9000702806D0009B83F0100353EA0A0305D063
:104FA0000EE040228DF80420012208E05CEA0102B4
:104FB00006D030228DF804208DF80500022290469C
:104FC000009B83F0080353EA0A030AD15CEA01025A
:104FD00001D1620705D530228DF804204FF0010879
:104FE0007F1E582804D034A003900EA802900DE034
:104FF00036A0F9E753466046009AFDF79BFE8446CB
:105000000398825C0298401E029002705CEA0100E4
:10501000F0D1029806A9081A00F1200A600702D50B
:1050200024F4803400E00127574502DDA7EB0A0095
:1050300000E0002000EB0A01009005984144401A6E
:105040000590E00306D45B462146179A059800F0C8
:10505000B3F90544002706E001A85A46C05D179938
:1050600090476D1C7F1C4745F6DBE0030CD55B4683
:105070002146179A059800F09FF9054404E0302076
:105080005A46179990476D1C0099481E00900029B8
:10509000F5DC08E0029802995A460078491C029112
:1050A000179990476D1CBAF10001AAF1010AF1DCD1
:1050B00065E10000092801003031323334353637DC
:1050C0003839616263646566000000003031323354
:1050D00034353637383941424344454600000000F4
:1050E00000F058F90544761C307800287FF4ECADC8
:1050F00019B02846BDE8F08F620700D4062709F1F1
:10510000070222F0070CFCE80223E14603F0004806
:105110005FEA080C02D00FF2702C0DE05FEA045C2D
:1051200002D50FF2682C07E05FEAC47C02D00FF2D0
:10513000602C01E0AFF2700C4FF0FF3823F0004319
:10514000CDF850C065280CD006DC452809D046288B
:105150001DD047283DD13DE0662818D067287ED174
:1051600038E00021112F01DB112000E0781CCDE98F
:10517000000106A90EA8FFF7DDFCDDE90F010E9A7C
:1051800003910021009207F1010A04914DE04FF0D4
:1051900000400097CDE9011006A90EA8FFF7CAFC50
:1051A000DDE90F0203920E9B11990022DDF80CA09D
:1051B0000093049211B9791C00EB010AB7EB0A00C5
:1051C00004D4C0F1FF3007F1010A0490AAEB0700F4
:1051D000019044E0012F00DA01270021112F01DDA9
:1051E000112000E03846CDE9000106A90EA8FFF71E
:1051F000A1FCDDE90F010E9A0391002104910092B8
:10520000BA4621070CD40399514500DA8A46BAF10F
:10521000010F05DD009AAAF10101515C302908D087
:10522000B84202DA10F1040F06DA0121CDE90110CB
:1052300015E0AAF10101E9E7002805DC0499014421
:105240000491AAEB000102E0411C514500DD8A46B1
:105250000499401A401C01904FF000400290200732
:1052600004D40198504501DBCDF8048000208DF86E
:105270004F0002980DF14F07B0F1004F25D02B20C1
:105280000E9002984FF0020800280CDA404202907B
:105290002D200E9007E00A210298FDF735FD3031F0
:1052A000029007F8011DB8F10001A8F10108F2DC35
:1052B00002980028EFD1791E0E980870307800F01F
:1052C000200040F0450007F8020D12A8C01B00F1B5
:1052D00007081498007800B1012000EB0A0101983A
:1052E00001EBE07105984144401A401E0590E0032F
:1052F00006D45B462146179A059800F05DF80544F0
:105300001498007818B15A46179990476D1CE0031D
:1053100024D55B462146179A059800F04DF80544C0
:105320001CE00498002807DBDDE90301884203DD67
:105330000098405C179901E0179930205A46904731
:10534000049805F10105401C04900198401E01904D
:1053500004D12E205A46179990476D1CBAF10001CE
:10536000AAF1010ADDDC05E017F8010B5A4617998E
:1053700090476D1CB8F10001A8F10108F4DC5B4610
:105380002146179A0598ABE62D0000002B0000007F
:10539000200000002DE9F041044600251E46174676
:1053A000880404D405E039462020B0476D1C641EF3
:1053B000F9D52846BDE8F0812DE9F04104460025E5
:1053C0001E469046C80301D5302700E020278804F8
:1053D00004D505E041463846B0476D1C641EF9D53A
:1053E0002846BDE8F0810A68531C0B6010707047B6
:1053F0002DE9F04F85B006468946002502A801F048
:10540000FBF900244BE056F8240059F82410471A01
:10541000002F01DB394600E079420846FDF776FBB4
:1054200080464FF08F41FDF788F9824602A951F876
:1054300024000021FDF754FC21D002A850F82410CC
:105440005046FDF77AF907464FF07E51FDF73DF9DA
:1054500083461649486AFDF7FBFB074688465846CF
:10546000FDF7F6FB21F000413A464346CDE9000145
:10547000FDF702FC12D20120A04005430EE00B48CC
:10548000C1695046FDF72CFC05D30848016A504617
:10549000FDF730FC02D20120A0400543641C032C20
:1054A000B1DB284605B0BDE8F08F0000F0E9000848
:1054B0002DE9F04104464FF01A4000EB4400B0F1F2
:1054C000C85F204655D84FF0FC41B1EB440F1CD2C9
:1054D00024F000404FF07E51FDF7FAF84FF0FF3115
:1054E000FDF769F9054605F04FFC14F0004F1DBFAC
:1054F0002C4F2D4E80F00040002708BF3E464FF055
:105500004041FDF7E8F8044605E0284F284E0146E3
:10551000FDF7E1F8054627492846FDF7DCF826495E
:10552000FDF781F82946FDF7D6F82449FDF77BF809
:105530002946FDF7D0F82249FDF775F82946FDF711
:10554000CAF82049FDF76FF8804629462046FDF746
:10555000C2F84146FDF7BFF8054631462046FDF743
:10556000B7F82946FDF7B1F83946BDE8F041FDF737
:105570005AB84FF0CC41B1EB440F84BF1248BDE89C
:10558000F0814FF07F41B1EB440F03D2BDE8F04111
:10559000FFF7DDB90120FFF7C7FABDE8F041FFF7DB
:1055A000DBB900000000494022AA7D3A0000C93F53
:1055B00022AAFD3924FE1C3DC78AD83C1E67383D0F
:1055C0001B93993DAFAA2A3EDB0FC93F10B5044695
:1055D00000BF00BF34B1012C0AD0022C0ED0032C26
:1055E00018D111E00DA200210420FFF702F912E00A
:1055F0000DA200210420FFF7FCF80CE00DA2002111
:105600000420FFF7F6F806E00FA200210420FFF7C0
:10561000F0F800E010BD00BF00BFFBE7506F7274F0
:10562000726169740A0000004C616E64736361709A
:10563000650A00005265766572736520506F72745A
:10564000726169740A0000005265766572736520A4
:105650004C616E6473636170650A00002DE9F04768
:105660004FF0684202EB40030C460546B3F1654F2C
:105670003CBF02EB4102B2F1654F7CD2C0F3C7538D
:10568000C1F3C7529A1A1B2A06DD10F0004F14BF4F
:1056900076487748BDE8F08712F11A0F17DA11F053
:1056A000004F06D010F0004F0CBF72487248BDE8A2
:1056B000F08721462846FDF740F80446FFF734F905
:1056C000042808BFFFF74CF92046BDE8F0874200E8
:1056D000B2EB410F25D910F0004F19BF674F684E4C
:1056E000684F694E224685F0004415460A4680F010
:1056F000004110460A1A5200B2F1807F40D2484061
:105700006249DFF88CA110F0004F18D04FF03F48ED
:105710003846FCF7DAFF074651463046FCF7D5FF1E
:1057200017E011F0004F04BF00263746E2D010F01A
:10573000004F19BF574F584E584F594EDAE74FF0A8
:105740007C583846FCF76FFF074651463046FCF759
:105750006AFF064641462846FCF7BDFF2146FCF796
:1057600062FF824621464046FCF7B5FF2946FCF71A
:10577000AFFF514600E037E0FCF7DFFF044604E0EE
:1057800021462846FCF7D9FF04460146FCF7A3FF53
:1057900080464449FCF79FFF4349FCF744FF4146DC
:1057A000FCF799FF4149FCF73EFF4146FCF793FFA8
:1057B0003F49FCF738FF4146FCF78DFF3D49FCF7B8
:1057C00032FF054641462046FCF785FF2946FCF797
:1057D00082FF3146FCF727FF2146FCF724FF3946BC
:1057E000BDE8F047FCF71FBF4FF07F42B2EB400F20
:1057F00028BFB2EB410F03D2BDE8F047FFF7AAB8CC
:1058000040EA01035B0008BF44F0FF410AD0B2EB5D
:10581000400F08BFB2EB410F06D125F0804024F0C5
:10582000804105460C4629E7B2EB400F12BF5FEA04
:10583000410245F0FF4004F000413FF41FAF4A0031
:1058400092EA40033FF51AAF002AACBF4FF09F46E3
:105850004FF03E563146FCF73EFF054631462046A6
:10586000FCF739FF04462846214607E7DB0FC9BF8E
:10587000DB0FC93FDB0F4940DB0F49C00000C9BF48
:1058800022AAFDB90000C93F22AAFD390060ED3E01
:10589000C30ACE37000049C022AA7DBA00004940A1
:1058A00022AA7D3A2DAD65BD8FB8D53D0FB511BE8D
:1058B00061C84C3EA8AAAABE2DE9F8430446024698
:1058C0004F486946B0EB420F09D94FF0E640B0EBC4
:1058D000420F94BF00204FF0FF30009030E0494B62
:1058E00022F00040834271D947492046FCF7F3FE7D
:1058F000FDF7C7FA8046FDF73EF900F0030000907F
:1059000042494046FCF7E7FE054641494046FCF760
:10591000E2FE06463F494046FCF7DDFE07463E49AB
:105920004046FCF7D8FE2146FCF7D2FE3946FCF78C
:10593000CCFE3146FCF7C9FE2946FCF7C6FE0446FC
:105940002546009C002C45DB294614F0010F084633
:105950001CD0FCF7C0FE06463049FCF7BCFE3049BF
:10596000FCF7B6FE3146FCF7B6FE2E49FCF75BFEAF
:105970003146FCF7B0FE2946FCF7ADFE2946FCF7A0
:1059800052FE14F0020F1CD0BDE8F883FCF7A3FE12
:1059900005462549FCF79FFE2449FCF744FE2946AD
:1059A000FCF799FE2249FCF73EFE2946FCF793FEE0
:1059B0004FF07E51FCF737FE14F0020F08BFBDE830
:1059C000F88380F00040BDE8F883FFE71046FEF75B
:1059D000CDFFB4E76800B0F17F4F3CBF4FF07E5081
:1059E000BDE8F88307D14FF00100FFF79DF8BDE84F
:1059F000F843FEF7B1BF2846BDE8F843FEF7A7BF5E
:105A0000B61F927E490E494683F9223F1A61342C13
:105A10000020A23300A0FD390000C93F336D4C398E
:105A2000DA82083CA0AA2ABEB93AB2BACA9F2A3D75
:105A3000DDFFFFBE2DE9F0410446E07800F0C0062E
:105A4000E07800F03F05607800F0010098B1EF10B9
:105A50002846E91705EB5171C910A5EBC101491C96
:105A600001F0FF080B48006820B10A48414602686F
:105A70003846904700BF607800F0080030B1054814
:105A8000406818B1B011034A516888470020BDE84A
:105A9000F0810000DC00002038B5044664B120200D
:105AA0008DF8000028208DF8010030208DF80200CC
:105AB00038208DF8030004E0A32204216846FCF797
:105AC00093FD6A46042140F69E2004F0DBFC04F0BE
:105AD000C3F838BD3EB5044602208DF80000CA2048
