:020000040800F2
:100000007804002045010008B5130008B713000864
:10001000BB130008BF130008C31300080000000052
:10002000000000000000000000000000C7130008EE
:10003000C913000800000000CB130008CD1300080E
:100040005F0100085F0100085F0100085F01000810
:100050005F0100085F0100085F0100085F01000800
:100060005F0100085F0100085F0100085F010008F0
:100070005F0100085F0100085F0100085F010008E0
:100080005F0100085F0100085F0100085F010008D0
:100090005F0100085F0100085F0100085F010008C0
:1000A0005F0100085F0100085F0100085F010008B0
:1000B0005F0100085F0100085F0100085F010008A0
:1000C0005F0100085F0100085F0100085F01000890
:1000D0005F0100085F0100085F0100085F01000880
:1000E0005F0100085F0100085F0100085F01000870
:1000F0005F0100085F0100085F0100085F01000860
:100100005F0100085F0100085F0100085F0100084F
:100110005F0100085F0100085F0100085F0100083F
:100120005F0100085F0100085F0100085F0100082F
:10013000DFF80CD001F0E6FC0048004793110008FE
:10014000780400200648804706480047FEE7FEE79F
:10015000FEE7FEE7FEE7FEE7FEE7FEE7FEE7FEE777
:1001600047020008310100080CB500200190009002
:100170006C48006840F480306A49086000BF6948F4
:10018000006800F4003000900198401C0190009835
:1001900018B90198B0F5A06FF1D16248006800F479
:1001A000003010B10120009001E000200090009884
:1001B000012843D15C48006840F010005A490860AB
:1001C0000846006820F0030008600846006840F018
:1001D0000200086053484068524948600846406839
:1001E00048600846406840F48060486008464068BF
:1001F00020F47C1048600846406840F4E8104860ED
:100200000846006840F08070086000BF45480068FC
:1002100000F000700028F9D04248406820F0030048
:10022000404948600846406840F00200486000BF0E
:100230003C48406800F00C000828F9D10CBD10B50E
:10024000FFF792FF10BD10B53648006840F001007E
:1002500034490860084640683449084031494860DC
:1002600008460068324908402E4908600846006880
:1002700020F4802008600846406820F4FE004860B2
:100280004FF41F008860FFF7DAFF4FF00060294944
:10029000086010BD10B5002100200022214B5B68D2
:1002A00003F00C0121B1042906D0082928D107E068
:1002B000214B224C236027E01F4B204C236023E07E
:1002C000184B5B6803F47010164B5B6803F48032C4
:1002D000022303EB904022B9194B4343174C236090
:1002E0000DE0104B5B6803F4003323B1144B434320
:1002F000124C236003E0104B4343104C236003E097
:100300000D4B0E4C236000BF00BF064B5B68C3F370
:1003100003130C4CE15C094B1B68CB40074C23607A
:1003200010BD000000100240002002400000FFF855
:10033000FFFFF6FE08ED00E000127A00000000204A
:1003400000093D000400002010B50446CC4884425A
:1003500008D10121042000F02DFB0021042000F031
:1003600029FB46E0C748844208D10121082000F05B
:1003700021FB0021082000F01DFB3AE0C248844226
:1003800008D10121102000F015FB0021102000F001
:1003900011FB2EE0BD48844208D10121202000F04D
:1003A00009FB0021202000F005FB22E0B848844230
:1003B00008D10121402000F0FDFA0021402000F08A
:1003C000F9FA16E0B348844208D10121802000F0F8
:1003D000F1FA0021802000F0EDFA0AE0AE488442F4
:1003E00007D10121801500F0E5FA0021A01500F0E9
:1003F000E1FA10BD10B50121084600F0DBFA00213A
:10040000012000F0D7FA10BD2DE9F0410246002589
:100410000026002000230024002791F803C00CF0E0
:100420000F0591F803C00CF0100CBCF1000F03D0C5
:1004300091F802C04CEA050591F800C0BCF1000F2C
:1004400031D0146800202BE04FF0010C0CFA00F3BF
:10045000B1F800C00CEA03069E4220D183004FF0A1
:100460000F0C0CFA03F7BC4305FA03FC4CEA040436
:1004700091F803C0BCF1280F06D14FF0010C0CFA23
:1004800000FCC2F814C00AE091F803C0BCF1480FA8
:1004900005D14FF0010C0CFA00FCC2F810C0401C52
:1004A0000828D1D31460B1F800C0BCF1FF0F34DDCF
:1004B000546800202EE000F1080C4FF0010808FA03
:1004C0000CF3B1F800C00CEA03069E4221D1830070
:1004D0004FF00F0C0CFA03F7BC4305FA03FC4CEA8F
:1004E000040491F803C0BCF1280F05D100F1080CF9
:1004F00008FA0CF8C2F8148091F803C0BCF1480F58
:1005000007D100F1080C4FF0010808FA0CF8C2F806
:100510001080401C0828CED35460BDE8F0814FF60F
:10052000FF710180022181700421C1707047024671
:10053000002093680B400BB1012000E000207047C1
:100540000146886880B2704702460020D3680B409D
:100550000BB1012000E0002070470146C86880B25E
:10056000704701617047416170470AB1016100E065
:1005700041617047C16070474FF480320A43826125
:100580008161826182698269704702460020434B23
:1005900018684FF68073184040EA021008433F4B3A
:1005A000186070473E49C8617047F0B50A4600239D
:1005B00000240021002500F00046B6F1004F02D1D2
:1005C000364EF16901E0354E7168C0F3034583B2E0
:1005D00000F44016B6F5401F08D121F070612F4E8F
:1005E000766826F070662D4F7E6012E000F480166B
:1005F000B6F5801F06D1032606FA05F4A14341F0A3
:10060000706106E0460D360103FA06F6B14341F08B
:10061000706122B1460D360103FA06F6314300F04F
:100620000046B6F1004F02D11C4EF16101E01B4EB5
:100630007160F0BD30B500228B071C0F0F2303FA49
:1006400004F2164B08338C1053F824309343134CA8
:1006500008348D1044F8253023468C1053F824308C
:100660008C07240F00FA04F423430C4C08348D103B
:1006700044F8253030BD0A49DC310860704700007D
:1006800000080140000C014000100140001401402E
:1006900000180140001C0140002001400000014002
:1006A00000002042DF48006840F00100DD4908609A
:1006B00008464068DC490840DA4948600846006856
:1006C000DA490840D74908600846006820F48020CD
:1006D00008600846406820F4FE0048604FF41F00A0
:1006E00088607047CF49096821F48031CD4A116094
:1006F0001146096821F480211160B0F5803F03D0D4
:10070000B0F5802F0ED106E0C649096841F480316A
:10071000C44A116007E0C349096841F4A021C14AF5
:10072000116000E000BF00BF704710B50146002215
:10073000002300204A11012A02D1BA4C236806E0A6
:10074000022A02D1B74C236A01E0B64C636A01F079
:100750001F02012494401C400CB1012000E0002045
:1007600010BD38B5002000900024002500BF3120C6
:10077000FFF7DBFF05460098401C00900098B0F59D
:10078000A06F01D0002DF2D03120FFF7CEFF08B1CD
:10079000012400E00024204638BD01460020A14A83
:1007A000106820F0F80040EAC10010607047A049CE
:1007B00008607047024600209A4B586820F47C106D
:1007C00042EA01031843974B5860704798490866FE
:1007D000704701460020934A506820F00300084308
:1007E000506070478F48406800F00C007047014629
:1007F00000208C4A506820F0F00008435060704799
:1008000001460020874A506820F4E06008435060A9
:10081000704701460020834A506820F4605040EA47
:10082000C1005060704729B17E4A527A02437D4B25
:100830005A7204E07B4A527A82437A4B5A7270476A
:100840007B49D8310860704701460020754A5068DE
:1008500020F440400843506070470021714A203224
:100860001170704A82F82010012802D004280AD1A1
:1008700004E001216B4A2032117005E00521694A2C
:100880002032117000E000BF00BF70476949086066
:1008900070476449096A0143624A116270476549B9
:1008A00044390860704730B500210022002400233D
:1008B0005C4D6D6805F00C0121B1042905D00829B3
:1008C00023D105E05C4D056022E05B4D05601FE033
:1008D000544D6D6805F47012524D6D6805F4803406
:1008E000022505EB92421CB9544D554305600BE0BF
:1008F0004C4D6D6805F400351DB1504D55430560F4
:1009000002E04D4D5543056002E04B4D056000BFD0
:1009100000BF444D6D6805F0F0010909484D6B5C5E
:100920000568DD4045603F4D6D6805F4E061090AEA
:10093000434D6B5C4568DD4085603A4D6D6805F45C
:100940006051C90A3E4D6B5C4568DD40C560354D60
:100950006D6805F44041890B3A4D6B5CC568B5FB89
:10096000F3F5056130BD29B12E4A526902432D4B82
:100970005A6104E02B4A526982432A4B5A617047FC
:1009800029B1284A92690243264B9A6104E0254A1C
:1009900092698243234B9A61704729B1214AD269F7
:1009A0000243204BDA6104E01E4AD26982431D4BA8
:1009B000DA61704729B11B4AD2680243194BDA60E9
:1009C00004E0184AD2688243164BDA60704729B1B6
:1009D000144A12690243134B1A6104E0114A126966
:1009E0008243104B1A6170471249403908607047C2
:1009F0000F49C86470470B49C87170470948406A7D
:100A000040F0807007494862704701460020054A5F
:100A100092680A400AB1012000E0002070470149B5
:100A200088727047001002400000FFF8FFFFF6FEDA
:100A3000000042428004424200127A0000093D0058
:100A4000140000202400002010B50446BE48844253
:100A500008D101218014FFF7ADFF0021A014FFF79A
:100A6000A9FF16E0B948844208D101210014FFF71C
:100A7000AEFF00212014FFF7AAFF0AE0B448844229
:100A800007D10121C013FFF7A2FF0021E013FFF7F8
:100A90009EFF10BD10B50022028802F441520B885F
:100AA0004C8823438C882343CC8823430C892343DD
:100AB0004C8923438C892343CC8923431A430280E6
:100AC000838B4FF2FF74234083830B8A038210BD14
:100AD0002DE9F04F85B005460C464FF0000902277E
:100AE0004FF000084FF0010B0026B246A88B4FF2E2
:100AF00040010840A88302202884B5F81C90A06813
:100B0000022801D100BF38E0A08810B94FF0010BD6
:100B100001E04FF0020B8D48854200D100E000BF9C
:100B20006846FFF7C0FEDDF800A0E088B0F5007F62
:100B30000AD14FEA1A2000EB80004000A168B0FB08
:100B4000F1F0401D86B20BE04FEA4B10BAFBF0F01B
:100B500000EB80004000A168B0FBF1F0401D86B2C0
:100B60000A20B6FBF0F606F00108A6EB0800C0F379
:100B70004F074FF6FF7000EA0828022F01DBFF2F16
:100B800002DD02274FF00008E08840EA0800384301
:100B90002884A088A18908436188084321880843E4
:100BA00040F4006040EA0909A5F81C9005B0BDE8D2
:100BB000F08F0021018041808180C18001814181CD
:100BC0008181C1810721018270470021018041801C
:100BD0008180C1800221816000218181704721B123
:100BE000028842F04002028004E002884FF6BF73A0
:100BF0001A400280704721B1828B42F48062828366
:100C000004E0828B4FF6FF331A408283704730B581
:100C1000002400230C110125A540ABB21AB1858830
:100C20001D43858002E085889D43858030BD1AB1D3
:100C300083880B43838002E083888B4383807047E3
:100C4000818170470146888970474FF6FF62914263
:100C500004D0028842F48072028004E002884FF6D9
:100C6000FF631A400280704721B1828842F004027B
:100C7000828004E082884FF6FB731A4082807047BE
:100C800002884FF2FF731A40028002880A430280F2
:100C90007047018841F480510180704721B102887A
:100CA00042F40052028004E002884DF6FF731A40BD
:100CB0000280704702460020012901D0108B00E01D
:100CC000908A70470146088A7047B1F5804F04D179
:100CD000028842F48042028004E002884BF6FF73EF
:100CE0001A40028070470246002013890B400BB166
:100CF000012000E000207047CA4302817047F0B530
:100D00000246002000240023002501F00F070126E1
:100D1000BE40B4B20B1101269E40B3B2968806EADB
:100D200003051689264016B10DB1012000E0002010
:100D3000F0BD10B5002201F00F040123A3409AB2C8
:100D4000D343038110BD0000003001400038004053
:100D5000003C004010B50446FB48844209D1012103
:100D60008803FFF727FE00214FF48040FFF722FEA3
:100D700032E0F648844209D101214804FFF727FEFA
:100D800000214FF40030FFF722FE25E0F0488442B6
:100D900009D101218804FFF71AFE00214FF48020B9
:100DA000FFF715FE18E0EB48844209D10121C80481
:100DB000FFF70DFE00214FF40020FFF708FE0BE0C7
:100DC000E548844208D101210805FFF700FE002113
:100DD0004FF48010FFF7FBFD10BD2DE9F04786B002
:100DE00005460E460024A24600BFA1460027B08952
:100DF00000B100BF2F462C8A4CF6FF700440F088EB
:100E000004432C82AC894EF6F3100440B08831893B
:100E10000843718908430443AC81AC8A4FF6FF4014
:100E20000440B0890443AC8201A8FFF73CFDC648EA
:100E3000874202D1DDF810A001E0DDF80CA0A889FE
:100E400000F4004040B10AEBCA0000EB0A10316820
:100E50004900B0FBF1F807E00AEBCA0000EB0A100A
:100E600031688900B0FBF1F86420B8FBF0F00401B0
:100E70002009642101FB1089A88900F4004040B1D9
:100E8000322000EBC900B0FBF1F000F00700044392
:100E900008E0322000EB09106421B0FBF1F000F013
:100EA0000F0004432C8106B0BDE8F0874FF41651C3
:100EB000016000218180C18001810C2141810021DC
:100EC0008181704710B502460020108A4FF2FF035F
:100ED00018400B884C8823438C882343CC882343B9
:100EE0001843108210BD0021018041808180C180A3
:100EF000704721B1828942F40052828104E08289E4
:100F00004DF6FF731A4082817047F0B50346002406
:100F100000260025002040F66A17B94200D100BF24
:100F20001846C1F3421401F01F06012707FA06F51F
:100F3000012C01D10C3004E0022C01D1103000E072
:100F400014301AB107682F43076002E00768AF4307
:100F50000760F0BD1AB1838A0B43838202E0838A63
:100F60008B4383827047028A4FF6F0731A400282E5
:100F7000028A0A430282704782894FF2FF731A4045
:100F8000828182890A438281704721B1828942F03D
:100F90000202828104E082894FF6FD731A40828149
:100FA0007047028A4FF6DF731A400282028A0A43B0
:100FB0000282704721B1028A42F48042028204E038
:100FC000028A4BF6FF731A4002827047C1F308028F
:100FD0008280704701468888C0F308007047818985
:100FE00041F0010181817047028BD2B20283028BF2
:100FF00042EA012202837047028B02F47F4202839D
:10100000028B0A430283704721B1828A42F0200298
:10101000828204E0828A4FF6DF731A408282704730
:1010200021B1828A42F01002828204E0828A4FF665
:10103000EF731A408282704721B1828A42F008021F
:10104000828204E0828A4FF6F7731A4082827047E8
:1010500021B1828942F40042828103E08289C2F395
:101060000E028281704721B1828A42F4006282823C
:1010700004E0828A4FF2FF731A4082827047828AAC
:101080004FF6FB731A408282828A0A43828270473B
:1010900021B1828A42F00202828204E0828A4FF603
:1010A000FD731A408282704702460020B1F5007F2E
:1010B00000D100BF13880B400BB1012000E00020DD
:1010C000704701F40072B2F5007F00D100BFCA433F
:1010D0000280704770B502460024002300250020DE
:1010E00040F66A16B14200D100BFC1F3421501F0CB
:1010F0001F03012606FA03F3012D02D1968933401E
:1011000006E0022D02D1168A334001E0968A334070
:101110000C12012606FA04F41688344013B10CB1FF
:10112000012000E0002070BD10B50022002340F631
:101130006A14A14200D100BF0A1201249440A3B254
:10114000DC43048010BD0000003801400044004032
:1011500000480040004C00400050004010B50346DD
:1011600007E018780C78A04201D0002010BD5B1C6D
:10117000491C101EA2F10104A2B2F2D10120F5E730
:1011800001B502E00098401E009000980028F9D1B7
:1011900008BD00F07BF92020394908600120086073
:1011A0000220091D086041F2883000F0ABF900F020
:1011B0000FF934A000F0D8FC00F0B6F900F0ADFB58
:1011C0003B490860C820FFF7DBFF00F081FB39498D
:1011D0000860374802680846016837A000F0C4FC80
:1011E00034480068424988423CD142A000F0BCFC2F
:1011F000002000F055FA1B220021464800F0B1FA09
:10120000444945A000F0B0FC1B220021484800F0F2
:1012100039FB474947A000F0A7FC1B2244493D4841
:10122000FFF79CFF494908700846007801280CD157
:101230002020134908600120091D08600220091FB1
:10124000086043A000F090FC18E020200C49091D24
:1012500008600120091F08600220086045A000F016
:1012600083FC0BE020200649091D08600120091FAE
:1012700008600220086048A000F076FC00BFFEE78E
:10128000100C01400D0A20D5E2CAC7D2BBB8F6380F
:101290004D62797465B4AED0D0666C6173682857BE
:1012A000323551363429CAB5D1E9200D0A00000083
:1012B00044000020480000200D0A20466C6173683D
:1012C000494420697320307825582C094D616E758A
:1012D0006661637475726572204465766963652022
:1012E000494420697320307825580D0A0000000019
:1012F0001740EF000D0A20BCECB2E2B5BDB4AED091
:10130000D0666C6173682057323551363420210D18
:101310000A000000280000200D0A20D0B4C8EBB558
:10132000C4CAFDBEDDCEAAA3BA2573200D090000F4
:10133000580000200D0A20B6C1B3F6B5C4CAFDBEE0
:10134000DDCEAAA3BA2573200D0A00004C000020B0
:101350000D0A20384DB4AED0D0666C617368285742
:10136000323551363429B2E2CAD4B3C9B9A6210AFA
:101370000D0000000D0A20384DB4AED0D0666C616F
:1013800073682857323551363429B2E2CAD4CAA715
:10139000B0DC210A0D0000000D0A20BBF1C8A1B28B
:1013A000BBB5BD20573235513634204944210A0D92
:1013B00000000000704700BFFEE700BFFEE700BF6F
:1013C000FEE700BFFEE770477047704770470000B8
:1013D00000B585B001210420FFF7D2FA012188036E
:1013E000FFF7CEFA4FF40070ADF8100018208DF81A
:1013F000130003208DF8120004A92248FFF704F817
:101400004FF48060ADF8100004208DF8130004A99B
:101410001C48FEF7F9FF4FF4E13000900020ADF8D2
:101420000400ADF80600ADF80800ADF80C000C2083
:10143000ADF80A0069461448FFF7CFFC01211248B5
:10144000FFF757FD05B000BD70B504460D46E1B28B
:101450000D48FFF7BBFD00BF80210B48FFF724FEBE
:101460000028F9D0204670BD10B5044600BF2021E9
:101470000548FFF719FE0028F9D00348FFF7AAFD39
:1014800010BD0000000801400038014008B50121EE
:101490000820FFF775FA2020ADF8000010208DF825
:1014A000030003208DF8020069461E48FEF7ACFFDA
:1014B0000120ADF8000069461A48FEF7A5FF02209A
:1014C000ADF8000069461748FEF79EFF2021154839
:1014D000FFF747F801211348FFF743F802211148AD
:1014E000FFF73FF808BD002106E00A2100BF0A1EF1
:1014F000A1F1010399B2FAD1021EA0F1010398B241
:10150000F3D17047002107E042F6E06100BF0A1EF8
:10151000A1F1010399B2FAD1021EA0F1010398B220
:10152000F2D17047000C014000B587B001210803DB
:10153000FFF726FA0121C420FFF722FA1020ADF8A8
:10154000040003208DF8060010208DF8070001A983
:10155000FE48FEF759FF2020ADF8040018208DF852
:10156000070001A9F948FEF74FFF4020ADF804003D
:1015700001A9F648FEF748FF8020ADF8040001A954
:10158000F248FEF741FF1021F048FEF7EAFF002085
:10159000ADF808004FF48270ADF80A000020ADF8F5
:1015A0000C000220ADF80E000120ADF81000400242
:1015B000ADF812000820ADF814000020ADF81600B8
:1015C0000720ADF8180002A9E148FFF763FA0121EE
:1015D000DF48FFF704FB07B000BD10B50446214605
:1015E000DCA000F0C1FA002010BD10B504464FF495
:1015F0008050E44908600AE0E2490868411EE14A77
:10160000116020B90020FFF7E8FFC0B210BD022131
:10161000CF48FFF768FB0028EED02146CC48FFF703
:101620000FFB4FF48050D74908600AE0D54908689D
:10163000411ED44A116020B90120FFF7CEFFC0B28D
:10164000E4E70121C248FFF74EFB0028EED0C04876
:10165000FFF7F8FAC0B2D9E710B500241021BB4853
:10166000FEF781FF0520FFF7C0FF00BFFF20FFF757
:10167000BCFF044604F001000028F7D11021B34854
:10168000FEF76FFF10BD10B51021B048FEF76BFFDD
:101690000620FFF7AAFF1021AC48FEF762FF10BD3D
:1016A00010B50446FFF7EFFFFFF7D6FF1021A7485C
:1016B000FEF759FF2020FFF798FFC4F30740FFF71C
:1016C00094FFC4F30720FFF790FFE0B2FFF78DFF10
:1016D00010219E48FEF745FFFFF7BEFF10BD10B575
:1016E000FFF7D1FF10219948FEF73DFFC720FFF714
:1016F0007CFF10219548FEF734FFFFF7ADFF10BDCA
:1017000070B505460C461646FFF7BDFF10218F4801
:10171000FEF729FF0220FFF768FFC4F30740FFF739
:1017200064FFC4F30720FFF760FFE0B2FFF75DFF3F
:10173000B6F5807F04DD4FF4807693A000F014FAB4
:1017400003E02878FFF751FF6D1C301EA6F1010160
:101750008EB2F6D110217D48FEF703FFFFF77CFF24
:1017600070BD2DE9F05F07460E4614464FF00008A5
:10177000C146C2460025AB4606F0FF0ACAF100008A
:10178000C5B22046E11704EB1161C1F30728E11748
:1017900004EB11610912A4EB012101F0FF09BAF178
:1017A000000F20D1B8F1000F05D12246314638464E
:1017B000FFF7A6FF64E009E04FF480723146384637
:1017C000FFF79EFF06F5807607F58077B8F10000F9
:1017D000A8F1010101F0FF08EED14A463146384632
:1017E000FFF78EFF4CE0B8F1000F18D1A94510DDCE
:1017F000A9EB050000F0FF0B2A4631463846FFF7FB
:101800007FFF2E442F445A4631463846FFF778FF73
:1018100036E0224631463846FFF772FF30E0601B63
:1018200084B22046E11704EB1161C1F30728E117E8
:1018300004EB11610912A4EB012101F0FF092A4612
:1018400031463846FFF75CFF2E442F4409E04FF441
:10185000807231463846FFF753FF06F5807607F56C
:101860008077B8F10000A8F1010101F0FF08EED186
:10187000B9F1000F04D04A4631463846FFF740FF21
:10188000BDE8F09F70B505460C46164610212F485E
:10189000FEF769FE0320FFF7A8FEC4F30740FFF739
:1018A000A4FEC4F30720FFF7A0FEE0B2FFF79DFE01
:1018B00004E0FF20FFF799FE28706D1C301EA6F192
:1018C00001018EB2F5D110212048FEF74AFE70BD0D
:1018D0002DE9F041002400250026002710211B4897
:1018E000FEF741FE9F20FFF780FEFF20FFF77DFE01
:1018F0000546FF20FFF779FE0646FF20FFF775FE3D
:10190000074610211148FEF72CFE280440EA062065
:1019100040EA07042046BDE8F08110B500241021FC
:101920000A48FEF720FEAB20FFF75FFEFF20FFF71F
:101930005CFEFF20FFF759FEFF20FFF756FEFF2059
:10194000FFF753FE04461021004837E0000801402D
:10195000003001403C3C2D464C4153482D455252ED
:101960004F522D3E3E2053504920B5C8B4FDB3AC74
:10197000CAB1216572726F72436F6465203D202584
:10198000640A0000500000203C3C2D464C41534866
:101990002D4552524F522D3E3E205350495F464CEA
:1019A0004153485F50616765577269746520746F71
:1019B0006F206C61726765210A000000FEF7D1FD9F
:1019C000204610BD10B5044610213248FEF7CBFD6D
:1019D0000320FFF70AFEC4F30740FFF706FEC4F337
:1019E0000720FFF702FEE0B2FFF7FFFD10BD10B5C4
:1019F000FF20FFF7FAFD10BD10B504464FF48050EC
:101A00002549086009E024490868411E224A1160FE
:101A100018B90220FFF7E1FD10BD02211F48FFF7B2
:101A200062F90028EFD021461C48FFF709F94FF46E
:101A300080501949086009E017490868411E164A94
:101A4000116018B90320FFF7C8FDE5E7012113482D
:101A5000FFF749F90028EFD01048FFF7F3F8DBE76C
:101A600010B510210B48FEF77EFDB920FFF7BDFD34
:101A700010210848FEF775FD10BD10B5102105486E
:101A8000FEF771FDAB20FFF7B0FD10210148FEF716
:101A900068FD10BD000801405000002000300140EA
:101AA0002DE9F05F0546002092469B468846064693
:101AB000814640241BE0284641464746224600F026
:101AC00042F853465A46C01A914110D3114618465F
:101AD000224600F029F82D1A67EB01084F462246EE
:101AE0000120002100F020F817EB00094E41201ED4
:101AF000A4F10104DFDC484631462A464346BDE8EE
:101B0000F09F0000064C074D06E0E06840F001033E
:101B100094E8070098471034AC42F6D3FEF70CFB6C
:101B2000681E0008881E0008202A04DB203A00FAFC
:101B300002F1002070479140C2F1200320FA03F324
:101B4000194390407047202A04DB203A21FA02F022
:101B50000021704721FA02F3D040C2F120029140E7
:101B600008431946704700000FB4054B10B503A990
:101B7000044A029800F018F810BC5DF814FB00004D
:101B8000491400085400002002E008C8121F08C1D0
:101B9000002AFAD170477047002001E001C1121FEE
:101BA000002AFBD1704700002DE9FF4F8DB09B4606
:101BB0000F460446002606E025280BD05A460F990A
:101BC0009047641C761C20780028F5D111B030466F
:101BD000BDE8F08F0025A8460122984900E00543A2
:101BE00014F8013F203B02FA03F00842F7D12078B5
:101BF0002E2817D114F8010F45F004052A280ED01D
:101C00006FF02F022078A0F1300109290AD808EBE3
:101C1000880102EB410100EB0108641CF2E757F870
:101C2000048B641C20786C280DD004DC4C2812D066
:101C30006A2811D104E074280DD07A280CD10AE06A
:101C400045F4001507E0617845F48015814202D122
:101C5000641C05F58015641C2278692A45D008DCCF
:101C6000002AB3D0582A69D0632A10D0642A08D138
:101C70003BE0702A67D0732A13D0752A5CD0782A8B
:101C80005CD010465A460F999047761CD3E017F85F
:101C9000040B8DF8000000208DF80100E9460120BA
:101CA00003E057F8049B4FF0FF3069074FF0000541
:101CB00001D40AE06D1C45450DDA8542FADB19F8BE
:101CC00005100029F6D106E06D1C8542FCDB19F8F1
:101CD00005100029F8D12E4404E019F8010B5A46EA
:101CE0000F9990476D1EF8D2A5E00A200021CDE99A
:101CF0000801C5F3025002280DD001CFC117031E01
:101D000071F100030DDA4FF0000CD0EB0C006CEB1E
:101D100001012D2308E0FF1D27F00707F7E8020166
:101D2000EDE72B0504D52B238DF8283001233BE06C
:101D3000EB0739D02023F7E70A2000E0102000212C
:101D4000CDE9080107E01020002145F00405CDE9A8
:101D500008014FF00808C5F3025002280FD001CF48
:101D600000214FF0000A2B071FD5702A0DD0DDE9A6
:101D700008C38CF0100C5CEA030C0CD015E0FF1DBE
:101D800027F00707F7E80201EBE740228DF828204B
:101D90004FF0010A0BE050EA010306D030238DF822
:101DA00028308DF8292002239A46582A04D024A2EC
:101DB0000DF120090B9209E026A2F9E7DDE90823DD
:101DC000FFF76EFE0B9B9B5C09F8013D50EA010298
:101DD000F4D1ADEB090020300890680701D44FF032
:101DE00001080899884502DDA8EB010000E0002009
:101DF0008046002506E00AA85A46405D0F999047A4
:101E00006D1C761C5545F6DB04E030205A460F99D0
:101E10009047761CB8F10001A8F10108F5DC05E057
:101E200019F8010B5A460F999047761C0899481EDD
:101E300008900029F4DC641CC5E6000009280100B4
:101E40003031323334353637383961626364656630
:101E500000000000303132333435363738394142F2
:101E60004344454600000000881E00080000002092
:101E700058000000881B0008E01E000858000020E1
:101E800020040000981B000800A24A040000000083
:101E9000000000000102030406070809000000001A
:101EA00001020304010203040607080902040608EC
:101EB000B8D0D0BBC4FAD1A1D3C3D2B0BBF0737435
:101EC0006D3332BFAAB7A2B0E50D0A0000000000D2
:101ED000000000000000000000A000000000000062
:0400000508000131BD
:00000001FF
