:020000040800F2
:10000000A012002045010008E5220008C5120008E2
:10001000E1220008830700085930000800000000B2
:10002000000000000000000000000000F9280008A7
:10003000950800080000000055230008E529000885
:100040005F0100085F0100085F0100085F01000810
:100050005F0100085F0100085F0100085F01000800
:100060005F0100085F0100085F0100085F010008F0
:100070005F0100085F0100085F0100085F010008E0
:100080005F0100085F0100085F0100085F010008D0
:100090005F0100085F0100085F0100085F010008C0
:1000A0005F0100085F0100085F0100085F010008B0
:1000B0005F0100085F0100085F0100085F010008A0
:1000C0005F0100085F0100085F0100085F01000890
:1000D0005F0100085F0100085F0100085F01000880
:1000E0005F0100085F0100085F0100085F01000870
:1000F0005F0100085F0100085F0100085F01000860
:100100005F0100085F0100085F0100085F0100084F
:100110005F0100085F0100085F0100085F0100083F
:100120005F0100085F0100085F0100085F0100082F
:10013000DFF80CD000F0F4FA004800478D400008CA
:10014000A01200200648804706480047FEE7FEE769
:10015000FEE7FEE7FEE7FEE7FEE7FEE7FEE7FEE777
:10016000E929000831010008D2B201E000F8012BB2
:10017000491EFBD270470022F6E710B513460A4627
:1001800004461946FFF7F0FF204610BD421C10F848
:10019000011B0029FBD1801A7047F0B480EA0102EC
:1001A000D40F4200B2EB410F02D20246084611467C
:1001B0004A0042D0C30DDDB2C1F3C752AD1A202DA3
:1001C00035DAC1F3160141F4000204B15242C5F11F
:1001D000200602FA06F12A411044B3EBD05F23D087
:1001E000C4B1012DA0EBC35009DCF0BC4FF00042BC
:1001F00002EAC352DBB200F5000000F006BA40008C
:1002000000F1807000EBC350A0F1807040EAD17023
:10021000490009E0490841EAC071A0EBC35000F56C
:100220000000400800EBC350F0BC00F0E5B96142AB
:10023000012202EB4101001BF6E7F0BC704781F0A0
:100240000041AAE780F00040A7E780EA010210B56C
:1002500002F00043400022D04A001FD0010E01EB03
:100260001261C0F35600C2F3560240F4000042F49B
:100270000002A0FB022000047F39140400D0401CBF
:1002800050EA124001D44000491EC2B20C0604EBF1
:10029000D010401C4008802A02D003E0002010BD8E
:1002A00020F00100002900DA0020184310BD30B40E
:1002B00080EA010202F0004530F0004221F00040E7
:1002C00013D090B1C30DD40DC2F31601C0F31600C4
:1002D000E41A41F4000140F400027D34914201D35C
:1002E000641C00E04900002C02DA30BC002070479A
:1002F0004FF400000023914201D3891A03434008C0
:100300004FEA4101F7D151B1914202D14FF0004182
:1003100005E002D24FF0010101E06FF0010103EBB3
:10032000C450284430BC00F067B92DE9FE4F81EA83
:10033000030404F0004421F0004100944FF0000B4E
:1003400023F0004350EA01045ED052EA03045BD07C
:10035000C3F30A54C1F30A552C44A4F2F3340194B4
:10036000A0FB0254C1F3130141F48011C3F3130342
:1003700043F4801301FB024400FB034E840A970AF6
:1003800044EA815447EA8357A4FB076802958D0A23
:1003900005FB07854FEA932C04FB0C542705029DAF
:1003A0004FEA065847EA1637B5EB08056EEB070C1F
:1003B000870E920E47EA811742EA8312A7FB0201D9
:1003C000B6EB0B0164EB00042B0D43EA0C335E1813
:1003D00044EB1C50DA465146E7FB0201C5F3130417
:1003E0004FEA0B3343EA14534FEA0432019C43EAC9
:1003F0000603A4F10C040294009CCDE900B400F0C3
:1004000041F903B0BDE8F08F00200146F9E72DE97E
:10041000F04D81EA030404F0004B21F0004514463E
:100420004FF0000A23F0004150EA050220D054EAC0
:1004300001021DD0C5F30A570246C5F31303C1F3E9
:100440001300C1F30A5640F4801543F48013A7EB60
:100450000608101BD64608F2FD3873EB050002D3E0
:1004600008F1010801E092185B41B8F1000F03DACE
:1004700000200146BDE8F08D00204FF480110646B3
:1004800084460EE0171B73EB050705D3121B63EBC5
:10049000050306434CEA010C49084FEA3000921864
:1004A0005B4150EA0107EDD152EA030012D082EA23
:1004B000040083EA0501084305D0101BAB4106D2B6
:1004C0000122002306E000224FF0004302E06FF01B
:1004D000010253101AEB06004CEB085110EB0A0016
:1004E00041EB0B01BDE8F04D00F0BDB8C10F80EA53
:1004F000E0700844CA079623002100F086B800F097
:10050000004220F00040C10DC0F3160040F400008E
:100510007F2901DA00207047962903DCC1F196019A
:10052000C84001E096398840002AF4D04042704724
:1005300020F00040C10DC0F3160040F400007F29F8
:1005400001DA00207047962903DCC1F19601C8400A
:10055000704796398840704700F0004230F0004004
:100560000AD0C10D01F56071C0F3160042EA0151D5
:10057000C20840071143704700200146704701F050
:10058000004330B421F0004150EA010206D00A0DC8
:10059000A2F56072C1F31301002A02DC30BC002016
:1005A0007047440F44EAC104C100E01830BC00EBBE
:1005B000C25000F021B80000002801DBC0F100406B
:1005C000002901DBC1F100418142704730B50B4683
:1005D000014600202022012409E021FA02F59D4273
:1005E00005D303FA02F5491B04FA02F52844151E47
:1005F000A2F10102F1DC30BD0029A8BF7047401C08
:10060000490008BF20F00100704710B4B0FA80FC28
:1006100000FA0CF050EA010404BF10BC704749B165
:10062000CCF1200421FA04F411FA0CF118BF0121D5
:1006300021430843A3EB0C01CB1D4FEA00614FEAB5
:10064000102042BF002010BC704700EBC350104484
:100650000029A4BF10BC7047401C490008BF20F00F
:10066000010010BC704710B5141E73F1000408DAC5
:10067000401C41F1000192185B411A4301D120F066
:10068000010010BD2DE9F04D92469B4611B1B1FA23
:1006900081F202E0B0FA80F22032904600F052F887
:1006A00004460F4640EA0A0041EA0B0153465A4607
:1006B000084313D0114653EA010019D0C8F1400293
:1006C000504600F04EF805460E4650465946424602
:1006D00000F038F8084305D0012004E020463946F0
:1006E000BDE8F08D0020054346EAE0762C43374311
:1006F0000A986305E40AA0EB08000022FD0A44EA18
:1007000047540A3002D500200146E9E701051019D7
:100710006941DDE9084500196941BDE8F04DA2E7EE
:10072000064C074D06E0E06840F0010394E807003E
:1007300098471034AC42F6D3FFF7FEFCB47C0008B7
:10074000D47C0008202A04DB203A00FA02F10020C1
:1007500070479140C2F1200320FA03F319439040FF
:100760007047202A04DB203A21FA02F0002170476A
:1007700021FA02F3D040C2F1200291400843194609
:10078000704700BFFEE7000038B505460C46002064
:10079000009001F031FF01229102684601F072FEE3
:1007A0009DF80000A52801D0012000E00020012CC8
:1007B00001D1012100E00021084308B39DF80000A9
:1007C000A52806D1012C04D1C022E102104801F075
:1007D00059FE00BF284602F0BDFF0028FAD00020D5
:1007E00001F0B6FFA520009001229102684601F0B9
:1007F00071FEC0224FF40061054801F06BFE05E078
:10080000C0224FF40061024801F03CFE38BD0000F8
:100810002800002038B504464FF6FF71084601F065
:1008200019FD012000900648008883B20548008821
:10083000523882B20021512000F094FF38BD0000F0
:100840001A0000201800002070B504462546287ABA
:1008500004490871098888B24FF6FF7101F0FAFC6B
:1008600070BD00001401002070B5044625460849FB
:10087000A8680860098888B24FF6FF7101F0EAFCA9
:1008800003480079082802D100200149087170BD91
:100890001401002070470000F8B505462C46207B67
:1008A000A0BB4FF6FF714CF2186001F0D3FC0120A1
:1008B0000090E6886788F61BB3B2A6882788F61BE7
:1008C000B2B26188384600F04DFF4CF218614FF427
:1008D000784001F0BFFC324801F0C6FCE288638832
:1008E000D21AA2F1100606EBD67203EB620291B2A5
:1008F000A2882388D21AA2F1200707EBD77203EB54
:10090000620290B227A200F0D1FD33E0FFE74FF67C
:10091000FF71084601F09EFC01200090E688678880
:10092000F61BB3B2A6882788F61BB2B26188384698
:1009300000F018FF4FF6FF714FF4784001F08AFC89
:10094000174801F091FCE2886388D21AA2F11006E0
:1009500006EBD67203EB620291B2A2882388D21A08
:10096000A2F1200707EBD77203EB620290B20DA24F
:1009700000F09CFD4FF6FF714FF4047001F06AFC2B
:1009800000200090E6886788F61BB3B2A688278807
:10099000F61BB2B26188384600F0E4FEF8BD0000F4
:1009A000F8000020C7E5C6C100000000F8B5054604
:1009B0002C46207BA0B9218988B24FF6FF7101F047
:1009C00049FC01200090E6886788F61BB3B2A68830
:1009D0002788F61BB2B26188384600F0C3FE12E0E9
:1009E0004FF6FF71084601F035FC01200090E688C3
:1009F0006788F61BB3B2A6882788F61BB2B2618857
:100A0000384600F0AFFE4FF6FF714FF4047001F06E
:100A100021FC00200090E6886788F61BB3B2A68808
:100A20002788F61BB2B26188384600F09BFEF8BDFD
:100A30002DE9F84306463446207B80BB4FF6FF7114
:100A40004CF2186001F006FC01200090E788B4F831
:100A500002C0A7EB0C07BBB2A788B4F800C0A7EB95
:100A60000C07BAB26188604600F07CFE4CF2186157
:100A70004FF4047001F0EEFB00200090E788B4F81A
:100A800002C0A7EB0C07BBB2A788B4F800C0A7EB65
:100A90000C07BAB26188604600F064FE2FE0FFE701
:100AA0004FF6FF71084601F0D5FB01200090E78862
:100AB000B4F802C0A7EB0C07BBB2A788B4F800C01B
:100AC000A7EB0C07BAB26188604600F04BFE4FF608
:100AD000FF714FF4047001F0BDFB00200090E78827
:100AE000B4F802C0A7EB0C07BBB2A788B4F800C0EB
:100AF000A7EB0C07BAB26188604600F033FE4FF6F0
:100B0000FF71002001F0A6FBA06809282FD2DFE8C2
:100B100000F0052F567DA4CBF5F3F2004FF6FF71E0
:100B2000002001F097FBB4F806C0B4F80290ACEBDB
:100B3000090707EBD77C09EB6C0C1FFA8CF3B4F8B0
:100B400006C0ACEB090808EBD87C09EB6C0C1FFA6B
:100B50008CF1B4F804C0ACF1140C1FFA8CF2B4F8A8
:100B600000C00CF1140C1FFA8CF000F0ABFD77E123
:100B700001200090B4F806C0B4F80290ACEB09086C
:100B800008EBD87C09EB6C0C1FFA8CF3B4F806C0A8
:100B9000ACEB090707EBD77C09EB6C0C1FFA8CF167
:100BA000B4F804C0ACF1140C1FFA8CF2B4F800C015
:100BB0000CF1140C1FFA8CF001F08EFA50E10220B7
:100BC0000090B4F806C0B4F80290ACEB090707EB4C
:100BD000D77C09EB6C0C1FFA8CF3B4F806C0ACEBB5
:100BE000090808EBD87C09EB6C0C1FFA8CF1B4F8FF
:100BF00004C0ACF1140C1FFA8CF2B4F800C00CF174
:100C0000140C1FFA8CF001F067FA29E10320009020
:100C1000B4F806C0B4F80290ACEB090707EBD77C38
:100C200009EB6C0C1FFA8CF3B4F806C0ACEB0908A6
:100C300008EBD87C09EB6C0C1FFA8CF1B4F804C0FB
:100C4000ACF1140C1FFA8CF2B4F800C00CF1140CC7
:100C50001FFA8CF001F040FA02E104200090B4F891
:100C600006C0B4F80290ACEB090808EBD87C09EB9D
:100C70006C0C1FFA8CF3B4F806C0ACEB090707EB59
:100C8000D77C09EB6C0C1FFA8CF1B4F804C0ACF102
:100C9000140C1FFA8CF2B4F800C00CF1140C1FFAFB
:100CA0008CF001F019FADBE008200090B4F806C0DF
:100CB000B4F80290ACEB090707EBD77C09EB6C0C9E
:100CC0001FFA8CF3B4F806C0ACEB090808EBD87C2B
:100CD00009EB6C0C1FFA8CF1B4F804C0ACF1140CE5
:100CE0001FFA8CF2B4F800C00CF1140C1FFA8CF04F
:100CF00001F0F2F9B4E072E027E0FFE70A2000908B
:100D0000B4F806C0B4F80290ACEB090808EBD87C44
:100D100009EB6C0C1FFA8CF3B4F806C0ACEB0907B6
:100D200007EBD77C09EB6C0C1FFA8CF1B4F804C00C
:100D3000ACF1140C1FFA8CF2B4F800C00CF1140CD6
:100D40001FFA8CF001F0C8F98AE04FF6FF7100201D
:100D500001F080FAB4F806C0B4F80290ACEB0907D1
:100D600007EBD77C09EB6C0C1FFA8CF3B4F806C0C8
:100D7000ACEB090808EBD87C09EB6C0C1FFA8CF182
:100D8000B4F804C0ACF1050C1FFA8CF2B4F800C042
:100D90000CF1050C1FFA8CF000F094FC002514E017
:100DA000E2886388D71A07EBD77203EB620291B22D
:100DB0002288521D05EB850302EB430290B201230A
:100DC000032200F0CDFB681C85B2A0882188401A60
:100DD0000A380A2190FBF1F0A842E1DC40E0002152
:100DE0004FF6FF7001F036FA01200090E288638828
:100DF000D21AA2F1280707EBD77203EB620291B275
:100E0000A2882388D21AA2F1180808EBD87203EB43
:100E1000620290B218231A4600F0A4FC4CF218614A
:100E20004FF4784001F016FA0F4801F01DFAE288FD
:100E30006388D21AA2F1280707EBD77203EB62028C
:100E4000183291B2A2882388D21AA2F1200808EBA6
:100E5000D87203EB620290B204A200F027FB00BF3D
:100E600000BFBDE8F8830000F8000020CFF0C6A462
:100E7000000000002DE9F84305460F4614461E46C3
:100E8000DDF82080512C6EDD512DFCDD98F804003A
:100E9000092815D2DFE800F0051525354555687A93
:100EA0009700002D01DB002F04DAB1B2A0B201F0EF
:100EB000EFF805E0B3B2A2B2B9B2A8B200F002FCFA
:100EC000A9E0601E512802DB681E512800DAA2E06A
:100ED0000120B3B2A2B2B9B20090A8B201F0FCF8FE
:100EE00099E0A01E512802DBA81E512800DA92E0EA
:100EF0000220B3B2A2B2B9B20090A8B201F0ECF8ED
:100F000089E0E01E512802DBE81E512800DA82E069
:100F10000320B3B2A2B2B9B20090A8B201F0DCF8DB
:100F200079E0201F512802DB281F512800DA72E0E7
:100F30000420B3B2A2B2B9B20090A8B201F0CCF8CA
:100F400069E0A4F10800512803DBA5F1080051284D
:100F500000DA60E00820B3B2A2B2B9B20090A8B241
:100F600001F0BAF857E057E0A4F10A00512803DB7A
:100F7000A5F10A00512800DA4DE00A20B3B2A2B26E
:100F8000B9B20090A8B201F0A7F844E0E01E5128E1
:100F900002DBE81E512800DA3DE0002D01DB002FC6
:100FA00004DAB1B2A0B201F073F80BE0B3B2A2B2AE
:100FB000B9B2A8B200F086FBB1B2A0B201230322FD
:100FC00000F0CEFA27E0A4F11400512810DB2830FD
:100FD0001249098888420BDC2838002808D406F119
:100FE00014000F490988884202DC2838002800D5FF
:100FF00011E04FF6FF71084601F02CF90120A6F12F
:10100000140291B2A4F11402009090B228231A465F
:1010100000F0A8FB00BF00BFBDE8F8831800002067
:101020001A00002051B18200A2F1C042126842F0C1
:1010300001038200A2F1C042136009E08200A2F124
:10104000C0421268034B1A408300A3F1C0431A60E8
:1010500070470000FEFF0F00D0E901121143C26883
:101060001143026911434269114382691143C26904
:101070001143026A1143426A1143826A1143C26AF0
:101080001143026B114302689200A2F1C042116049
:10109000816808290BD101688900A1F1C041096864
:1010A00041F0400201688900A1F1C0410A60416B32
:1010B0000968426B526841EA0211426B926841EA48
:1010C0000221426B928941EA0241426B128A41EA53
:1010D0000251426B127D41EA0261426B92691143F7
:1010E0000268521C9200A2F1C0421160C16AB1F5BF
:1010F000804F1BD1816B0968826B526841EA0211F3
:10110000826B926841EA0221826B128A41EA0251A3
:10111000826B127D41EA0261826B9269114302681F
:101120009200A2F1C042C2F8041107E06FF07042D1
:1011300001688900A1F1C041C1F8042170472DE97F
:10114000F04102460025002600200023002400274D
:1011500091F803C00CF00F0591F803C00CF0100CCF
:10116000BCF1000F03D091F802C04CEA050591F8DC
:1011700000C0BCF1000F31D0146800202BE04FF00C
:10118000010C0CFA00F3B1F800C00CEA03069E4211
:1011900020D183004FF00F0C0CFA03F7BC4305FA83
:1011A00003FC4CEA040491F803C0BCF1280F06D1FB
:1011B0004FF0010C0CFA00FCC2F814C00AE091F8E0
:1011C00003C0BCF1480F05D14FF0010C0CFA00FC34
:1011D000C2F810C0401C0828D1D31460B1F800C078
:1011E000BCF1FF0F34DD546800202EE000F1080C44
:1011F0004FF0010808FA0CF3B1F800C00CEA03063E
:101200009E4221D183004FF00F0C0CFA03F7BC4330
:1012100005FA03FC4CEA040491F803C0BCF1280F62
:1012200005D100F1080C08FA0CF8C2F8148091F806
:1012300003C0BCF1480F07D100F1080C4FF00108C2
:1012400008FA0CF8C2F81080401C0828CED354606D
:10125000BDE8F0810246002093680B400BB10120ED
:1012600000E0002070474161704701617047000055
:101270002DE9F04180460C461048007820B901F075
:10128000BBF901200D4908702512E6B2A5F1A101B4
:10129000C1EB011202EB411106EB4101A139080239
:1012A000C11700EB5171CF10054839182022404674
:1012B00001F0E8F80020BDE8F081000010010020F6
:1012C0000030180000BFFEE710B5044624B14021ED
:1012D0000448FFF7C8FF03E040210248FFF7C5FFBD
:1012E00010BD0000002001402DE9F04106460F46E8
:1012F00014461D462B4622463946304600F012FC65
:1013000004FB05F00249098800F0A9FABDE8F08164
:101310002600002001B502E00098401E00900098D1
:101320000028F9D108BD00002DE9F04389B08046BE
:101330008946174610231A464946404600F0F2FBFC
:101340002C2000F0C1FE394601A8FFF791FF0024D0
:1013500022E001A810F814604FF6FF7000EA06269C
:10136000012000EB440001A9085C064300250FE0C2
:101370004FF400402841304020B10A48008800F076
:10138000A7FE03E00848008800F0A2FE681CC5B272
:10139000102DEDDB601CC4B2102CDADB09B0BDE807
:1013A000F083000024000020260000202DE9F05FDB
:1013B000804689461646A6F120001FFA80FA1E498B
:1013C000096889881C4A1268D28801FB02F0C1179B
:1013D00000EB5171C1F3C7071748006800680AFBAA
:1013E000070B15480068C38813480068828849467F
:1013F000404600F097FB2C2000F066FE002416E02B
:10140000002510E01BF8040080212941084020B18C
:101410000A48008800F05CFE03E00948008800F0FC
:1014200057FE681CC5B2082DECDB601CC4B2BC4280
:10143000E6DBBDE8F09F0000200000202400002033
:101440002600002070B504460D46002624E03046F4
:10145000134909688988084412490988884205DDCA
:1014600000260F480068C088204484B220460C49FA
:101470000968C98808440C490988884201DD0026AA
:1014800000242A7821463046FFF790FF6D1C04485F
:1014900000688088304486B228780028D7D170BD93
:1014A00020000020180000201A0000202DE9F04143
:1014B00005460E46144648E020787E2825DC28465E
:1014C000244909688988084423490988884205DD38
:1014D000002520480068C088304486B230461D4947
:1014E0000968C98808441D490988884201DD00252A
:1014F0000026227831462846FFF758FF1548006835
:101500008088284485B2641C1FE0284610301249A8
:101510000988884203DD002506F1100086B23046B6
:1015200010300E490988884201DD002500262788F1
:10153000380200EB272087B23A4631462846FFF7AB
:10154000F3FE05F1100085B2A41C20780028B3D169
:10155000BDE8F08120000020180000201A000020C3
:101560002DE9F05F05460E4691469B4600240FFA92
:1015700089F70320A0EB49000FFA80FA87E0BBF15E
:10158000000F40D0A0463BE006EB080291B22A19BA
:1015900090B200F07DFD06EB080291B22A1B90B2DA
:1015A00000F076FD321991B2A5EB080290B200F07E
:1015B0006FFD321B91B2A5EB080290B200F068FDFE
:1015C000A6EB080291B22A1B90B200F061FDA6EBD7
:1015D000080291B22A1990B200F05AFD321B91B262
:1015E00005EB080290B200F053FD321991B205EB01
:1015F000080290B200F04CFD08F101000FFA80F8EB
:10160000B845C1DD2FE0F21991B22A1990B200F06D
:101610003FFDF21991B22A1B90B200F039FD321948
:1016200091B2EA1B90B200F033FD321B91B2EA1B7B
:1016300090B200F02DFDF21B91B22A1B90B200F087
:1016400027FDF21B91B22A1990B200F021FD321B46
:1016500091B2EA1990B200F01BFD321991B2EA1969
:1016600090B200F015FD601C04B2BAF1000F05DA6B
:10167000A000801D50440FFA80FA07E0E01B8000B4
:101680000A3050440FFA80FA781E07B200BFBC42FD
:101690007FF775AFBDE8F09F70B504460D4604F1C5
:1016A0000A018AB2143988B22B46294600F00AF89A
:1016B00005F10A0083B2143881B22246204600F0B8
:1016C00001F870BD2DE9FF4F83B081464FF0000A4D
:1016D000D3460598A0EB090504990698461ACDF85B
:1016E000049004980090002D01DD012705E00DB95C
:1016F000002702E04FF0FF376D42002E02DD4FF071
:10170000010806E016B94FF0000802E04FF0FF387C
:101710007642B54201DD2C4600E0344600200290BE
:1017200019E0DDE9001000F0B3FCAA44B344A2457F
:1017300005DDAAEB040A0198384480B20190A34564
:1017400005DDABEB040B0098404480B2009002989A
:10175000401C80B20290611C02988842E1DD07B013
:10176000BDE8F08F2DE9F04104460D4616461F46B0
:10177000DDF81880B8F1000F0CD03B463246294600
:10178000204600F0CFF906FB07F01749098800F062
:1017900066F827E0A019401E82B22B462946204653
:1017A000FFF790FFE819401E83B2A019401E82B2D5
:1017B000E819401E81B22046FFF784FFE819401E59
:1017C00083B2224629462046FFF77CFFE919491ECD
:1017D0008BB2A119491E8AB2A119491E88B22946A5
:1017E000FFF770FFBDE8F0812400002000B597B03E
:1017F0003C2108A8FEF7BFFC1C2101A8FEF7BBFC9A
:101800000121080200F0A8FD0120019004200390AE
:101810008006079000200290049005900690062014
:1018200008900020099008200A9010200B900020BA
:101830000C900E900F9010904FF48050119000205B
:1018400012901390149001A81590169008A8FFF715
:1018500003FC01210620FFF7E5FB17B000BD70B5C2
:1018600004460D4600262C2000F02EFC00BF03E0AD
:10187000284600F02DFC761CA642F9D370BD00006E
:1018800008B501214FF4B07000F076FD03208DF80B
:10189000020018208DF803004FF48040ADF80000DE
:1018A00069465B48FFF74BFC4FF40040ADF8000081
:1018B00069465748FFF743FC0120ADF80000694630
:1018C0005348FFF73CFC0220ADF800006946504841
:1018D000FFF735FC8020ADF8000069464D48FFF762
:1018E0002EFC4FF48070ADF8000069464948FFF7C0
:1018F00026FC4FF40070ADF8000069464548FFF73C
:101900001EFC4FF48060ADF8000069464148FFF7C7
:1019100016FC4FF40060ADF8000069463D48FFF743
:101920000EFC4FF48050ADF8000069463948FFF7CF
:1019300006FC4FF40050ADF8000069463548FFF74B
:10194000FEFB4FF48040ADF8000069463148FFF7D8
:10195000F6FB4FF40040ADF8000069462D48FFF754
:10196000EEFB4FF48070ADF8000069462848FFF7A1
:10197000E6FB4FF40070ADF8000069462448FFF71D
:10198000DEFB4FF48060ADF8000069462048FFF7A9
:10199000D6FB03208DF8020018208DF803001020DC
:1019A000ADF8000069461A48FFF7C9FB2020ADF8E2
:1019B000000069461648FFF7C2FB4FF48050ADF8AF
:1019C000000069461448FFF7BAFB0420ADF8000098
:1019D00069461048FFF7B3FB10208DF80300032081
:1019E0008DF802004FF40060ADF8000069460A4827
:1019F000FFF7A5FB10208DF8030003208DF80200EF
:101A00004020ADF8000069460348FFF798FB08BD89
:101A100000140140001801400020014010B50446A8
:101A2000072C00DD10BD31480470204604EBD07156
:101A30004910A4EB410139B9F0202D4908804FF439
:101A4000A0702C49088006E04FF4A0702849088057
:101A5000F02028490880362000F036FB2648008810
:101A600049F24131884205D1082141EA441000F091
:101A70002FFB0AE02048008848F25251884204D1E6
:101A8000002141EA441000F023FB2A2000F01CFB57
:101A9000002000F01DFB002000F01AFB144909880B
:101AA000491EC1F3072000F013FB11490978491EB4
:101AB000C8B200F00DFB2B2000F006FB002000F068
:101AC00007FB002000F004FB0A490988491EC1F306
:101AD000072000F0FDFA07490978491EC8B200F056
:101AE000F7FA2C2000F0F0FA00BF9BE71C00002062
:101AF000180000201A0000201E00002010B5FFF77B
:101B0000BFFEFFF773FE0120FFF7DEFB00F0A0FA37
:101B100000F038F802480078FFF780FF10BD0000A1
:101B20001C0000202DE9F04104460D4616461F46D4
:101B30002A2000F0C9FA201200F0CAFAE0B200F040
:101B4000C7FAA119491EC1F30F2000F0C1FAA1196B
:101B5000491EC8B200F0BCFA2B2000F0B5FA2812DA
:101B600000F0B6FAE8B200F0B3FAE919491EC1F381
:101B70000F2000F0ADFAE919491EC8B200F0A8FA2A
:101B8000BDE8F08110B500F025FAFE49088008464E
:101B9000008849F2413188427ED1CF2000F094FA8A
:101BA000002000F095FA812000F092FA302000F039
:101BB0008FFAED2000F088FA642000F089FA032003
:101BC00000F086FA122000F083FA812000F080FAFB
:101BD000E82000F079FA852000F07AFA102000F071
:101BE00077FA782000F074FACB2000F06DFA3920F3
:101BF00000F06EFA2C2000F06BFA002000F068FA7A
:101C0000342000F065FA062000F062FAF72000F0B8
:101C10005BFA202000F05CFAEA2000F055FA002080
:101C200000F056FA002000F053FAB12000F04CFA10
:101C3000002000F04DFA1B2000F04AFAB62000F018
:101C400043FA0A2000F044FAA22000F041FAC02032
:101C500000F03AFA352000F03BFAC12000F034FAE7
:101C6000112000F035FAC52000F02EFA452000F0D2
:101C70002FFA452000F02CFAC72000F025FAA22008
:101C800000F026FAF22000F01FFA002000F020FAFF
:101C9000262000F019FA00E096E0012000F018FA82
:101CA000E02000F011FA0F2000F012FA262000F0D8
:101CB0000FFA242000F00CFA0B2000F009FA0E2095
:101CC00000F006FA092000F003FA542000F000FAB0
:101CD000A82000F0FDF9462000F0FAF90C2000F0F1
:101CE000F7F9172000F0F4F9092000F0F1F90F20BE
:101CF00000F0EEF9072000F0EBF9002000F0E8F921
:101D0000E12000F0E1F9002000F0E2F9192000F0F4
:101D1000DFF91B2000F0DCF9042000F0D9F91020D5
:101D200000F0D6F9072000F0D3F92A2000F0D0F90E
:101D3000472000F0CDF9392000F0CAF9032000F067
:101D4000C7F9062000F0C4F9062000F0C1F93020E0
:101D500000F0BEF9382000F0BBF90F2000F0B8F910
:101D6000362000F0B1F9C82000F0B2F92A2000F0C6
:101D7000ABF9002000F0ACF9002000F0A9F9002038
:101D800000F0A6F9EF2000F0A3F92B2000F09CF959
:101D9000002000F09DF9002000F09AF9012000F0E9
:101DA00097F93F2000F094F93A2000F08DF9552082
:101DB00000F08EF9112000F087F97348FFF7AAFAB6
:101DC000292000F081F901E16E48008848F2525163
:101DD0008842F8D1CF2000F077F9002000F078F9A0
:101DE000C12000F075F9302000F072F9ED2000F00C
:101DF0006BF9642000F06CF9032000F069F91220FF
:101E000000F066F9812000F063F9E82000F05CF949
:101E1000852000F05DF9102000F05AF9782000F0DC
:101E200057F9CB2000F050F9392000F051F92C205F
:101E300000F04EF9002000F04BF9342000F048F992
:101E4000022000F045F9F72000F03EF9202000F0D4
:101E50003FF9EA2000F038F9002000F039F90020BD
:101E600000F036F9C02000F02FF9212000F030F901
:101E7000C12000F029F9112000F02AF9C52000F056
:101E800023F92D2000F024F9332000F021F9362029
:101E900000F01AF9002000F01BF93A2000F014F9C4
:101EA000552000F015F9B12000F00EF9002000F0E7
:101EB0000FF9172000F00CF9B62000F005F90A2000
:101EC00000F006F9A22000F003F9F62000F0FCF87B
:101ED000012000F0FDF8302000F0FAF8F22000F0C8
:101EE000F3F8002000F0F4F8262000F0EDF80120CF
:101EF00000F0EEF8E02000F0E7F8D02000F0E8F87D
:101F0000002000F0E5F8022000F0E2F8072000F0E1
:101F1000DFF80B2000F0DCF81A2000F0D9F83120AF
:101F200000F0D6F8542000F0D3F8402000F0D0F8AC
:101F3000292000F0CDF8122000F0CAF8122000F09D
:101F4000C7F8122000F0C4F8172000F0C1F8E12013
:101F500000F0BAF8D02000F0BBF8002000F0B8F88C
:101F6000022000F0B5F8072000F0B2F8052000F0DC
:101F7000AFF8252000F0ACF82D2000F0A9F844209F
:101F800004E000001E000020FCBF020000F0A0F8EA
:101F9000452000F09DF81C2000F09AF8182000F071
:101FA00097F8162000F094F81C2000F091F81D20FE
:101FB00000F08EF8112000F087F80548FFF7AAF925
:101FC000292000F081F82C2000F07EF810BD0000E0
:101FD000FCBF020010B50024042000F075F800BF1B
:101FE0004FF0DA40008800BF4FF0DA40008800F080
:101FF0002BF804464FF6FF7000EA042400F024F8A2
:10200000044348F25250844201D1204610BDD320EF
:1020100000F05AF800BF4FF0DA40008800BF4FF0E0
:10202000DA40008800F010F804464FF6FF7000EA2E
:10203000042400F009F8044349F24130844201D1FC
:102040002046E3E70020E1E74FF0DA4000887047E0
:1020500010B54FF400610848FFF705F940F6FF207E
:10206000FFF758F94FF400610348FFF7FEF840F618
:10207000FF20FFF74FF910BD0020014070B5044666
:102080000D4601231A4629462046FFF74BFD70BD39
:1020900070B505460C460948008885420CDA0848A8
:1020A0000088844208DA21462846FFF7E7FF054802
:1020B00001880120FFF7D3FB70BD0000180000204D
:1020C0001A000020240000204FF0D84108807047FB
:1020D0004FF0DA41088070472DE9F04F8BB005468C
:1020E0000E4691469A46DDF850B00027B8460020CB
:1020F0000A9009900890079006900590002404909B
:10210000039002900190A9EB0500002802DDA9EBE5
:10211000050001E0A5EB090007B2AAEB06000028C4
:1021200002DDAAEB060001E0A6EB0A000FFA80F838
:1021300028B20A9030B20990A94503DB012008902B
:10214000079003E04FF0FF3008900790B24503DBA3
:1021500001200690059003E04FF0FF3006900590B7
:1021600047450DDB0020089005903C46384607EBBC
:10217000D071491009B20491CDF80C8002970CE09F
:102180000020079006904446404608EBD071491065
:1021900009B204910397CDF808800020019041E036
:1021A0000A9858442349098888420DDC0A98B0EB04
:1021B0000B0009D4099858441F490988884203DC58
:1021C0000998B0EB0B0000D528E0099A91B20A9A61
:1021D00090B201235A46FFF7C3F9DDE90310084422
:1021E00000B204900498A0420DDB0498001B00B2DA
:1021F000049008990A98084400B20A900699099830
:10220000084400B2099007990A98084400B20A905D
:1022100005990998084400B2099000BF0198401C34
:1022200000B20190DDE901018842B9DD0BB0BDE8E3
:10223000F08F0000180000201A00002001480068FC
:10224000704700002000002001490880704700000E
:1022500026000020024A1080024A118070470000C8
:10226000240000202600002001490860704700007B
:102270002000002001490880704700002400002051
:1022800008B50121082000F077F82020ADF8000003
:1022900010208DF8030003208DF8020069460F48D6
:1022A000FEF74DFF0120ADF8000069460B48FEF730
:1022B00046FF0220ADF8000069460848FEF73FFFE0
:1022C00020210648FEF7D1FF01210448FEF7CDFF8B
:1022D00002210248FEF7C9FF08BD0000000C0140C2
:1022E00000BFFEE77047000070B505462846FFF7BF
:1022F00095FB4FF6FF70FFF7A7FF124803881248BF
:10230000028800210846FEF7EFFF00F0F9FB0024E9
:102310000CE004EB44020D4B03EBC20004EB44025F
:1023200003EBC20211698847601CC4B2102CF0DBB9
:102330000020074908600871098888B2FFF79AFFF2
:1023400070BD00001A0000201800002020010020AD
:10235000140100207047000029B1064A5269024367
:10236000044B5A6104E0034A52698243014B5A61AB
:10237000704700000010024029B1064A92690243EA
:10238000044B9A6104E0034A92698243014B9A61CB
:10239000704700000010024030B5002100220024E8
:1023A00000232D4D6D6805F00C0121B1042905D0E5
:1023B000082923D105E0294D056022E0274D05605D
:1023C0001FE0254D6D6805F47012234D6D6805F40E
:1023D0008034022505EB92421CB9214D554305601E
:1023E0000BE01D4D6D6805F400351DB11C4D5543C6
:1023F000056002E0194D5543056002E0174D056088
:1024000000BF00BF144D6D6805F0F0010909154DBE
:102410006B5C0568DD4045600F4D6D6805F4E0615B
:10242000090A104D6B5C4568DD4085600A4D6D689A
:1024300005F46051C90A0B4D6B5C4568DD40C56011
:10244000054D6D6805F44041890B074D6B5CC5680F
:10245000B5FBF3F5056130BD0010024000127A00B3
:1024600000093D00000000201000002021B102887A
:1024700042F04002028004E002884FF6BF731A4027
:102480000280704770B505460C461646102110486C
:10249000FEF7E9FE032000F07DF9C4F3074000F0E9
:1024A00079F9C4F3072000F075F9E0B200F072F991
:1024B00004E0FF2000F06EF928706D1C301EA6F1BC
:1024C00001018EB2F5D110210148FEF7CEFE70BD9C
:1024D000000801402DE9F05F07460E4614464FF014
:1024E0000008C146C2460025AB4606F0FF0ACAF105
:1024F0000000C5B22046E11704EB1161C1F30728C3
:10250000E11704EB11610912A4EB012101F0FF09AD
:10251000BAF1000F20D1B8F1000F05D122463146A3
:10252000384600F0C7F864E009E04FF480723146A5
:10253000384600F0BFF806F5807607F58077B8F1E9
:102540000000A8F1010101F0FF08EED14A46314632
:10255000384600F0AFF84CE0B8F1000F18D1A945AB
:1025600010DDA9EB050000F0FF0B2A463146384686
:1025700000F0A0F82E442F445A463146384600F069
:1025800099F836E022463146384600F093F830E0BC
:10259000601B84B22046E11704EB1161C1F30728E8
:1025A000E11704EB11610912A4EB012101F0FF090D
:1025B0002A463146384600F07DF82E442F4409E083
:1025C0004FF480723146384600F074F806F5807694
:1025D00007F58077B8F10000A8F1010101F0FF08CC
:1025E000EED1B9F1000F04D04A463146384600F02A
:1025F00061F8BDE8F09F000000B587B00121080335
:10260000FFF7BAFE0121C420FFF7B6FE1020ADF897
:10261000040003208DF8060010208DF8070001A9A2
:102620002248FEF78CFD2020ADF8040018208DF81C
:10263000070001A91D48FEF782FD4020ADF8040007
:1026400001A91A48FEF77BFD8020ADF8040001A91E
:102650001648FEF774FD10211448FEF706FE002010
:10266000ADF808004FF48270ADF80A000020ADF814
:102670000C000220ADF80E000120ADF81000400261
:10268000ADF812000820ADF814000020ADF81600D7
:102690000720ADF8180002A9054800F0EFF8012165
:1026A0000348FFF7E3FE07B000BD0000000801404B
:1026B0000030014070B505460C46164600F0C0F8E3
:1026C00010211548FEF7CFFD022000F063F8C4F397
:1026D000074000F05FF8C4F3072000F05BF8E0B2B9
:1026E00000F058F8B6F5807F04DD4FF480760BA03B
:1026F00001F0E0FA03E0287800F04CF86D1C301E81
:10270000A6F101018EB2F6D110210348FEF7ADFD0E
:1027100000F07CF870BD0000000801403C3C2D46F4
:102720004C4153482D4552524F522D3E3E2053505E
:10273000495F464C4153485F506167655772697401
:102740006520746F6F206C61726765210A0000005C
:1027500010B5044600F074F800F058F810210C4849
:10276000FEF781FD202000F015F8C4F3074000F0CB
:1027700011F8C4F3072000F00DF8E0B200F00AF8F9
:1027800010210348FEF771FD00F040F810BD000075
:102790000008014010B504464FF480501949086004
:1027A0000AE018490868411E164A116020B9002045
:1027B00000F082F8C0B210BD0221134800F050F8BA
:1027C0000028EED02146104800F056F84FF4805013
:1027D0000C4908600AE00B490868411E094A11606B
:1027E00020B9012000F068F8C0B2E4E701210648F2
:1027F00000F036F80028EED0034800F03AF8C0B2F6
:10280000D9E70000140000200030014010B500247A
:1028100010210A48FEF727FD0520FFF7BBFF00BF88
:10282000FF20FFF7B7FF044604F001000028F7D1AE
:1028300010210248FEF719FD10BD000000080140FC
:1028400010B510210548FEF70EFD0620FFF7A2FF88
:1028500010210248FEF709FD10BD000000080140EC
:102860000246002013890B400BB1012000E000203C
:1028700070470146888970478181704710B50022F2
:10288000028802F441520B884C8823438C882343EE
:10289000CC8823430C8923434C8923438C892343CD
:1028A000CC8923431A430280838B4FF2FF74234069
:1028B00083830B8A038210BD10B50446214602A013
:1028C00001F0F8F9002010BD3C3C2D464C41534826
:1028D0002D4552524F522D3E3E2053504920B5C8EF
:1028E000B4FDB3ACCAB1216572726F72436F646597
:1028F000203D2025640A0000704710B500F002F862
:1029000010BD00000CB50020019000903348006815
:1029100040F480303149086000BF3048006800F45E
:10292000003000900198401C0190009818B901985F
:10293000B0F5A06FF1D12948006800F4003010B163
:102940000120009001E0002000900098012843D170
:102950002348006840F010002149086008460068DC
:1029600020F0030008600846006840F0020008609C
:102970001A48406819494860084640684860084657
:10298000406840F4806048600846406820F47C104D
:1029900048600846406840F4E8104860084600680F
:1029A00040F08070086000BF0C48006800F00070C4
:1029B0000028F9D00948406820F003000749486022
:1029C0000846406840F00200486000BF0348406885
:1029D00000F00C000828F9D10CBD000000100240E6
:1029E000002002407047000010B51348006840F016
:1029F00001001149086008464068104908400E4926
:102A00004860084600680E4908400B4908600846BF
:102A1000006820F4802008600846406820F4FE002A
:102A200048604FF41F008860FFF767FF4FF00060B9
:102A30000449086010BD0000001002400000FFF8CB
:102A4000FFFFF6FE08ED00E070B505460E460024D7
:102A500050E004EB4400294901EBC0008088A84203
:102A60002CDB04EB440001EBC000C088B04225DB46
:102A700004EB440001EBC0004088B0421EDC04EBD4
:102A8000440031F83000A84218DC04EB440001EBAC
:102A9000C000007B60BB012004EB4401174A02EB3D
:102AA000C101087304EB4402144B03EBC20004EBB6
:102AB000440203EBC2021169884719E004EB4400A9
:102AC0000E4901EBC000007B012811D1002004EB6E
:102AD00044010A4A02EBC101087304EB4402074BAC
:102AE00003EBC20004EB440203EBC2021169884706
:102AF000601CC4B2102CACDB70BD000020010020B3
:102B00000020C44908804880282088801C20C88074
:102B1000002088600873C0480861C04848610020F0
:102B200008831C21BB484183282181833821C1832C
:102B300046F20C310162002180F82410B64981620E
:102B4000B649C1620020B34908863821B1484186A0
:102B5000282181865421C1861F218163002180F8AC
:102B60003C10AD490164AD4941640020A949A1F878
:102B700048005421A748A0F84A102821A0F84C107A
:102B80007021A0F84E1040F2FF710165002180F81D
:102B90005410A1498165A149C16500209D49A1F852
:102BA000600070219B48A0F862102821A0F86410F2
:102BB0008C21A0F866104FF478418166002180F8DE
:102BC0006C10954901679549416700209149A1F82A
:102BD00078008C218F48A0F87A102821A0F87C106A
:102BE000A821A0F87E104FF61F01C0F88010002128
:102BF00080F884108849C0F888108849C0F88C1083
:102C000000208449A1F89000A8218248A0F89210E1
:102C10002821A0F89410C421A0F896104FF4FC616C
:102C2000C0F89810002180F89C107B49C0F8A010D3
:102C30007A49C0F8A41000207649A1F8A800C42160
:102C40007448A0F8AA102821A0F8AC107448018894
:102C50007048A0F8AE104CF21861C0F8B010002116
:102C600080F8B4106F49C0F8B8106F49C0F8BC10B4
:102C700028206849A1F8C00000216648A0F8C210C9
:102C80005021A0F8C4101C21A0F8C6100021C0F8E3
:102C9000C81080F8CC106549C0F8D0106449C0F85D
:102CA000D41028205B49A1F8D8001C215948A0F86D
:102CB000DA105021A0F8DC103821A0F8DE10012134
:102CC000C0F8E010002180F8E4105849C0F8E8107E
:102CD0005749C0F8EC1028204E49A1F8F0003821DF
:102CE0004C48A0F8F2105021A0F8F4105421A0F89C
:102CF000F6100221C0F8F810002180F8FC104B49B2
:102D0000C0F800114A49C0F8041128204149A1F82F
:102D1000080154213F48A0F80A115021A0F80C11D5
:102D20007021A0F80E110321C0F81011002180F8C5
:102D300014113E49C0F818113D49C0F81C11282053
:102D40003449A1F8200170213248A0F82211502105
:102D5000A0F824118C21A0F826110421C0F8281114
:102D6000002180F82C113149C0F830113049C0F8E9
:102D7000341128202749A1F838018C212548A0F8D2
:102D80003A115021A0F83C11A821A0F83E110521CC
:102D9000C0F84011002180F844112449C0F84811BE
:102DA0002349C0F84C1128201A49A1F85001A82144
:102DB0001848A0F852115021A0F85411C421A0F8CD
:102DC00056110621C0F85811002180F85C111749EE
:102DD000C0F860111649C0F8641128200D49A1F807
:102DE0006801C4210B48A0F86A115021A0F86C11A9
:102DF0000B4801880748A0F86E110821C0F870112F
:102E0000002180F874110949C0F878110849C0F808
:102E10007C11704720010020AD09000869080008F6
:102E20001A0000209908000815080008310A000857
:102E30004908000870B505460E4600243BE004EB47
:102E400044001F4901EBC0008088A84231DD04EB3B
:102E5000440031F83000A8422BDA04EB440001EBC7
:102E6000C000C088B04224DD04EB440001EBC00088
:102E70004088B0421DDA002004EB4401104A02EB06
:102E8000C101087304EB44020D4B03EBC20004EBD9
:102E9000440203EBC2021169884704EB4402084B69
:102EA00003EBC20004EB440203EBC2025169884702
:102EB00003E0601CC4B2102CC1DB00BF70BD000079
:102EC0002001002021B1828942F40052828104E075
:102ED00082894DF6FF731A408281704700B585B034
:102EE00001210420FFF748FA01218803FFF744FA83
:102EF0004FF40070ADF8100018208DF81300032077
:102F00008DF8120004A91348FEF719F94FF48060F8
:102F1000ADF8100004208DF8130004A90D48FEF749
:102F20000EF94FF4E13000900020ADF80400ADF848
:102F30000600ADF80800ADF80C000C20ADF80A0052
:102F40006946054800F018F801210348FFF7BAFF69
:102F500005B000BD000801400038014002460020D5
:102F6000B1F5007F00D100BF13880B400BB10120E9
:102F700000E00020704700002DE9F04786B00546CC
:102F80000E460024A24600BFA1460027B08900B12A
:102F900000BF2F462C8A4CF6FF700440F088044393
:102FA0002C82AC894EF6F3100440B0883189084376
:102FB000718908430443AC81AC8A4FF6FF4004405A
:102FC000B0890443AC8201A8FFF7E6F91F488742A5
:102FD00002D1DDF810A001E0DDF80CA0A88900F412
:102FE000004040B10AEBCA0000EB0A10316849000A
:102FF000B0FBF1F807E00AEBCA0000EB0A103168F9
:103000008900B0FBF1F86420B8FBF0F0040120095E
:10301000642101FB1089A88900F4004040B13220EE
:1030200000EBC900B0FBF1F000F00700044308E03A
:10303000322000EB09106421B0FBF1F000F00F002A
:1030400004432C8106B0BDE8F08700000038014041
:10305000C1F308028280704700BFFEE72DE9F0410E
:1030600005460C4616460127B4F90010B4F91020A5
:10307000891AB4F90A30B4F912209A1A5143B4F9F2
:103080000820B4F91030D31AB4F902C0B4F91220F0
:10309000ACEB020203FB1210FDF728FAB06100212D
:1030A000B069FDF789FA01D10027C3E0B5F9001036
:1030B000B5F91020891AB4F90A30B4F912209A1A15
:1030C0005143B5F90820B5F91030D31AB4F902C04C
:1030D000B4F91220ACEB020203FB1210FDF706FA62
:1030E0003060B4F90010B4F91020891AB5F908203D
:1030F000B5F91030D21A5143B5F90020D21AB4F9FB
:103100000830B4F910C0A3EB0C0302FB1310FDF759
:10311000EDF97060B4F91010B5F908205143B4F915
:103120000820B5F9103002FB1311B4F90220514305
:10313000B4F900205A43B4F91030B5F900C003FBCC
:103140001C23B4F90A2003FB0212B4F9081001FB96
:103150000CF1B4F90030B5F908C003FB1C13B4F945
:10316000121003FB0120FDF7C1F9B060B5F9022090
:10317000B5F91210511AB4F90A30B4F912209A1A9A
:103180005143B5F90A30B5F912209B1AB4F902C0BF
:10319000B4F91220ACEB020203FB1210FDF7A6F902
:1031A000F060B4F90010B4F91020891AB5F90A30AA
:1031B000B5F912209A1A5143B5F90230B5F9122027
:1031C0009A1AB4F90830B4F910C0A3EB0C0302FB4F
:1031D0001310FDF78BF93061B4F91010B5F90A201E
:1031E0005143B4F90830B5F9122003FB1211B4F9B8
:1031F00002205143B4F90020B5F912305A43B4F912
:103200001030B5F902C003FB1C23B4F90A2003FBFC
:103210000213B4F9081001FB0CF1B4F900C0B5F9C0
:103220000A200CFB1212B4F9121002FB0130FDF758
:103230005DF970613846BDE8F08101B5002007E016
:103240000C2100BF0A1EA1F10103D9B2FAD1401C22
:1032500000998842F4D308BD2DE9FC5F05460C4671
:103260000126684600F0C2F8002865D0BDF90200CA
:10327000FDF73CF983463248007800EB400004EB50
:10328000C00041685846FCF7E0FF8146BDF90000E8
:10329000FDF72CF983462A48007800EB400054F8EB
:1032A00030105846FCF7D1FF82464946FCF775FFBF
:1032B00080462348007800EB400004EBC0008168A2
:1032C0004046FCF76AFF0746FDF719F900B228806F
:1032D000BDF90200FDF70AF983461948007800EBB2
:1032E000400004EBC00001695846FCF7AEFF814680
:1032F000BDF90000FDF7FAF883461148007800EBAD
:10330000400004EBC000C1685846FCF79EFF8246AF
:103310004946FCF742FF80460948007800EB400030
:1033200004EBC00041694046FCF737FF0746FDF754
:10333000E6F800B2688000E000263046BDE8FC9F59
:103340001C00002008B501214FF4C070FFF714F8ED
:103350008020ADF8000001208DF8020010208DF8CB
:10336000030069461B48FDF7EAFE4FF40060ADF824
:10337000000069461848FDF7E2FE4020ADF8000065
:1033800001208DF8020048208DF80300694612489C
:10339000FDF7D5FE4FF48060ADF8000001208DF8F8
:1033A000020010208DF8030069460B48FDF7C7FEA8
:1033B0004FF480610848FDF756FF4FF40070ADF8F8
:1033C000000048208DF8030069460348FDF7B7FE6A
:1033D00008BD000000200140001C014010B504465B
:1033E000204600F031FC00F0C3F810BD2DE9F04795
:1033F0008CB00646002528216846FCF7BCFE00BFBD
:103400000AA90BA800F0A0F8BDF92C002DF81500B2
:10341000BDF9281005A820F81510681CC5B24FF496
:1034200000714748FDF716FF08B90A2DE8DB4FF495
:1034300000714348FDF70EFF10B1002041490870AC
:103440000A2D7BD1BDF90070B846BDF91490CA466B
:1034500001240EE03DF91400B84202DA3DF914707F
:1034600005E03DF91400404501DD3DF91480601C84
:10347000C4B20A2CEEDB012412E005A830F91400D6
:10348000484503DA05A830F9149007E005A830F99B
:103490001400504502DD05A830F914A0601CC4B228
:1034A0000A2CEADBBDF90000BDF902100844BDF9A1
:1034B00004100844BDF906100844BDF9081008447A
:1034C000BDF90A100844BDF90C100844BDF90E10EE
:1034D0000844BDF910100844BDF912100844C01B7F
:1034E000A0EB0800C01000B23080BDF91410BDF987
:1034F00016000144BDF918000144BDF91A00014449
:10350000BDF91C000144BDF91E000144BDF92000B5
:103510000144BDF922000144BDF924000144BDF974
:1035200026000844A0EB0900A0EB0A00C01000B27E
:10353000708001200CB0BDE8F087FFE70020F9E7BC
:10354000001C0140E80000202DE9F04104460D4632
:103550009020FFF743FF06B20120FFF76EFED02058
:10356000FFF73CFF07B226802F80BDE8F081000006
:1035700070B500254FF400611048FDF774FE8021FE
:103580000F48FDF772FE002414E080210C48FDF77F
:103590006AFE40210948FDF75DFE0646C4F10B00B6
:1035A00006FA00F0284385B280210548FDF75DFE4C
:1035B000601CC4B20C2CE8DB284670BD001C014026
:1035C0000020014010B500242848007820B10128CF
:1035D00012D0022842D131E04FF400712448FDF7A7
:1035E00039FE20B9012021490870002403E00020A1
:1035F0001E490870002436E04FF400711C48FDF7A6
:1036000029FEA0B91B480068401C1A4908600846FA
:103610000068022806D900200860022013490870BB
:1036200001240AE0012011490870002405E000206F
:10363000104908600D490870002414E04FF400712F
:103640000B48FDF707FE20B9022008490870012445
:1036500003E0002005490870002404E0002003492D
:103660000870002400BF00BF204610BDE900002004
:10367000001C0140EC00002038B50446B4F90400F9
:10368000401C20B9B4F90400401C00B938BD628860
:1036900091B2228890B2FFF7D7F907480090B4F9A9
:1036A0000230B4F90020B4F90610B4F90400FDF7B3
:1036B000E1FB00BFEAE700001401002010B5FFF7AE
:1036C00081FF012819D12020154908600120091D1A
:1036D00008600220091F086012491348FFF7BCFD6B
:1036E00000BF00BF1048FFF7C7FF0F4800880E4912
:1036F000888008464088C88011E02020084908607A
:10370000012008600220091D0860074800F00EF83B
:103710004FF0FF300449088048808880C88010BD81
:10372000100C014028000020F000002010B50446D5
:10373000B4F90400401C20B9B4F90400401C00B9DD
:1037400010BDE28891B2A28890B2FFF773FB00BF70
:10375000F6E700002DE9F04FB9B004464FF000093C
:10376000CA4600201E901D900026FE48FEF77CFDF4
:1037700000211F20FEF76EFD2046FEF74FF9FA48A4
:1037800000888010ADF85400F84800888010ADF82B
:103790005600BDF85400ADF85C00F448008800EB1A
:1037A0004000801001B215A84181EF48008800EB6D
:1037B0004000801000B2ADF8640015A84189418234
:1037C000BDF86400ADF86C00BDF8561015A8418333
:1037D000002558E0E5480388E348028800210846B0
:1037E000FDF782FDE2A6FEF729FD8088DE49098803
:1037F00091FBF0F83046FCF7C9FCA8EB0000470845
:1038000020233A46E0A11FA8009600F063FAD749AA
:10381000098848101FA9FDF715FEFEF70FFD8088E7
:10382000D149098891FBF0F0471E681C009007EB16
:10383000D77042102023D6A11FA800F04BFAFEF744
:10384000FDFCC088C9490988C0EB610087B21FA987
:103850003846FDF7F7FDD048FFF7EFFC15AA02EB5D
:10386000C502528891B215AA32F8352090B2FDF700
:1038700013FF00BF0DA901EBC500FFF7B7FD00283E
:10388000F8D0681CC5B2042DA4DB06AA0DA915A8A2
:10389000FFF7E4FB00210C98FCF78EFE00D143E11A
:1038A000BDF94E00FCF722FE03900799FCF7CDFC12
:1038B0008346BDF94C00FCF719FE03900699FCF70E
:1038C000C4FC59460490FCF768FC80460899FCF754
:1038D00064FC05900C99FCF7EAFC0746FCF728FE0F
:1038E0001FFA80F9BDF94E00FCF700FE03900A991B
:1038F000FCF7ABFC0590BDF94C00FCF7F7FD03901D
:103900000999FCF7A2FC04900599FCF746FC834654
:103910000B99FCF742FC80460C99FCF7C8FC074663
:10392000FCF706FE1FFA80FABDF96C00484504DA80
:10393000BDF96C00A9EB000003E0BDF96C00A0EB41
:10394000090080B21E90BDF96E00504504DABDF941
:103950006E00AAEB000003E0BDF96E00A0EB0A00C8
:1039600080B21D901E980F2802DC1D980F2800DDE4
:10397000DAE00C98FCF7F0FDCDE902010698FCF7BF
:10398000EBFD07460022854BFCF7CFFCCDE900019B
:10399000DDE90223FCF73BFDCDE90401FCF7EFFD77
:1039A00004EB44017E4A42F831000C98FCF7D4FD48
:1039B000CDE902010798FCF7CFFD07460022774BBF
:1039C000FCF7B3FCCDE90001DDE90223FCF71FFDA4
:1039D000CDE90401FCF7D3FD04EB4401704A02EB8E
:1039E000C10148600C98FCF7B7FDCDE902010898C9
:1039F000FCF7B2FD07460022684BFCF796FCCDE9C8
:103A00000001DDE90223FCF702FDCDE90401FCF72A
:103A1000B6FD04EB4401624A02EBC10188600C98D8
:103A2000FCF79AFDCDE904010998FCF795FD002209
:103A30005A4BCDE90001FCF778FCCDE90201DDE944
:103A40000423FCF7E4FC0746FCF799FD04EB440172
:103A5000534A02EBC101C8600C98FCF77DFDCDE92B
:103A600004010A98FCF778FD00224C4BCDE90001D7
:103A7000FCF75BFCCDE90201DDE90423FCF7C7FCA0
:103A80000746FCF77CFD04EB4401454A02EBC1010B
:103A900008610C98FCF760FDCDE902010B98FCF77A
:103AA0005BFD00223D4BCDE90001FCF73EFC0746E3
:103AB000DDE90223FCF7ABFCCDE90401FCF75FFD77
:103AC00004EB4401364A02EBC101486127480388F0
:103AD0002548028800210846FDF706FC4FF4FC60EB
:103AE000FEF7C8FB2FA6FEF7A9FB80881E490988B0
:103AF00091FBF0F83046FCF749FBA8EB00004708C3
:103B000020233A4620A11FA8009600F0E3F81749A9
:103B1000098848101FA9FDF795FC2748FFF78DFB82
:103B2000012039B0BDE8F08F104803880E480288A4
:103B300000210846FDF7D8FB4FF47840FEF79AFBCA
:103B40001EA6FEF77BFB80880749098891FBF0F8E9
:103B50003046FCF71BFBA8EB0000470820233A4641
:103B600009A133E0F8000020180000201A0000200E
:103B7000546F7563682043616C696272617465207B
:103B80002E2E2E2E2E2E0000252A632573000000D7
:103B9000252A632564000000E09304000000F03F44
:103BA0002800002043616C6962726174652053755E
:103BB000636365640000000040420F0043616C696C
:103BC0006272617465206661696C00001FA80096CE
:103BD00000F080F81649098848101FA9FDF732FC4B
:103BE00014A6FEF72BFB80881549098891FBF0F895
:103BF0003046FCF7CBFAA8EB0000470820233A46F2
:103C0000AFF27C011FA8009600F064F8FEF716FBE7
:103C1000C0880749098800EB610087B21FA93846B0
:103C2000FDF710FC0748FFF708FB002079E70000CC
:103C30001A00002074727920616761696E000000CB
:103C40001800002040420F0070B505464FF4006197
:103C50001648FDF708FB80211548FDF704FB0024FA
:103C600021E0C4F1070045FA00F000F0010028B19E
:103C70004FF400610D48FDF7F8FA04E04FF40061DD
:103C80000A48FDF7F0FA0520FFF7D7FA8021084827
:103C9000FDF7EBFA0520FFF7D0FA80210448FDF785
:103CA000E2FA601CC4B2082CDBDB70BD001C0140D2
:103CB000002001400FB4054B10B503A9044A029837
:103CC00000F02CF810BC5DF814FB000069400008FF
:103CD0001C0100200FB4084B10B504A902AA0398D8
:103CE00000F01CF8044602A9002000F0B8F92046B4
:103CF00010BC5DF814FB00005F40000802E008C83B
:103D0000121F08C1002AFAD170477047002001E055
:103D100001C1121F002AFBD1704700002DE9FF4F9F
:103D20008BB088460546002606E025280BD0DDE945
:103D30000D1290476D1C761C28780028F5D10FB025
:103D40003046BDE8F08F0024A146A2460122AE49CC
:103D500000E0044315F8013F203B02FA03F008425B
:103D6000F7D128782A2810D06FF02F022878A0F1F8
:103D70003001092915D809EB890102EB410144F012
:103D8000020400EB01096D1CF0E758F8041B5FEA20
:103D9000010903D544F40054C9F1000944F00204B8
:103DA0006D1C28782E2817D115F8010F44F0040453
:103DB0002A280ED06FF02F022878A0F130010929AF
:103DC0000AD80AEB8A0102EB410100EB010A6D1CE3
:103DD000F2E758F804AB6D1C28786C280FD006DC8D
:103DE0004C2817D068280DD06A2814D104E0742814
:103DF00010D07A280FD10DE044F400140AE044F406
:103E0000801401E044F440146978814202D104F541
:103E100080146D1C6D1C2878692865D006DC00288C
:103E20008DD0632827D0642806D15DE06E2808D0A5
:103E300073282AD0752877D0DDE90D129047761CBB
:103E4000E0E0C4F30250022809D003280DD0D8F8CE
:103E5000001004280DD00E6008F10408D2E0D8F854
:103E60000010F217C1E90062F6E7D8F800100E80E2
:103E7000F2E70E70F0E718F8041B8DF80010002030
:103E80008DF80100EB46012003E058F804BB4FF029
:103E9000FF3061074FF0000701D40AE07F1C57454F
:103EA0000DDA8742FADB1BF807100029F6D106E08D
:103EB0007F1C8742FCDB1BF807100029F8D1DDE9E5
:103EC0000D23A9EB07008146214600F0B1F83044EC
:103ED000C61904E0DDE90D121BF8010B90477F1EA7
:103EE000F8D22146484688E058F8040BC4F3025142
:103EF0004FF00A0B032900D100B2042900D140B2CF
:103F0000002802DA40422D2102E0210505D52B21AF
:103F10008DF82410012104E006E0E10710D02021F3
:103F2000F6E708AF089113E058F8040BC4F3025108
:103F30004FF00A0B032900D180B2042900D1C0B28E
:103F40000021EEE75946FCF741FB303107F8011D2F
:103F50000028F7D1ADEB070000F1200B600702D578
:103F600024F4803401E04FF0010ADA4502DDAAEBC7
:103F70000B0000E00020824600EB0B010898014492
:103F8000A9EB01000A90E00306D4DDE90D232146E8
:103F90000A9800F04DF806444FF0000908E009A91E
:103FA00011F80900DDE90D12904709F10109761CAD
:103FB00008998945F3DBE0030CD5DDE90D232146A3
:103FC0000A9800F035F8064404E0DDE90D123020CF
:103FD0009047761CBAF10001AAF1010AF5DC05E070
:103FE000DDE90D1217F8010B9047761CBBF10001BB
:103FF000ABF1010BF4DC0A982146DDE90D2300F05A
:1040000005F806446D1C97E6092801002DE9F041EA
:10401000044600251E461746880404D405E03946A8
:104020002020B0476D1C641EF9D52846BDE8F081FC
:104030002DE9F041044600251E469046C80301D5EF
:10404000302700E02027880404D505E041463846A3
:10405000B0476D1C641EF9D52846BDE8F0810A689A
:10406000531C0B601070704770B504460D46E1B2EA
:104070000548FEF7EDFF00BF80210348FEF76EFF05
:104080000028F9D0204670BD00380140FDF736FD0C
:10409000FFF758F900210320FCF776FBFEF71EFF1F
:1040A000FEF7EEF808A0FFF705FE1248FFF702FE44
:1040B0000320FDF7B3FC10480078FEF715F901E086
:1040C000FFF7FCFAFCE700000D0A202A2A2A2A2A18
:1040D0002A2A2A2A2A20B4A5C3FEBBADB0E5B3CC58
:1040E000D0F2202A2A2A2A2A2A2A2A2A2A2A200DF3
:1040F0000A0000005C7C00081C000020000000009A
:104100000000000000000000000000000000001897
:1041100018181818180800081800000000000034CB
:104120002424240000000000000000000000000023
:1041300016247F2424247E2424000000000000088C
:104140003E6848681C1612127C10100000000061C6
:10415000D296740810162949C6000000000000001D
:104160003C646438724ACE467F00000000000018AC
:1041700018181800000000000000000000000004F3
:10418000081810303030301010180C0400000020D7
:104190001008080C0404040C081810200000000883
:1041A0000A341C6A08000000000000000000000043
:1041B00000001818187F18181800000000000000F0
:1041C0000000000000000018180830000000000087
:1041D00000000000003C00000000000000000000A3
:1041E000000000000000001818000000000000029D
:1041F00006040C08081010202040000000000000F9
:104200003C6642475B7342663C00000000000000D1
:1042100018784808080808087E0000000000000020
:104220003C460606040810207E0000000000000046
:104230007C0606043C0202067C0000000000000030
:104240000C1C14246444FF0404000000000000005F
:104250007E6060607E0202067C00000000000000BC
:104260001E306048764242623C00000000000000C0
:104270007E0206040C081810300000000000000048
:104280003C6242361C6642423C00000000000000D6
:104290003C664242661A02047800000000000000FA
:1042A00000001818000000181800000000000000AE
:1042B0000000181800000018180830000000000066
:1042C000000004183060100C060000000000000020
:1042D000000000007E007E000000000000000000E2
:1042E0000000301804060C10200000000000003010
:1042F0001C06060618100010100000000000001C2C
:10430000224141DDB5A5A5AF94C0403C00000000AE
:10431000181C342426627E43C10000000000000007
:104320007C4642467C4242427C0000000000000085
:104330001E204040404040603E0000000000000061
:104340007C464243434342467800000000000000A0
:104350007E6060607E6060607E00000000000000A3
:104360007E6060607E6060606000000000000000B1
:104370001E604040CE4242623E000000000000004D
:10438000424242427E42424242000000000000009F
:104390007E181818181818187E0000000000000079
:1043A0007C040404040404447800000000000000BD
:1043B0004244485070584C44420000000000000045
:1043C00020202020202020203E00000000000000AF
:1043D0006266675F5B5BC1C1C10000000000000056
:1043E000626272525A4A4E464600000000000000C7
:1043F0003C6243C3C3C343623C00000000000000B2
:104400007C464242467840404000000000000000E8
:104410003C6243C3C3C343623C180F00000000006A
:104420007C6662667C6C64666200000000000000CE
:104430003E6040601C0602027C000000000000009C
:104440007F1818181818181818000000000000002D
:1044500042424242424242623C00000000000000F0
:10446000C14342622624341C1800000000000000F2
:10447000C1C141495B5B7666660000000000000038
:1044800043663418181C2466C300000000000000B6
:10449000C14266341C181818180000000000000003
:1044A0007E02040C181020607E0000000000001C3A
:1044B00010101010101010101010101C00000040F0
:1044C0002020101008080C04060200000000003C28
:1044D0000C0C0C0C0C0C0C0C0C0C0C3C000000001C
:1044E000181C246200000000000000000000000012
:1044F0000000000000000000000000FF000000209D
:10450000100000000000000000000000000000009B
:1045100000003C06023E42467A00000000000040D7
:1045200040405C62424242427C00000000000000C9
:1045300000001E20604060203E00000000000002DD
:1045400002023E62424242663A0000000000000061
:1045500000003C62427E40603E0000000000000F10
:104560001810107E10101010100000000000000045
:1045700000003F66426658403E43423C0000004017
:1045800040405C624242424242000000000000188B
:1045900018007808080808087E00000000000004E1
:1045A0000C007C040404040404040C780000006083
:1045B0006060626C787068646200000000000078DF
:1045C00008080808080808087E000000000000002D
:1045D0000000764B4B4B4B4B4B00000000000000A3
:1045E00000005C62424242424200000000000000C3
:1045F00000003C62424342623C00000000000000B8
:1046000000005C62424242427C40404000000000A8
:1046100000003E62424242663A020202000000008E
:1046200000006E72636060606000000000000000C7
:1046300000003E20203C06027C000000000000003C
:104640001010FE10101010101E00000000000000DE
:1046500000004242424242663A0000000000000070
:1046600000004342662434181800000000000000D7
:104670000000C1C15B5A5E666600000000000000D9
:10468000000062261C181C266200000000000000CA
:10469000000043426624341C181830E0000000007B
:1046A00000007E060C1810207E0000000000000EA6
:1046B00018101010307010101010180E000008089C
:1046C000080808080808080808080808000000305A
:1046D000180808080C0E0808080818300000000028
:1046E00000000000714B0600000000000000000008
:1046F00000000000000000000000000000000000BA
:1047000000000000000000000000000000000000A9
:104710000000000000000000000000000000000099
:104720000000000000000380018001800180018002
:10473000018001800180018001800000000003C031
:1047400003C00000000000000000000000000000A6
:104750000000000000000E700E700E700C300000A3
:104760000000000000000000000000000000000049
:104770000000000000000000000000000000000039
:1047800000000000000000000618063806307FFE1A
:104790000C300C300C300C307FFE0C601C6018604C
:1047A0001860000000000000000000000000000091
:1047B0000000000000C000C00FF83CC831C03180CC
:1047C0003D801F8003F001F8031C030C031C3FF81D
:1047D0003FE00700060000000000000000000000AD
:1047E000000000001C007E0E630C631863307E60C6
:1047F00000C001800300077C0EE61CC618C630C648
:10480000607C0000000000000000000000000000CC
:104810000000000000000FE01CF0387038701C60D1
:104820001FC00F003F8C71CC60EC607C70383CFC8A
:104830001FCE00000000000000000000000000008B
:1048400000000000000003C0018001800180000022
:104850000000000000000000000000000000000058
:104860000000000000000000000000000000000048
:1048700000000000003000E001C0018003000700DC
:10488000060006000E000E000E000E0006000700D7
:104890000300038001C000E00030000000000000C1
:1048A000000000000C0006000380018001C000E051
:1048B000006000600070007000700060006000E048
:1048C00000C00180038006000C0000000000000012
:1048D000000000000000018011881DB803C007E03F
:1048E0003DBC0188018000000000000000000000C5
:1048F00000000000000000000000000000000000B8
:1049000000000000000000000000000001800180A5
:104910000180018001807FFE018001800180018093
:104920000000000000000000000000000000000087
:104930000000000000000000000000000000000077
:1049400000000000000000000000000003C003C0E1
:1049500001C001C003801F00000000000000000033
:104960000000000000000000000000000000000047
:104970000000000000000FF0000000000000000038
:104980000000000000000000000000000000000027
:104990000000000000000000000000000000000017
:1049A00000000000000000000000000003C003C081
:1049B00003C0000000000000000000000000000034
:1049C000000000000000001800380030006000E027
:1049D00000C001C001800300030006000E000C00AF
:1049E0001C00180030000000000000000000000063
:1049F00000000000000001800FF01C38381C301C43
:104A0000707E70EE738E7E0E7C0C300C381C1E781F
:104A10000FE00000000000000000000000000000A7
:104A2000000000000000000007C01FC039C001C026
:104A300001C001C001C001C001C001C001C03FFCF4
:104A40003FFC00000000000000000000000000002B
:104A500000000000000003801FF018380038001824
:104A600000380038007001E0038007001C003FFCA4
:104A70003FFC0000000000000000000000000000FB
:104A800000000000000007801FF0003800380038E8
:104A9000003007E007F00038001C001C001820F868
:104AA0003FE00000000000000000000000000000E7
:104AB000000000000000000000F001B003300730EB
:104AC0000E301C30383070307FFE7FFE00300030FA
:104AD00000300000000000000000000000000000A6
:104AE00000000000000000001FF818001800180067
:104AF00018001FE000F8001C001C001C003800F02B
:104B00001FC00000000000000000000000000000C6
:104B1000000000000000000003F80F001C00180057
:104B2000300037F83C3C300C300C380C381C1E3848
:104B30000FF0000000000000000000000000000076
:104B400000000000000000003FFC001C00180038BE
:104B50000070006000E001C00180038007000600D3
:104B60000E00000000000000000000000000000037
:104B700000000000000003C01FF8381C381C381C5F
:104B80001C380FF007F01C78381C300C381C3C38EF
:104B90000FF0000000000000000000000000000016
:104BA00000000000000003801FF03838301C701C2B
:104BB000700C380C1FFC0FCC001C001800701FE09C
:104BC0001F80000000000000000000000000000046
:104BD000000000000000000000000000000003C012
:104BE00003C00180000000000000000003C003C0FB
:104BF00003C00000000000000000000000000000F2
:104C0000000000000000000000000000000003C0E1
:104C100003C00180000000000000000003C003C0CA
:104C200001C001C003800F00000000000000000070
:104C3000000000000000000000000000003800F04C
:104C400001C007001E0038000E00078001C0007080
:104C50000030000000000000000000000000000024
:104C60000000000000000000000000000000000044
:104C700000003FFC000000003FFC3FFC0000000083
:104C80000000000000000000000000000000000024
:104C90000000000000000000000000001C000F00E9
:104CA000038001E00078001C007001E003800E002A
:104CB0000C000000000000000000000000000000E8
:104CC0000000000000000FC000F00038003800387D
:104CD000003803F003800300030000000000078099
:104CE000078000000000000000000000000000003D
:104CF0000000000000E007F80C0C180630067003F6
:104D000063F36633C673CC63CC62CC66CCE6C7FC77
:104D1000E0006000700038101FF00000000000008C
:104D2000000000000000000003C007E006E00E7075
:104D30000E700C301C3818183FFC3FFC700E600ED3
:104D4000E00700000000000000000000000000007C
:104D500000000000000000003FF03838381C381C0C
:104D600038383FF03FF8381C380C380C381C3FF806
:104D70003FE0000000000000000000000000000014
:104D800000000000000000E007FC1E0438003800AE
:104D90003000700070007000300038003C001F9C34
:104DA00007FC000000000000000000000000000000
:104DB00000000000000000003FF03078301C300C94
:104DC000300E300E300E300E300E301C30383FF0CA
:104DD0003FC00000000000000000000000000000D4
:104DE00000000000000000001FF818001800180064
:104DF00018001FF81FF818001800180018001FF8F6
:104E00001FF800000000000000000000000000008B
:104E100000000000000000001FF818001800180033
:104E200018001FF81FF818001800180018001800C4
:104E3000180000000000000000000000000000005A
:104E400000000000000000F007FC1E0438003000E5
:104E50007000700070FC700C700C300C380C1F1C53
:104E600007FC00000000000000000000000000003F
:104E70000000000000000000300C300C300C300C42
:104E8000300C3FFC3FFC300C300C300C300C300C44
:104E9000300C0000000000000000000000000000D6
:104EA00000000000000000003FFC01800180018044
:104EB00001800180018001800180018001803FFC30
:104EC0003FFC0000000000000000000000000000A7
:104ED00000000000000000001FF000300030003033
:104EE00000300030003000300030003000701DE035
:104EF0001FC00000000000000000000000000000D3
:104F00000000000000000000381C387038E039C094
:104F10003B803F003F003B8039C038E03870383874
:104F2000381C00000000000000000000000000002D
:104F300000000000000000001C001C001C001C0001
:104F40001C001C001C001C001C001C001C001FFC82
:104F50001FFC000000000000000000000000000036
:104F60000000000000000000381C7C3C6C3E6E6EAF
:104F7000666E66CE63C663866186600660066006FE
:104F800060060000000000000000000000000000BB
:104F900000000000000000003C0C3C0C3E0C360CF5
:104FA000330C338C318C31CC30EC306C307C303C79
:104FB000301C0000000000000000000000000000A5
:104FC00000000000000001C00FF81C3C381C700EEF
:104FD000700E60066006700E700E700C381C1E7825
:104FE0000FE00000000000000000000000000000D2
:104FF00000000000000000003FF0383C381C380C76
:10500000380C381C38783FE0380038003800380059
:105010003800000000000000000000000000000058
:1050200000000000000001C00FF81C3C381C700E8E
:10503000700E60066006700E700E700C381C1E78C4
:105040000FE0018001C000FF003C000000000000F4
:1050500000000000000000003FF038383818381811
:10506000383838F03FC038E0387038383838381CB5
:10507000380E0000000000000000000000000000EA
:1050800000000000000001E00FF838003800380090
:105090003C001F8003F00078001C001C001C3878C6
:1050A0003FE00000000000000000000000000000E1
:1050B00000000000000000007FFE018001800180F0
:1050C00001800180018001800180018001800180D8
:1050D000018000000000000000000000000000004F
:1050E0000000000000000000300C300C300C300CD0
:1050F000300C300C300C300C300C300C381C1C38A0
:105100000FF00000000000000000000000000000A0
:105110000000000000000000E006700E700E381C59
:10512000381C1C181C380C300E70066007E003C0D9
:1051300003C00000000000000000000000000000AC
:1051400000000000000000006006600660066006C7
:105150006186638673C673CE766C366C3C3C3C3C91
:10516000381C0000000000000000000000000000EB
:105170000000000000000000301C38181C380E70C1
:1051800007E003C003C007E00E701C381838381C55
:10519000700E000000000000000000000000000091
:1051A0000000000000000000700E700C381C1C385D
:1051B0000E70066007E003C001800180018001805D
:1051C000018000000000000000000000000000005E
:1051D00000000000000000003FFC001C00380070D0
:1051E00000E001C0038007000E000C0018003FFC27
:1051F0003FFC000000000000000000000000000074
:105200000000000007F007F0060006000600060098
:10521000060006000600060006000600060006005E
:10522000060006000600060007F00000000000006F
:1052300000000000000018001C000C000600070021
:1052400003000380018001C000C0006000700030D6
:1052500000380018000C00000000000000000000F2
:10526000000000000FE00FE00060006000600060E0
:10527000006000600060006000600060006000602E
:1052800000600060006000600FE0000000000000AF
:10529000000000000000000003C006C006600C30E3
:1052A0001818301C00000000000000000000000082
:1052B00000000000000000000000000000000000EE
:1052C00000000000000000000000000000000000DE
:1052D00000000000000000000000000000000000CE
:1052E0000000000000000000FFFF000000000000C0
:1052F0000000000000001E0003800000000000000D
:10530000000000000000000000000000000000009D
:10531000000000000000000000000000000000008D
:1053200000000000000000000000000000001FF06E
:105330001038001C001C0FFC1C1C381C381C3CFCCA
:105340001FDC000000000000000000000000000062
:1053500000000000000038003800380038003BF83A
:105360003E1C3C1C380C380C380C380C381C3C7873
:105370001FE000000000000000000000000000002E
:10538000000000000000000000000000000007F81E
:105390000E001C0038003800380038001C000F18C0
:1053A00007F80000000000000000000000000000FE
:1053B000000000000000001C001C001C001C0FFC72
:1053C0001C1C381C301C301C301C301C383C1CFC95
:1053D0000F9C000000000000000000000000000022
:1053E00000000000000000000000000000000FF0BE
:1053F0001C38381C300C3FFC3000300038001E0CCC
:1054000007FC000000000000000000000000000099
:1054100000000000003C01FE0380030003000300C5
:105420007FFC7FFC03000300030003000300030074
:105430000300000000000000000000000000000069
:1054400000000000000000000000000000000FFE4F
:105450001C383818381818381FF03B8030003FF0DF
:105460001FFC300E700E381C1FF8000000000000FA
:1054700000000000000038003800380038003BF819
:105480003E383C1C381C381C381C381C381C381C56
:10549000381C0000000000000000000000000000B8
:1054A00000000000018003C003C0000000001FC016
:1054B00001C001C001C001C001C001C001C001C0E4
:1054C0003FFC0000000000000000000000000000A1
:1054D00000000000002000700070000000003FF09D
:1054E000007000700070007000700070007000703C
:1054F00000700070007020E03FC00000000000005D
:105500000000000000001800180018001800183CE7
:10551000187018E01B801F001B8019E018701838E5
:10552000181C000000000000000000000000000047
:105530000000000000001FC001C001C001C001C088
:1055400001C001C001C001C001C001C001C001C053
:105550003FFC000000000000000000000000000010
:1055600000000000000000000000000000006F3C90
:1055700079EE71CE718E718E718E718E718E718E8B
:10558000718E00000000000000000000000000001C
:1055900000000000000000000000000000003BF8D8
:1055A0003E383C1C381C381C381C381C381C381C35
:1055B000381C000000000000000000000000000097
:1055C00000000000000000000000000000000FF0DC
:1055D0001C3C381C700E700E700E700C381C1E783F
:1055E0000FE00000000000000000000000000000CC
:1055F00000000000000000000000000000003BF878
:105600003E1C3C1C380C380C380C380C381C3C78D0
:105610003FE038003800380038000000000000008B
:1056200000000000000000000000000000000FFC6F
:105630001C1C381C301C301C301C301C383C1CFC22
:105640000F9C001C001C001C001C0000000000003F
:10565000000000000000000000000000000019F839
:105660001F1C1C0C180E1800180018001800180039
:105670001800000000000000000000000000000012
:1056800000000000000000000000000000000FF813
:105690001C0018001E000FC001F800180018183870
:1056A0001FF00000000000000000000000000000EB
:1056B00000000000000000000600060006007FFC5D
:1056C0000600060006000600060006000700078424
:1056D00001FC0000000000000000000000000000CD
:1056E0000000000000000000000000000000381C66
:1056F000381C381C381C381C381C381C383C1CFC26
:105700000FDC0000000000000000000000000000AE
:105710000000000000000000000000000000700C0D
:10572000381C38181C380C300E70066007E003C0B7
:1057300003C00000000000000000000000000000A6
:1057400000000000000000000000000000006006F3
:1057500060066186738E73CC33CC366C366C3C3C01
:105760003C380000000000000000000000000000C5
:105770000000000000000000000000000000381CD5
:105780001C380E7007E003C003C007E00E701C3821
:10579000381E0000000000000000000000000000B3
:1057A0000000000000000000000000000000700C7D
:1057B000381C38181C380C300E70066007E003C027
:1057C00003C0038007000E007C0000000000000002
:1057D00000000000000000000000000000001FF8B2
:1057E0000038007000E001C0038007000C001FFCBF
:1057F0003FFC00000000000000000000000000006E
:1058000000000000007801F803800380038003801B
:10581000038003003F003E000300038003800380F9
:1058200003800380038001C000F800000000000036
:105830000180018001800180018001800180018060
:105840000180018001800180018001800180018050
:1058500001800180018001800180000000000000C3
:10586000000000001E001F80018001C001C001C0B7
:1058700001C000C000FC007C00C001C001C001C02C
:1058800001C001C001C003801F0000000000000033
:105890000000000000000000000000000000000008
:1058A00000001C003F0671CE60FC000000000000FC
:1058B00000000000000000000000000000000000E8
:1058C00000000000000000000000000000000000D8
:1058D00000000000000000000000000000000000C8
:1058E00000000000000000000000000000000000B8
:1058F00000000000000000000000000000000000A8
:105900000000000000000000000000000000000097
:105910000000000000000000000000000000000087
:105920000000000000000000000000000000003C3B
:1059300000003C00003C00003C00003C00003C003B
:10594000003C00003C00003C00003C00003C00002B
:105950003C00003C00003C00000000000000003C57
:1059600000007E00003C000000000000000000007D
:105970000000000000000000000000000000000027
:10598000000000000000000000000000000003C351
:10599000E003C3E003C3C003C3C003C3C003C3C069
:1059A00003C1C00000000000000000000000000073
:1059B00000000000000000000000000000000000E7
:1059C00000000000000000000000000000000000D7
:1059D00000000000000000000000000000000000C7
:1059E00000000000000000000000000000000000B7
:1059F0000000000001E0E001C0E001C0E001C0E003
:105A00003FFFFE3FFFFE03C1C00381C00381C0030F
:105A100081C07FFFFC7FFFFC0783800703800703B3
:105A200080070380070780000000000000000000DE
:105A30000000000000000000000000000000000066
:105A40000000000000000000000000000700000F40
:105A500000000E0001FFF007FFF01F0E001E1E00E9
:105A60001E1C001E1C000FDC0007FC0000FF800055
:105A70003FF00038F800387800783C0070783071DA
:105A8000F83FFFE01FFF0000E00000E00000E00042
:105A90000000000000000000000000000000000006
:105AA00000000000000000000000000000000F8067
:105AB0000F3FE01E78703C7070707070E07071C0C5
:105AC0003FE3801FC700000E00001C0000780000AC
:105AD000F0F001E7FC03CF0E078E0E0F0E0E1E0E28
