:020000040800F2
:1000000018040020450100083104000861030008BD
:100010002D0400082F0200080D0800080000000051
:10002000000000000000000000000000290500089A
:100030003302000800000000330400081506000821
:100040005F0100085F0100085F0100085F01000810
:100050005F0100085F0100085F0100085F01000800
:100060005F0100085F0100085F0100085F010008F0
:100070005F0100085F0100085F0100085F010008E0
:100080005F0100085F0100085F0100085F010008D0
:100090005F0100085F0100085F0100085F010008C0
:1000A0005F0100085F0100085F0100085F010008B0
:1000B0005F0100085F0100085F0100085F010008A0
:1000C0005F0100085F0100085F0100085F01000890
:1000D0005F0100085F0100085F0100085F01000880
:1000E0005F0100085F0100085F0100085F01000870
:1000F0005F0100085F0100085F0100085F01000860
:100100005F0100085F0100085F0100085F0100084F
:100110005F0100085F0100085F0100085F0100083F
:100120005F0100085F0100085F0100085F0100082F
:10013000DFF80CD000F04AF800480047410D0008F5
:10014000180400200648804706480047FEE7FEE7FF
:10015000FEE7FEE7FEE7FEE7FEE7FEE7FEE7FEE777
:1001600019060008310100082DE9F05F054600205E
:1001700092469B4688460646814640241BE0284618
:1001800041464746224600F042F853465A46C01AB6
:10019000914110D311461846224600F029F82D1A35
:1001A00067EB01084F4622460120002100F020F8AD
:1001B00017EB00094E41201EA4F10104DFDC484684
:1001C00031462A464346BDE8F09F0000064C074DE5
:1001D00006E0E06840F0010394E807009847103417
:1001E000AC42F6D3FFF7A8FFE00E0008000F0008AE
:1001F000202A04DB203A00FA02F1002070479140E7
:10020000C2F1200320FA03F3194390407047202ADB
:1002100004DB203A21FA02F00021704721FA02F3B0
:10022000D040C2F12002914008431946704700BFF8
:10023000FEE770472DE9F041024600250026002028
:1002400000230024002791F803C00CF00F0591F85B
:1002500003C00CF0100CBCF1000F03D091F802C0E9
:100260004CEA050591F800C0BCF1000F31D01468CC
:1002700000202BE04FF0010C0CFA00F3B1F800C0A5
:100280000CEA03069E4220D183004FF00F0C0CFABB
:1002900003F7BC4305FA03FC4CEA040491F803C0DD
:1002A000BCF1280F06D14FF0010C0CFA00FCC2F88B
:1002B00014C00AE091F803C0BCF1480F05D14FF01B
:1002C000010C0CFA00FCC2F810C0401C0828D1D365
:1002D0001460B1F800C0BCF1FF0F34DD5468002099
:1002E0002EE000F1080C4FF0010808FA0CF3B1F809
:1002F00000C00CEA03069E4221D183004FF00F0C90
:100300000CFA03F7BC4305FA03FC4CEA040491F829
:1003100003C0BCF1280F05D100F1080C08FA0CF855
:10032000C2F8148091F803C0BCF1480F07D100F166
:10033000080C4FF0010808FA0CF8C2F81080401CB5
:100340000828CED35460BDE8F081024600209368AF
:100350000B400BB1012000E00020704701617047A5
:1003600000BFFEE708B50121142000F063F801206A
:10037000ADF8000004208DF8030069460748FFF738
:1003800059FF4FF40050ADF8000004208DF8030031
:1003900069460348FFF74EFF08BD00000008014012
:1003A0000010014070B504460D4629462046FFF76F
:1003B000CCFF012808D100BF29462046FFF7C5FF22
:1003C0000128F9D0012070BD0020FCE708B501210B
:1003D000082000F02FF82020ADF8000010208DF844
:1003E000030003208DF8020069460F48FFF722FF43
:1003F0000120ADF8000069460B48FFF71BFF022003
:10040000ADF8000069460848FFF714FF20210648B0
:10041000FFF7A4FF01210448FFF7A0FF02210248D3
:10042000FFF79CFF08BD0000000C014000BFFEE785
:100430007047704729B1064A92690243044B9A619A
:1004400004E0034A92698243014B9A6170470000BD
:100450000010024030B500210022002400232D4D61
:100460006D6805F00C0121B1042905D0082923D1BC
:1004700005E0294D056022E0274D05601FE0254D70
:100480006D6805F47012234D6D6805F48034022503
:1004900005EB92421CB9214D554305600BE01D4D03
:1004A0006D6805F400351DB11C4D5543056002E033
:1004B000194D5543056002E0174D056000BF00BFB0
:1004C000144D6D6805F0F0010909154D6B5C056868
:1004D000DD4045600F4D6D6805F4E061090A104D7F
:1004E0006B5C4568DD4085600A4D6D6805F46051C0
:1004F000C90A0B4D6B5C4568DD40C560054D6D68F4
:1005000005F44041890B074D6B5CC568B5FBF3F5FD
:10051000056130BD0010024000127A0000093D0064
:100520000000002010000020704710B500F002F815
:1005300010BD00000CB50020019000903348006809
:1005400040F480303149086000BF3048006800F452
:10055000003000900198401C0190009818B9019853
:10056000B0F5A06FF1D12948006800F4003010B157
:100570000120009001E0002000900098012843D164
:100580002348006840F010002149086008460068D0
:1005900020F0030008600846006840F00200086090
:1005A0001A4840681949486008464068486008464B
:1005B000406840F4806048600846406820F47C1041
:1005C00048600846406840F4E81048600846006803
:1005D00040F08070086000BF0C48006800F00070B8
:1005E0000028F9D00948406820F003000749486016
:1005F0000846406840F00200486000BF0348406879
:1006000000F00C000828F9D10CBD000000100240D9
:10061000002002407047000010B51348006840F009
:1006200001001149086008464068104908400E4919
:100630004860084600680E4908400B4908600846B3
:10064000006820F4802008600846406820F4FE001E
:1006500048604FF41F008860FFF767FF4FF00060AD
:100660000449086010BD0000001002400000FFF8BF
:10067000FFFFF6FE08ED00E021B1828942F400524E
:10068000828104E082894DF6FF731A4082817047AF
:1006900000B585B001210420FFF7CCFE01218803BD
:1006A000FFF7C8FE4FF40070ADF8100018208DF869
:1006B000130003208DF8120004A91348FFF7BAFDB8
:1006C0004FF48060ADF8100004208DF8130004A9E9
:1006D0000D48FFF7AFFD4FF4E13000900020ADF87A
:1006E0000400ADF80600ADF80800ADF80C000C20D1
:1006F000ADF80A006946054800F018F801210348E2
:10070000FFF7BAFF05B000BD000801400038014006
:1007100002460020B1F5007F00D100BF13880B40D6
:100720000BB1012000E00020704700002DE9F047E8
:1007300086B005460E460024A24600BFA14600270B
:10074000B08900B100BF2F462C8A4CF6FF700440E0
:10075000F08804432C82AC894EF6F3100440B08834
:1007600031890843718908430443AC81AC8A4FF650
:10077000FF400440B0890443AC8201A8FFF76AFE41
:100780001F48874202D1DDF810A001E0DDF80CA07F
:10079000A88900F4004040B10AEBCA0000EB0A103F
:1007A00031684900B0FBF1F807E00AEBCA0000EB42
:1007B0000A1031688900B0FBF1F86420B8FBF0F052
:1007C00004012009642101FB1089A88900F400407C
:1007D00040B1322000EBC900B0FBF1F000F007009F
:1007E000044308E0322000EB09106421B0FBF1F073
:1007F00000F00F0004432C8106B0BDE8F087000034
:1008000000380140C1F308028280704700BFFEE754
:1008100070B504460D4629462046FFF7F3FF00BF9A
:1008200080212046FFF774FF0028F9D070BD70B515
:1008300006460C46002500BF615D3046FFF7E8FF25
:100840006D1C605D0028F7D100BF40213046FFF7E6
:100850005FFF0028F9D070BD0FB4054B10B503A998
:10086000044A029800F018F810BC5DF814FB000070
:100870001D0D00081400002002E008C8121F08C166
:10088000002AFAD170477047002001E001C1121F11
:10089000002AFBD1704700002DE9FF4F8DB00F46B5
:1008A0000546002606E025280BD0DDE90F1290470B
:1008B0006D1C761C28780028F5D111B03046BDE8B3
:1008C000F08F0024A246A1460122EC4900E0044337
:1008D00015F8013F203B02FA03F00842F7D12878CF
:1008E0002A2810D06FF02F022878A0F130010929B2
:1008F00014D80AEB8A0102EB410144F0020400EB38
:10090000010A6D1CF0E701CF5FEA000A03D544F449
:100910000054CAF1000A44F002046D1C28782E2805
:1009200017D115F8010F44F004042A280ED06FF0F7
:100930002F022878A0F1300109290AD809EB890192
:1009400002EB410100EB01096D1CF2E757F8049B33
:100950006D1C28786C280FD006DC4C2817D068282E
:100960000DD06A2814D104E0742810D07A280FD151
:100970000DE044F400140AE044F4801401E044F46F
:1009800040146978814202D104F580146D1C6D1CFD
:100990002A786E2A1FD00CDC632A31D004DC002AAE
:1009A0008BD0582A11D1A3E0642A68D0692A0CD1CF
:1009B00065E0732A2ED004DC6F2A73D0702A04D12C
:1009C0009BE0752A6FD0782A6ED01046DDE90F12B1
:1009D0009047761C50E1C4F30250022806D0032849
:1009E00009D0042801CF09D0066045E101CFF117F5
:1009F000C0E9006140E101CF06803DE106703BE1C6
:100A000017F8040B8DF8000000208DF80100EB466C
:100A1000012003E057F804BB4FF0FF3061074FF0AF
:100A2000000102D40DE008F10101884649450FDAC2
:100A30008045F8DB1BF808100029F4D108E008F124
:100A4000010188468142FADB1BF808100029F6D123
:100A5000DDE90F23AAEB08008146214600F036F9B4
:100A6000304400EB080604E0DDE90F121BF8010B2F
:100A70009047B8F10108F7D221464846F7E00A212D
:100A8000C4F302534FF0000B0891022B04D001CFA6
:100A9000C117032B09D00AE0FF1D27F00707F7E86D
:100AA000020108E032E01FE020E000B2C117042B91
:100AB00001D140B2C117031E71F1000307DA4FF0F4
:100AC000000CD0EB0C006CEB01012D2302E02305A0
:100AD00004D52B238DF82430012303E0E30701D054
:100AE0002023F7E7984658E00A2110E010210EE095
:100AF00010204FF0000B08900CE010214FF0000B7D
:100B000044F004044FF00809089103E008214FF075
:100B1000000B0891C4F30253022B04D001CF002133
:100B2000032B06D006E0FF1D27F00707F7E80201B8
:100B300003E080B2042B00D1C0B24FF000082307BD
:100B40002BD5702A07D0DDF820C08CF0100C5CEAA1
:100B50000B0C05D00EE040238DF82430012308E073
:100B600050EA010306D030238DF824308DF825207B
:100B700002239846DDF820C08CF0080C5CEA0B0CD0
:100B80000BD150EA010301D1630706D530238DF85C
:100B900024304FF00108A9F10109582A04D038A2E5
:100BA0000B9208AA0A920BE03AA2F9E75B46089A70
:100BB000FFF7DAFA0B9B9B5C0A9A521E0A9213709B
:100BC00050EA0102F2D10A98ADEB000000F1200BCF
:100BD000600702D524F4803401E04FF00109D945C3
:100BE00002DDA9EB0B0000E0002000EB0B0141440B
:100BF0000890AAEB010AE00306D4DDE90F232146A1
:100C0000504600F063F806444FF0000908E009A9D7
:100C100011F80900DDE90F12904709F10109761C6E
:100C2000C145F4DBE0030CD5DDE90F232146504636
:100C300000F04CF8064404E0DDE90F123020904744
:100C4000761C0899481E08900029F5DC08E00A98EF
:100C50000A990078491C0A91DDE90F129047761C29
:100C6000BBF10001ABF1010BF1DC21465046DDE99F
:100C70000F2300F019F806446D1C1BE6092801003B
:100C80003031323334353637383961626364656602
:100C900000000000303132333435363738394142C4
:100CA00043444546000000002DE9F041044600257C
:100CB0001E461746880404D405E039462020B04774
:100CC0006D1C641EF9D52846BDE8F0812DE9F04180
:100CD000044600251E469046C80301D5302700E093
:100CE0002027880404D505E041463846B0476D1CEE
:100CF000641EF9D52846BDE8F081002107E042F6E0
:100D0000E06100BF0A1EA1F1010399B2FAD1021EEF
:100D1000A0F1010398B2F2D17047000070B504460B
:100D20000D46E1B20548FFF76DFD00BF8021034885
:100D3000FFF7EEFC0028F9D0204670BD00380140D6
:100D4000FFF744FBFFF7A4FCA3E020205149086013
:100D5000012008600220091D08604FF47A70FFF737
:100D6000CCFF20204B49091D08600120091F0860A5
:100D7000022008604FF47A70FFF7BFFF202045493A
:100D800008600120091D08600220091F08604FF457
:100D90007A70FFF7B2FF20203E49091D086001204C
:100DA00008600220091F08604FF47A70FFF7A5FF62
:100DB00020203849091D08600120091F0860022011
:100DC000091D08604FF47A70FFF797FF2020314922
:100DD00008600120091D0860022008604FF47A7045
:100DE000FFF78BFF20202B49091D086001200860B8
:100DF000022008604FF47A70FFF77FFF202025491A
:100E0000086001200860022008604FF47A70FFF744
:100E100074FFFFF7A7FA3BE001211F48FFF7C2FA72
:100E2000012817D120201B4908600120091D0860F6
:100E30000220091F08604FF47A70FFF75EFF17A1C8
:100E40002148FFF7F4FC20201249086001200860C7
:100E5000022008604FF400511C48FFF7A3FA012854
:100E600016D120200B49091D08600120091F0860C8
:100E7000022008604FF47A70FFF73FFF14A0FFF7DD
:100E8000EBFC202003490860012008600220086074
:100E9000C2E75AE7100C014000080140E6ACA2E8A6
:100EA000BF8EE78E8BE88C97E8BDA9E58589E4B80D
:100EB000B4E68891E79A8453544D3332E5B08FE518
:100EC000B18B7E0A00000000003801400010014094
:100ED000E6ACA2E8BF8EE58589E4B8B40A0000005C
:100EE000000F00080000002018000000780800082B
:100EF000180F0008180000200004000088080008EF
:100F000000000000010203040102030406070809AF
:080F10000204060800000000C5
:0400000508000131BD
:00000001FF
