:020000040800F2
:1000000028080020450100084D0100084F010008A4
:1000100051010008530100085501000800000000CC
:100020000000000000000000000000005701000870
:1000300059010008000000005B0100085D01000894
:100040005F0100085F0100085F0100085F01000810
:100050005F0100085F0100085F0100085F01000800
:100060005F0100085F0100085F0100085F010008F0
:100070005F0100085F0100085F0100085F010008E0
:100080005F0100085F0100085F0100085F010008D0
:100090005F0100085F0100085F010008FD0500081E
:1000A0005F0100085F0100085F0100085F010008B0
:1000B0002D1100085F0100085F0100085F010008C2
:1000C0005F0100085F0100085F0100085F01000890
:1000D0005F0100085F0100085F0100085F01000880
:1000E0005F0100085F0100085F0100085F01000870
:1000F0005F0100085F0100085F0100085F01000860
:100100005F0100085F0100085F0100085F0100084F
:100110005F0100085F0100085F0100085F0100083F
:100120005F0100085F0100085F0100085F0100082F
:10013000DFF80CD000F0E2F900480047F5120008A3
:10014000280800200648804706480047FEE7FEE7EB
:10015000FEE7FEE7FEE7FEE7FEE7FEE7FEE7FEE777
:10016000CD100008310100082DE9FE4F804681EADC
:100170000300C00F0C46009021F0004123F0004521
:10018000B8EB0200A94105D24046214690461C46E4
:100190000B46024623F00040104347D0270DC7F31B
:1001A0000A00C3F30A510290401A019040286BDA0A
:1001B000C3F3130040F4801B0098924620B1002343
:1001C000D2EB030A63EB0B0B01985946C0F14002D6
:1001D000504600F005F906460D4650465946019A2C
:1001E00000F01DF910EB08006141002487EA11526C
:1001F00084EAE7731A4340D0009A62B3019A012A55
:100200004FEA075215DC001B61EB02014FF0004280
:1002100002EA0752CDE90042001C41F58011324646
:100220002B4600F01DF903B0BDE8F08F4046214693
:10023000F9E7001B61EB0201001C41F58013001877
:100240005B412018A2F5001747EB030140EAD57087
:10025000B6196D4111E06D084FEA360645EAC075E2
:100260004FEA0752001B61EB0201001C41F58011AF
:1002700049084FEA30000019514132462B4603B07D
:10028000BDE8F04F00F0DDB80098012240000023E7
:10029000D0EB020263EBE073009821464FEAE07472
:1002A000B8EB000061EB0401E9E783F000435BE792
:1002B00081F0004158E72DE9F04D81EA030404F094
:1002C000004B21F0004514464FF0000A23F0004196
:1002D00050EA050220D054EA01021DD0C5F30A57A6
:1002E0000246C5F31303C1F31300C1F30A5640F4E9
:1002F000801543F48013A7EB0608101BD64608F2BE
:10030000FD3873EB050002D308F1010801E09218F3
:100310005B41B8F1000F03DA00200146BDE8F08D23
:1003200000204FF48011064684460EE0171B73EB45
:10033000050705D3121B63EB050306434CEA010CCA
:1003400049084FEA300092185B4150EA0107EDD1AD
:1003500052EA030012D082EA040083EA050108434E
:1003600005D0101BAB4106D20122002306E000227B
:100370004FF0004302E06FF0010253101AEB060049
:100380004CEB085110EB0A0041EB0B01BDE8F04DBE
:1003900000F057B80EB540F2334102910021CDE98B
:1003A00000110A460B4600F05BF803B000BDC1F334
:1003B0000A5210B5C1F3130140F2FF3341F480112A
:1003C0009A4201DA002010BD40F233439A42A2F271
:1003D000334203DC524200F012F810BD904010BDD1
:1003E000202A04DB203A00FA02F1002070479140F5
:1003F000C2F1200320FA03F3194390407047202AEA
:1004000004DB203A21FA02F00021704721FA02F3BE
:10041000D040C2F120029140084319467047202A7B
:1004200006DBCB17203A41FA02F043EAE07306E01C
:1004300041FA02F3D040C2F120029140084319462C
:10044000704710B5141E73F1000408DA401C41F126
:10045000000192185B411A4301D120F0010010BD48
:100460002DE9F04D92469B4611B1B1FA81F202E0BE
:10047000B0FA80F220329046FFF7B2FF04460F46F2
:1004800040EA0A0041EA0B0153465A46084313D09A
:10049000114653EA010019D0C8F140025046FFF757
:1004A000AEFF05460E46504659464246FFF798FFB6
:1004B000084305D0012004E020463946BDE8F08D10
:1004C0000020054346EAE0762C4337430A9863054B
:1004D000E40AA0EB08000022FD0A44EA47540A306F
:1004E00002D500200146E9E7010510196941DDE95F
:1004F000084500196941BDE8F04DA2E7064C074DDB
:1005000006E0E06840F0010394E8070098471034E3
:10051000AC42F6D3FFF710FE6C1C00088C1C0008E0
:1005200010B56FF0040000F0BDFD0A4800680A49EC
:10053000B0FBF1F0094908700846007800EB400173
:10054000C1EBC0104FF6FF7101EAC00004490880FA
:1005500010BD00000000002000127A0014000020EE
:10056000160000200146114A12884A434FF0E0234A
:100570005A6100229A611A46126942F001021A6118
:1005800000BF4FF0E022106900F001021AB100F440
:100590008032002AF5D04FF0E022126922F00102E9
:1005A0004FF0E0231A6100229A6170471600002084
:1005B0000146114A12784A434FF0E0235A61002263
:1005C0009A611A46126942F001021A6100BF4FF0A7
:1005D000E022106900F001021AB100F48032002A12
:1005E000F5D04FF0E022126922F001024FF0E02333
:1005F0001A6100229A6170471400002010B5802013
:1006000000F03AF801282AD11548007870B9002086
:10061000144908600120124908700021800700F089
:10062000CBFD0121880700F098FD15E000214FF077
:10063000804000F092FD0020094908704FF0804092
:1006400000F097FD0749096801EBC10202EB0111B7
:1006500000EB810004490860802000F007F810BD1D
:10066000180000201C000020200000200149086024
:100670007047000014040140014600200022074B8F
:100680001B6803EA0102054B14331B680B4013B1CE
:100690000AB1012000E00020704700000004014082
:1006A000002123498279002A3AD00A461268036859
:1006B0009A430B461A600A1D126803689A430B1D81
:1006C0001A60027911440A6803681A430A60184ADA
:1006D0000832126803689A43154B08331A601A1DD2
:1006E000126803689A43124B0C331A604279102A3D
:1006F0000ED11A1F126803681A430D4B08331A6093
:100700001A1D126803681A43094B0C331A600DE076
:100710000749427911440A6803681A430A6005E0F0
:10072000027911440A6803689A430A60704700001E
:100730000004014030B500228B071C0F0F2303FA81
:1007400004F20B4B8C1053F824309343084C8D105B
:1007500044F8253023468C1053F824308C07240F9E
:1007600000FA04F42343024C8D1044F8253030BDC8
:10077000080001402DE9F041024600250026002036
:1007800000230024002791F803C00CF00F0591F816
:1007900003C00CF0100CBCF1000F03D091F802C0A4
:1007A0004CEA050591F800C0BCF1000F31D0146887
:1007B00000202BE04FF0010C0CFA00F3B1F800C060
:1007C0000CEA03069E4220D183004FF00F0C0CFA76
:1007D00003F7BC4305FA03FC4CEA040491F803C098
:1007E000BCF1280F06D14FF0010C0CFA00FCC2F846
:1007F00014C00AE091F803C0BCF1480F05D14FF0D6
:10080000010C0CFA00FCC2F810C0401C0828D1D31F
:100810001460B1F800C0BCF1FF0F34DD5468002053
:100820002EE000F1080C4FF0010808FA0CF3B1F8C3
:1008300000C00CEA03069E4221D183004FF00F0C4A
:100840000CFA03F7BC4305FA03FC4CEA040491F8E4
:1008500003C0BCF1280F05D100F1080C08FA0CF810
:10086000C2F8148091F803C0BCF1480F07D100F121
:10087000080C4FF0010808FA0CF8C2F81080401C70
:100880000828CED35460BDE8F081016170470AB1F9
:10089000016100E0416170471CB58020009001209B
:1008A0008DF8060000208DF8040010208DF805005A
:1008B0006846FFF7F5FE1CBD08B50121042000F0D5
:1008C0006DFB10208DF803004020ADF800000320E0
:1008D0008DF8020069460B48FFF74CFF04208DF8A5
:1008E00003008020ADF8000069460648FFF742FF8C
:1008F0000121084600F052FB01210020FFF71AFFFA
:1009000008BD00000008014010B5FFF7D5FFFFF754
:10091000C3FF00F005F800F026F800F015F810BD50
:1009200008B54FF4A06000F0B3F817208DF8000070
:1009300001208DF8030002208DF801008DF80200DF
:10094000684600F06DF808BD08B51C208DF8000061
:1009500001208DF803008DF801008DF80200684633
:1009600000F05EF808BD0EB50121084600F006FB58
:100970000020ADF80600ADF802004720ADF80400F5
:100980006320ADF8000000208DF8080069464FF0A4
:10099000804000F013FC01221146900700F0FDFB9F
:1009A0004FF0804000F002FC0EBD000010B5044680
:1009B000224640210148FFF76AFF10BD00080140B0
:1009C00008B50121082000F0E9FA2020ADF8000068
:1009D00010208DF8030003208DF8020069460F48AF
:1009E000FFF7C8FE0120ADF8000069460B48FFF78D
:1009F000C1FE0220ADF8000069460848FFF7BAFEC4
:100A000020210648FFF741FF01210448FFF73DFF81
:100A100002210248FFF739FF08BD0000000C014029
:100A200070B5002100230F22C47804B3154C24684C
:100A300004F4E064C4F5E064210AC1F10403CA408F
:100A4000447804FA03F184781440214309010E4CE0
:100A50000678A155047804F01F050124AC40057800
:100A60006D11AD0005F1E025C5F8004109E00478FD
:100A700004F01F050124AC40044D0678761145F8BA
:100A8000264070BD0CED00E000E400E080E100E0F5
:100A900002490143024A1160704700000000FA0554
:100AA0000CED00E000200CE0002106E00022064BE7
:100AB00003EBC0135A544A1CD1B28029F6DB421C06
:100AC000D0B20828F0DB7047240000202DE9F04365
:100AD00004460D4616461F467F2C01DDBDE8F08317
:100AE0003F2D00DDFAE7A119802902DDC4F1800164
:100AF000CEB2E919402902DDC5F14001CFB2284646
:100B000030E0234629E04FEAE07C00EB5C7C4FEAD2
:100B1000EC0CDFF85C8008EBCC1C1CF803C0024630
:100B20004FEAE07800EB58784FEAE808A0EBC809F4
:100B30004FF0010808FA09F82CEA080C01464FEAC0
:100B4000E07800EB58784FEAE808DFF8249009EBEA
:100B5000C81808F803C0591CCBB2A1199942D2DCBD
:100B6000411CC8B2E9198142CBDC00BFB6E70000E6
:100B70002400002038B5002406E0002500E06D1CAC
:100B8000B5F57A7FFBD3641CB4F57A7FF5D30121E8
:100B9000082000F003FA14208DF8030003208DF8DC
:100BA00002004020ADF8000069460848FFF7E2FD6A
:100BB0008020ADF8000069460448FFF7DBFD012006
:100BC00000F0A0F9012000F0A7F938BD000C0140A9
:100BD00070B50546002411E080212141294009B16A
:100BE000012100E00021084600F096F9012000F004
:100BF00089F9002000F086F9601CC4B2082CEBDBF8
:100C0000012000F07FF9002000F07CF970BD10B5E4
:100C1000012000F081F9012000F074F9002000F0BB
:100C20007BF9002000F06EF910BD10B5002000F037
:100C300073F9012000F066F9012000F06DF910BD94
:100C400010B5FFF797FFAE2000F070F9D52000F047
:100C50006DF9802000F06AF9A82000F067F93F20C4
:100C600000F064F9D32000F061F9002000F05EF993
:100C7000402000F05BF9A12000F058F9C82000F0F6
:100C800055F9DA2000F052F9122000F04FF98120D6
:100C900000F04CF9CF2000F049F9D92000F046F9D6
:100CA000F12000F043F9DB2000F040F9302000F0A3
:100CB0003DF9A42000F03AF9A62000F037F98D2084
:100CC00000F034F9142000F031F9AF2000F02EF9D3
:100CD000FFF7E8FE00F002F910BD10B50246012052
:100CE00000E050430B1EA1F10101FAD110BD70B517
:100CF00005460C4645F0B00000F018F9102141EA15
:100D0000141000F013F904F00F0000F00FF970BD9B
:100D1000F8B506460F4614461D46082D0CD1A4F121
:100D200020000E4901EB00101023082239460090E4
:100D3000304600F017F80FE0062D0DD1A4F1200089
:100D400000EB4000064901EB40000823062239462B
:100D50000090304600F006F8F8BD000024130008AB
:100D6000141900082DE9F04707460C4690469946AD
:100D7000DDF820A07F2F01DDBDE8F0873F2C00DDEE
:100D8000FAE74B46424621463846FFF79FFE0025CC
:100D900070E0002669E0B8197F2800DD67E0E11700
:100DA00004EB517105EBE101072900DDE4E7204682
:100DB000E21704EB527205EBE202344B03EBC21272
:100DC000BB19D25C2146E31704EB5373DB10A4EB91
:100DD000C30305FB086C1AF80CC00CFA03FC42EACA
:100DE0000C02E31704EB537305EBE303DFF89CC03D
:100DF0000CEBC31307EB060C03F80C20E11704EB14
:100E0000517105EBE101491C072900DD2BE020466B
:100E1000E21704EB527205EBE202521C1B4B03EB90
:100E2000C212BB19D25C2146E31704EB5373DB10EB
:100E3000A4EBC303C3F1080305FB086C1AF80CC04C
:100E40004CFA03FC42EA0C02E31704EB537305EB84
:100E5000E3035B1CDFF834C00CEBC31307EB060C99
:100E600003F80C2000BF701CC6B2464593DB00BFE0
:100E7000681CC5B2A9F10100C11700EB5171012234
:100E800002EBE101A94284DC00BF75E724000020E9
:100E90002DE9F0470646894617461D46DDF82080B5
:100EA000002417E0281B411E0A20FFF716FFB7FB9E
:100EB000F0F00A21B0FBF1F201FB120000F1300A60
:100EC00004FB0861C8B2434652464946FFF720FF7B
:100ED000601CC4B2AC42E5DBBDE8F08710B500246D
:100EE0000BE000212046FFF702FF054901EBC4108B
:100EF000802100F02BF8601CC4B2082CF1DB10BD7F
:100F00002400002010B50446224640210148FFF786
:100F1000BEFC10BD000C014010B5044622468021E5
:100F20000148FFF7B4FC10BD000C014010B50446A9
:100F3000FFF76DFE7820FFF74BFE0020FFF748FE1D
:100F40002046FFF745FEFFF770FE10BD70B5054661
:100F50000E46FFF75CFE7820FFF73AFE4020FFF7D1
:100F600037FE002404E0285DFFF732FE601CC4B2A7
:100F7000B442F8DBFFF759FE70BD000029B1064A04
:100F8000D2690243044BDA6104E0034AD269824326
:100F9000014BDA61704700000010024029B1064A97
:100FA00092690243044B9A6104E0034A92698243C6
:100FB000014B9A61704700000010024010B500F02C
:100FC00001F810BD0CB50020019000903348006876
:100FD00040F480303149086000BF3048006800F4B8
:100FE000003000900198401C0190009818B90198B9
:100FF000B0F5A06FF1D12948006800F4003010B1BD
:101000000120009001E0002000900098012843D1C9
:101010002348006840F01000214908600846006835
:1010200020F0030008600846006840F002000860F5
:101030001A484068194948600846406848600846B0
:10104000406840F4806048600846406820F47C10A6
:1010500048600846406840F4E81048600846006868
:1010600040F08070086000BF0C48006800F000701D
:101070000028F9D00948406820F00300074948607B
:101080000846406840F00200486000BF03484068DE
:1010900000F00C000828F9D10CBD0000001002403F
:1010A00000200240042808D14FF0E021096941F0F6
:1010B00004014FF0E022116107E04FF0E0210969DF
:1010C00021F004014FF0E0221161704710B5134880
:1010D000006840F001001149086008464068104966
:1010E00008400E494860084600680E4908400B4910
:1010F00008600846006820F48020086008464068C0
:1011000020F4FE0048604FF41F008860FFF756FF90
:101110004FF000600449086010BD0000001002405C
:101120000000FFF8FFFFF6FE08ED00E010B501211A
:10113000880700F021F8012808D105480068401C04
:10114000034908600121880700F004F810BD000081
:101150001C000020CA430282704721B1028842F07D
:101160000102028004E002884FF6FE731A400280FA
:1011700070470146888C704730B502460020002336
:101180000024158A05EA0103958905EA010413B1D3
:101190000CB1012000E0002030BD1AB183890B435F
:1011A000838102E083898B438381704701894FF6F5
:1011B000F8721140018170478184704700220288D3
:1011C0001D4B98420ED01D4B98420BD0B0F1804F72
:1011D00008D01B4B984205D01A4B984202D01A4BAC
:1011E000984204D14FF68F731A404B881A43174B1D
:1011F000984207D0164B984204D04FF6FF431A404E
:10120000CB881A4302808B8883850B8803850A4B21
:1012100098420BD0094B984208D00E4B984205D00B
:101220000D4B984202D00D4B984201D10B7A0386A8
:101230000123838270470000002C014000340140EC
:101240000004004000080040000C00400010004076
:1012500000140040004001400044014000480140AB
:1012600002E008C8121F08C1002AFAD1704770476F
:10127000002001E001C1121F002AFBD170470000CD
:101280002DE9FC5F4FF0000AD34626E00120FFF76E
:101290008DFB0F20FFF78CF90020FFF787FB412023
:1012A000FFF760F911480068FFF774F806464FF041
:1012B00033320F4BFEF7FFFF04460D465046FFF753
:1012C00069F8804622462B46FEF74EFFCDE9000125
:1012D000FFF76DF882460BF1010BBBF10A0FD5DB6E
:1012E0000A20BAFBF0FA5046BDE8FC9F200000201F
:1012F0003333174008B5FFF713F9FFF761FBFFF72A
:101300009FFCFFF701FB0CE0FFF7BAFF0446082043
:1013100003462246012100900220FFF7B9FDFFF7A6
:10132000DDFDF1E70000000000000000000000000B
:1013300000000000000000F8000000000000003382
:101340003000000000160E00160E00000000000025
:101350000000000040C07840C0784000043F040412
:101360003F040400007088FC08300000001820FFD3
:10137000211E0000F008F000E018000000211C030E
:101380001E211E0000F00888700000001E2123248A
:1013900019272110000000160E00000000000000B8
:1013A00000000000000000E0180402000000000738
:1013B0001820400000020418E0000000004020183F
:1013C00007000000404080F0804040000202010F12
:1013D00001020200000000F0000000000101011FF6
:1013E00001010100000000000000000000B07000DA
:1013F00000000000000000000000000000010101EA
:101400000101010100000000000000000030300078
:101410000000000000000000806018040060180652
:101420000100000000E010080810E000000F10208C
:1014300020100F00001010F8000000000020203FD6
:101440002020000000700808088870000030282460
:101450002221300000300888884830000018202001
:1014600020110E000000C02010F800000007042426
:10147000243F240000F8088888080800001921206B
:1014800020110E0000E0108888180000000F1120C5
:1014900020110E0000380808C83808000000003F7E
:1014A000000000000070880808887000001C2221DD
:1014B00021221C0000E010080810E000000031228A
:1014C00022110F00000000C0C0000000000000302A
:1014D00030000000000000C0C0000000000080B02C
:1014E000700000000000804020100800000102048D
:1014F00008102000404040404040400004040404E4
:10150000040404000008102040800000002010089F
:1015100004020100007048080808F00000000030D4
:1015200036010000C030C828E810E0000718272462
:1015300023140B000000C038E0000000203C230210
:101540000227382008F8888888700000203F202073
:1015500020110E00C03008080808380007182020A5
:101560002010080008F808080810E000203F20209C
:1015700020100F0008F88888E8081000203F20207D
:101580002320180008F88888E8081000203F200071
:1015900003000000C03008080838000007182020A9
:1015A000221E020008F808000008F808203F210168
:1015B00001213F20000808F8080800000020203F13
:1015C0002020000000000808F8080800C080808083
:1015D0007F00000008F888C028180800203F20017C
:1015E0002638200008F8080000000000203F2020D6
:1015F0002020300008F8F800F8F80800203F003FED
:10160000003F200008F830C00008F808203F200004
:1016100007183F00E01008080810E0000F10202015
:1016200020100F0008F808080808F000203F2101EA
:1016300001010000E01008080810E0000F18242441
:1016400038504F0008F8888888887000203F2000B4
:10165000030C30200070880808083800003820216A
:1016600021221C00180808F8080818000000203F74
:101670002000000008F808000008F808001F2020DB
:1016800020201F000878880000C8380800000738AC
:101690000E010000F80800F80008F800033C0700FD
:1016A000073C0300081868808068180820302C0365
:1016B000032C30200838C800C83808000000203F3C
:1016C0002000000010080808C8380800203826212B
:1016D00020201800000000FE020202000000007F2F
:1016E00040404000000C30C000000000000000013D
:1016F0000638C00000020202FE0000000040404028
:101700007F000000002010080408102000000000E6
:1017100000000000000000000000000080808080C9
:1017200080808080000204080000000000000000AB
:10173000000000000000808080800000001924224A
:1017400022223F2008F8008080000000003F112086
:1017500020110E000000008080800000000E11208B
:1017600020201100000000808088F800000E112069
:1017700020103F200000808080800000001F222277
:1017800022221300008080F0888888180020203FE3
:10179000202000000000808080808000006B9494F6
:1017A0009493600008F8008080800000203F2100B2
:1017B00000203F2000809898000000000020203F7B
:1017C00020200000000000809898000000C0808069
:1017D000807F000008F8000080808000203F240205
:1017E0002D302000000808F8000000000020203FF5
:1017F000202000008080808080808000203F2000AA
:101800003F20003F008080008080000000203F21BA
:1018100000203F200000808080800000001F2020EA
:1018200020201F00808000808000000080FFA12019
:1018300020110E000000008080808000000E11202A
:1018400020A0FF80808080008080800020203F21B9
:10185000200001000000808080808000003324246C
:1018600024241900008080E0808000000000001F18
:10187000202000008080000000808000001F2020C9
:1018800020103F20808080000080808000010E308A
:101890000806010080800080008080800F300C03EB
:1018A0000C300F0000808000808080000020312EEE
:1018B0000E312000808080000080808080818E70CA
:1018C0001806010000808080808080000021302C7C
:1018D0002221300000000000807C02020000000095
:1018E000003F404000000000FF000000000000003A
:1018F000FF0000000002027C800000000040403F2A
:1019000000000000008040408000008000000000D7
:10191000000101000000000000000000002F000096
:1019200000000700070000147F147F1400242A7FA2
:101930002A12002313086462003649552250000021
:101940000007000000001C224100000041221C0092
:101950000014083E08140008083E0808000000A013
:10196000600000080808080800006060000000200F
:1019700010080402003E5149453E0000427F4000ED
:10198000004261514946002141454B310018141273
:101990007F10002745454539003C4A494930000140
:1019A0007109050300364949493600064949291E8F
:1019B00000003636000000005636000000081422F1
:1019C00041000014141414140000412214080002F1
:1019D00001510906003E4955592E007C1211127C16
:1019E000007F49494936003E41414122007F414143
:1019F000221C007F49494941007F09090901003E35
:101A00004149497A007F0808087F0000417F410072
:101A1000002040413F01007F08142241007F4040E8
:101A20004040007F020C027F007F0408107F003ED0
:101A30004141413E007F09090906003E4151215EB6
:101A4000007F091929460046494949310001017FB3
:101A50000101003F4040403F001F2040201F003F49
:101A60004038403F006314081463000708700807FB
:101A700000615149454300007F41410000020408D4
:101A80001020000041417F000004020102040040D8
:101A900040404040000001020400002054545478AB
:101AA000007F4844443800384444442000384444CB
:101AB000487F00385454541800087E090102001869
:101AC000A4A4A47C007F080404780000447D4000A6
:101AD000004080847D00007F102844000000417F8A
:101AE0004000007C04180478007C08040478003866
:101AF0004444443800FC242424180018242418FCEE
:101B0000007C0804040800485454542000043F4456
:101B10004020003C4040207C001C2040201C003C19
:101B20004030403C004428102844001CA0A0A07C69
:101B3000004464544C440000087F41000000007FD2
:101B400000000000417F0800000804081008A3AC52
:101B50000000000000000000000000000000000085
:101B600000000000583800000000000000000000E5
:101B70000000A1A300000000000000000000000021
:101B800000000000000000001824241800000000DD
:101B9000000000000000C4E30000008060F807407F
:101BA00020180F08C80808281800010000FF0010BE
:101BB0000C0340807F0001061800BAC3000010101B
:101BC000F01F10F000808282E2928A86800040221C
:101BD00015081661000040807F0000000000CAC0A8
:101BE0000000202020FE2020FF202020FF20202099
:101BF00020000000007F40404744444447404040AC
:101C00000000BDE70000000000FE929292FE92925A
:101C100092FE0000000008080484621E010001FE1C
:101C200002040408080000000000FF01010131095E
:101C3000090909897101010101FFFF80808080800D
:101C4000809681808080808080FFFF01818181FD7E
:101C50008991A1C1FD81818101FFFF808080809FEA
:101C6000888482819F80808080FF00008C1C000817
:101C7000000000202400000060120008B01C0008D2
:101C800024000020040800007012000800A24A048A
:101C9000000000000000000001020304060708091C
:101CA0000000000000000000000000000000000034
:0400000508000131BD
:00000001FF
