:020000040800F2
:1000000038040020450100084D0100084F01000898
:1000100051010008530100085501000800000000CC
:100020000000000000000000000000005701000870
:1000300059010008000000005B0100085D01000894
:100040005F0100085F0100085F0100085F01000810
:100050005F0100085F0100085F0100085F01000800
:100060005F0100085F0100085F0100085F010008F0
:100070005F0100085F0100085F0100085F010008E0
:100080005F0100085F0100085F0100085F010008D0
:100090005F0100085F0100085F0100081906000801
:1000A0005F0100085F0100085F0100085F010008B0
:1000B000911000085F0100085F0100085F0100085F
:1000C0005F0100085F0100085F0100085F01000890
:1000D0005F0100085F0100085F0100085F01000880
:1000E0005F0100085F0100085F0100085F01000870
:1000F0005F0100085F0100085F0100085F01000860
:100100005F0100085F0100085F0100085F0100084F
:100110005F0100085F0100085F0100085F0100083F
:100120005F0100085F0100085F0100085F0100082F
:10013000DFF80CD000F0E2F9004800470112000897
:10014000380400200648804706480047FEE7FEE7DF
:10015000FEE7FEE7FEE7FEE7FEE7FEE7FEE7FEE777
:1001600031100008310100082DE9FE4F804681EA78
:100170000300C00F0C46009021F0004123F0004521
:10018000B8EB0200A94105D24046214690461C46E4
:100190000B46024623F00040104347D0270DC7F31B
:1001A0000A00C3F30A510290401A019040286BDA0A
:1001B000C3F3130040F4801B0098924620B1002343
:1001C000D2EB030A63EB0B0B01985946C0F14002D6
:1001D000504600F005F906460D4650465946019A2C
:1001E00000F01DF910EB08006141002487EA11526C
:1001F00084EAE7731A4340D0009A62B3019A012A55
:100200004FEA075215DC001B61EB02014FF0004280
:1002100002EA0752CDE90042001C41F58011324646
:100220002B4600F01DF903B0BDE8F08F4046214693
:10023000F9E7001B61EB0201001C41F58013001877
:100240005B412018A2F5001747EB030140EAD57087
:10025000B6196D4111E06D084FEA360645EAC075E2
:100260004FEA0752001B61EB0201001C41F58011AF
:1002700049084FEA30000019514132462B4603B07D
:10028000BDE8F04F00F0DDB80098012240000023E7
:10029000D0EB020263EBE073009821464FEAE07472
:1002A000B8EB000061EB0401E9E783F000435BE792
:1002B00081F0004158E72DE9F04D81EA030404F094
:1002C000004B21F0004514464FF0000A23F0004196
:1002D00050EA050220D054EA01021DD0C5F30A57A6
:1002E0000246C5F31303C1F31300C1F30A5640F4E9
:1002F000801543F48013A7EB0608101BD64608F2BE
:10030000FD3873EB050002D308F1010801E09218F3
:100310005B41B8F1000F03DA00200146BDE8F08D23
:1003200000204FF48011064684460EE0171B73EB45
:10033000050705D3121B63EB050306434CEA010CCA
:1003400049084FEA300092185B4150EA0107EDD1AD
:1003500052EA030012D082EA040083EA050108434E
:1003600005D0101BAB4106D20122002306E000227B
:100370004FF0004302E06FF0010253101AEB060049
:100380004CEB085110EB0A0041EB0B01BDE8F04DBE
:1003900000F057B80EB540F2334102910021CDE98B
:1003A00000110A460B4600F05BF803B000BDC1F334
:1003B0000A5210B5C1F3130140F2FF3341F480112A
:1003C0009A4201DA002010BD40F233439A42A2F271
:1003D000334203DC524200F012F810BD904010BDD1
:1003E000202A04DB203A00FA02F1002070479140F5
:1003F000C2F1200320FA03F3194390407047202AEA
:1004000004DB203A21FA02F00021704721FA02F3BE
:10041000D040C2F120029140084319467047202A7B
:1004200006DBCB17203A41FA02F043EAE07306E01C
:1004300041FA02F3D040C2F120029140084319462C
:10044000704710B5141E73F1000408DA401C41F126
:10045000000192185B411A4301D120F0010010BD48
:100460002DE9F04D92469B4611B1B1FA81F202E0BE
:10047000B0FA80F220329046FFF7B2FF04460F46F2
:1004800040EA0A0041EA0B0153465A46084313D09A
:10049000114653EA010019D0C8F140025046FFF757
:1004A000AEFF05460E46504659464246FFF798FFB6
:1004B000084305D0012004E020463946BDE8F08D10
:1004C0000020054346EAE0762C4337430A9863054B
:1004D000E40AA0EB08000022FD0A44EA47540A306F
:1004E00002D500200146E9E7010510196941DDE95F
:1004F000084500196941BDE8F04DA2E7064C074DDB
:1005000006E0E06840F0010394E8070098471034E3
:10051000AC42F6D3FFF710FE9C1B0008BC1B000882
:1005200010B56FF0040000F06FFD0A4800680A493A
:10053000B0FBF1F0094908700846007800EB400173
:10054000C1EBC0104FF6FF7101EAC00004490880FA
:1005500010BD00000000002000127A0034000020CE
:10056000360000200146114A12884A434FF0E0232A
:100570005A6100229A611A46126942F001021A6118
:1005800000BF4FF0E022106900F001021AB100F440
:100590008032002AF5D04FF0E022126922F00102E9
:1005A0004FF0E0231A6100229A6170473600002064
:1005B00030B50446002505E04FF47A70FFF7D2FF0E
:1005C000681CC5B2A542F7D330BD00000146114AF0
:1005D00012784A434FF0E0235A6100229A611A468A
:1005E000126942F001021A6100BF4FF0E022106967
:1005F00000F001021AB100F48032002AF5D04FF069
:10060000E022126922F001024FF0E0231A61002279
:100610009A6170473400002010B5802000F03AF84D
:1006200001282AD11548007870B9002014490860C3
:100630000120124908700021800700F06FFD0121A0
:10064000880700F03CFD15E000214FF0804000F0ED
:1006500036FD0020094908704FF0804000F03BFD56
:100660000749096801EBC10202EB011100EB8100AF
:1006700004490860802000F007F810BD2800002021
:100680002C00002030000020014908607047000065
:1006900014040140014600200022074B1B6803EAB6
:1006A0000102054B14331B680B4013B10AB1012042
:1006B00000E00020704700000004014000212349B1
:1006C0008279002A3AD00A46126803689A430B4698
:1006D0001A600A1D126803689A430B1D1A6002799A
:1006E00011440A6803681A430A60184A08321268FB
:1006F00003689A43154B08331A601A1D1268036881
:100700009A43124B0C331A604279102A0ED11A1FE9
:10071000126803681A430D4B08331A601A1D1268D9
:1007200003681A43094B0C331A600DE007494279FC
:1007300011440A6803681A430A6005E0027911440B
:100740000A6803689A430A60704700000004014089
:1007500030B500228B071C0F0F2303FA04F20B4B5A
:100760008C1053F824309343084C8D1044F82530F6
:1007700023468C1053F824308C07240F00FA04F41D
:100780002343024C8D1044F8253030BD0800014051
:100790002DE9F04102460025002600200023002418
:1007A000002791F803C00CF00F0591F803C00CF07E
:1007B000100CBCF1000F03D091F802C04CEA050503
:1007C00091F800C0BCF1000F31D0146800202BE07C
:1007D0004FF0010C0CFA00F3B1F800C00CEA03066C
:1007E0009E4220D183004FF00F0C0CFA03F7BC435C
:1007F00005FA03FC4CEA040491F803C0BCF1280F8D
:1008000006D14FF0010C0CFA00FCC2F814C00AE04B
:1008100091F803C0BCF1480F05D14FF0010C0CFA60
:1008200000FCC2F810C0401C0828D1D31460B1F8F5
:1008300000C0BCF1FF0F34DD546800202EE000F151
:10084000080C4FF0010808FA0CF3B1F800C00CEAEC
:1008500003069E4221D183004FF00F0C0CFA03F7E0
:10086000BC4305FA03FC4CEA040491F803C0BCF154
:10087000280F05D100F1080C08FA0CF8C2F8148012
:1008800091F803C0BCF1480F07D100F1080C4FF0FC
:10089000010808FA0CF8C2F81080401C0828CED3D2
:1008A0005460BDE8F081416170470161704770B5E7
:1008B00002460024002500230020958A138B1B0488
:1008C00045EA030626F07F4404EA01068E4201D180
:1008D000012000E0002070BD21B1028842F0010239
:1008E000028004E002884FF6FE731A4002807047CF
:1008F00000B585B00121480500F078FA01210820F3
:1009000000F094FAC020ADF8000003208DF802003A
:100910001C208DF8030069461148FFF739FF114884
:1009200000F024F80020ADF808004BF6FF70ADF899
:100930000A003020ADF80C004FF48060ADF80E00D6
:100940000001ADF810000848019001210548FFF7AB
:10095000C3FF01A9034800F05BF805B000BD00002B
:10096000000C014000540040801A060010B50446F7
:100970000B48844209D10121480500F047FA0021C3
:100980004FF4001000F042FA08E00121880500F061
:100990003DFA00214FF4800000F038FA10BD00004D
:1009A0000054004021B1028842F48072028004E0C9
:1009B00002884FF6FF631A400280704721B1028817
:1009C00042F40072028004E002884FF6FF531A409E
:1009D000028070470CB5024600200023019300936B
:1009E00000920B0F019321F07F41019B1BB1009BF3
:1009F0001433009303E0090C009B18330093009B11
:100A00001B680B400BB1012000E000200CBD000072
:100A10002DE9F04385B004460D460026B146042773
:100A2000DFF8CC80A6884FF6C0700640684600F01C
:100A30000DFADDF808802F48B8FBF0F01FFA80F9B6
:100A400046EA0906A68020884FF6FE7108402080FD
:100A500000262949286888420CD828684000B8FB3D
:100A6000F0F087B2042F00DA04273E4309F10100B9
:100A7000208427E0E8884BF6FF71884206D1286879
:100A800000EB4000B8FBF0F087B209E0286800EB0B
:100A9000C00101EB0010B8FBF0F087B247F48047CB
:100AA000C7F30B0008B947F0010747F400400643BD
:100AB0004FF4967009FB00F04FF47A7190FBF1F05F
:100AC000401C2084A683208840F0010020802688D6
:100AD0004FF6F5300640A88869890843064326800A
:100AE000A88929890843208105B0BDE8F08300006A
:100AF00000127A0040420F00A086010012B141F0BE
:100B0000010102E04FF6FE73194001827047018235
:100B10007047000070B504460D4600BF4FF4003129
:100B20001C48FFF757FF0028F8D101211948FFF7AB
:100B300039FF00BF18491748FFF7B9FE0028F9D060
:100B4000002278211348FFF7D9FF00BF134911484D
:100B5000FFF7ADFE0028F9D021460E48FFF7D7FF7A
:100B600000BF0E49891C0B48FFF7A1FE0028F8D0F2
:100B700029460848FFF7CBFF00BF0849891C0548F4
:100B8000FFF795FE0028F8D001210248FFF716FF75
:100B900070BD000000540040010003008200070007
:100BA00070B5002100230F22C47804B3154C2468CB
:100BB00004F4E064C4F5E064210AC1F10403CA400E
:100BC000447804FA03F184781440214309010E4C5F
:100BD0000678A155047804F01F050124AC4005787F
:100BE0006D11AD0005F1E025C5F8004109E004787C
:100BF00004F01F050124AC40044D0678761145F839
:100C0000264070BD0CED00E000E400E080E100E073
:100C100002490143024A1160704700000000FA05D2
:100C20000CED00E010B56420FFF79CFCAE2000F056
:100C3000C9FA202000F0C6FA102000F0C3FAB02054
:100C400000F0C0FAC82000F0BDFA002000F0BAFAA7
:100C5000102000F0B7FA402000F0B4FA812000F034
:100C6000B1FAFF2000F0AEFAA12000F0ABFAA62006
:100C700000F0A8FAA82000F0A5FA3F2000F0A2FAA0
:100C8000A42000F09FFAD32000F09CFA002000F08E
:100C900099FAD52000F096FAF02000F093FAD920C6
:100CA00000F090FA222000F08DFADA2000F08AFAA3
:100CB000122000F087FADB2000F084FA202000F0F8
:100CC00081FA8D2000F07EFA142000F07BFAAF202C
:100CD00000F078FA10BD70B504460D4605F1B0017C
:100CE000C8B200F06FFA102141EA141000F06AFA5D
:100CF00004F00F0141F0010000F064FA70BD000043
:100D00002DE9F0470646894617469A464FF00008F7
:100D100000240025BAF1010F03D0BAF1020F5ED111
:100D200025E020E0785D203800F0FF087E2E04DD0D
:100D3000002609F1010000F0FF0949463046FFF79F
:100D4000CAFF002409E008EB4801264A02EB4101F2
:100D5000085D00F03EFA601CC4B2062CF3DBB01D47
:100D6000C6B2681CC5B2785D0028DBD137E032E03E
:100D7000785D203800F0FF08782E04DD002609F1A8
:100D8000010000F0FF0949463046FFF7A4FF0024A8
:100D900007E004EB0811144A505C00F01AFA601CDA
:100DA000C4B2082CF5DB09F10100C1B23046FFF7EF
:100DB00092FF002408E004EB081108310A4A505C55
:100DC00000F007FA601CC4B2082CF4DB06F108003E
:100DD000C6B2681CC5B2785D0028C9D100BF00BF8B
:100DE000BDE8F08784130008AC15000829B1064A55
:100DF000D2690243044BDA6104E0034AD2698243B8
:100E0000014BDA61704700000010024029B1064A28
:100E100012690243044B1A6104E0034A12698243D7
:100E2000014B1A61704700000010024029B1064AC8
:100E300092690243044B9A6104E0034A9269824337
:100E4000014B9A61704700000010024030B500214C
:100E50000022002400232D4D6D6805F00C0121B106
:100E6000042905D0082923D105E0294D056022E099
:100E7000274D05601FE0254D6D6805F47012234D68
:100E80006D6805F48034022505EB92421CB9214DB2
:100E9000554305600BE01D4D6D6805F400351DB12F
:100EA0001C4D5543056002E0194D5543056002E0B5
:100EB000174D056000BF00BF144D6D6805F0F001CF
:100EC0000909154D6B5C0568DD4045600F4D6D6887
:100ED00005F4E061090A104D6B5C4568DD408560F2
:100EE0000A4D6D6805F46051C90A0B4D6B5C45688D
:100EF000DD40C560054D6D6805F44041890B074D27
:100F00006B5CC568B5FBF3F5056130BD00100240B0
:100F100000127A0000093D00140000202400002087
:100F200010B500F001F810BD0CB500200190009044
:100F30003348006840F480303149086000BF3048D1
:100F4000006800F4003000900198401C0190009867
:100F500018B90198B0F5A06FF1D12948006800F4E4
:100F6000003010B10120009001E0002000900098B6
:100F7000012843D12348006840F01000214908604F
:100F80000846006820F0030008600846006840F04A
:100F9000020008601A4840681949486008464068DD
:100FA00048600846406840F48060486008464068F1
:100FB00020F47C1048600846406840F4E81048601F
:100FC0000846006840F08070086000BF0C48006868
:100FD00000F000700028F9D00948406820F00300B4
:100FE000074948600846406840F00200486000BF7A
:100FF0000348406800F00C000828F9D10CBD00003F
:101000000010024000200240042808D14FF0E021E7
:10101000096941F004014FF0E022116107E04FF04F
:10102000E021096921F004014FF0E02211617047CD
:1010300010B51348006840F00100114908600846E7
:101040004068104908400E494860084600680E494B
:1010500008400B4908600846006820F480200860BA
:101060000846406820F4FE0048604FF41F00886086
:10107000FFF756FF4FF000600449086010BD000004
:10108000001002400000FFF8FFFFF6FE08ED00E050
:1010900010B50121880700F021F8012808D1054882
:1010A0000068401C034908600121880700F004F82B
:1010B00010BD00002C000020CA430282704721B1FD
:1010C000028842F00102028004E002884FF6FE73BB
:1010D0001A40028070470146888C704730B502463E
:1010E000002000230024158A05EA0103958905EAFA
:1010F000010413B10CB1012000E0002030BD1AB191
:1011000083890B43838102E083898B43838170470A
:1011100001894FF6F8721140018170478184704750
:10112000002202881D4B98420ED01D4B98420BD0D6
:10113000B0F1804F08D01B4B984205D01A4B984213
:1011400002D01A4B984204D14FF68F731A404B8845
:101150001A43174B984207D0164B984204D04FF6CB
:10116000FF431A40CB881A4302808B8883850B8803
:1011700003850A4B98420BD0094B984208D00E4B7E
:10118000984205D00D4B984202D00D4B984201D1A8
:101190000B7A03860123838270470000002C0140F4
:1011A000003401400004004000080040000C0040F2
:1011B0000010004000140040004001400044014085
:1011C0000048014010B5044621460020FFF7A2FC6C
:1011D00010BD10B5044621464020FFF79BFC10BD12
:1011E00002E008C8121F08C1002AFAD170477047F0
:1011F000002001E001C1121F002AFBD1704700004E
:101200008AB0FFF78DF9FFF773FBFFF70BFD0121A4
:101210000420FFF70BFE10208DF827004020ADF8CA
:10122000240003208DF8260009A95048FFF7B0FAE2
:1012300004208DF827008020ADF8240009A94B4830
:10124000FFF7A6FA01210846FFF7F0FD0121002073
:10125000FFF77EFA8020079001208DF82200002001
:101260008DF8200010208DF8210007A8FFF726FA3E
:101270004FF4A060FFF7CCFC17208DF81800012078
:101280008DF81B0002208DF819008DF81A0006A8B1
:10129000FFF786FC01210846FFF7A8FD0020ADF806
:1012A0001200ADF80E004720ADF810006320ADF835
:1012B0000C0000208DF8140003A94FF08040FFF7C8
:1012C0002FFF012211469007FFF719FF4FF08040D2
:1012D000FFF71EFF1C208DF8080001208DF80B0081
:1012E0008DF809008DF80A0002A8FFF759FC3BE0D1
:1012F0004FF0000AD34628E040211C48FFF7D5FAFA
:101300000F20FFF763F940211848FFF7CCFA41207E
:10131000FFF728F916480068FFF73CF806464FF03B
:101320003332144BFEF7C7FF04460D465046FFF715
:1013300031F8804622462B46FEF716FFCDE9000124
:10134000FFF735F882460BF1010BBBF10A0FD3DB37
:101350000A20BAFBF0FA022307A204210020FFF7BB
:10136000CFFC0220FFF724F9C2E70000000801408B
:101370003000002033331740574D58303332354555
:10138000000000000000000000000000002F00002E
:1013900000000700070000147F147F1400242A7F38
:1013A0002A120062640813230036495522500000B7
:1013B0000503000000001C224100000041221C0027
:1013C0000014083E08140008083E0808000000A0A9
:1013D00060000008080808080000606000000020A5
:1013E00010080402003E5149453E0000427F400083
:1013F000004261514946002141454B310018141209
:101400007F10002745454539003C4A4949300001D5
:101410007109050300364949493600064949291E24
:101420000000363600000000563600000008142286
:101430004100001414141414000041221408000286
:101440000151090600324959513E007C1211127CAB
:10145000007F49494936003E41414122007F4141D8
:10146000221C007F49494941007F09090901003ECA
:101470004149497A007F0808087F0000417F410008
:10148000002040413F01007F08142241007F40407E
:101490004040007F020C027F007F0408107F003E66
:1014A0004141413E007F09090906003E4151215E4C
:1014B000007F091929460046494949310001017F49
:1014C0000101003F4040403F001F2040201F003FDF
:1014D0004038403F00631408146300070870080791
:1014E00000615149454300007F41410000552A55A4
:1014F0002A55000041417F0000040201020400401F
:101500004040404000000102040000205454547840
:10151000007F484444380038444444200038444460
:10152000487F00385454541800087E0901020018FE
:10153000A4A4A47C007F080404780000447D40003B
:10154000004080847D00007F102844000000417F1F
:101550004000007C04180478007C080404780038FB
:101560004444443800FC242424180018242418FC83
:10157000007C0804040800485454542000043F44EC
:101580004020003C4040207C001C2040201C003CAF
:101590004030403C004428102844001CA0A0A07CFF
:1015A000004464544C441414141414140000000037
:1015B000000000000000000000000000000000F833
:1015C00000000000000000333000000000100C0696
:1015D000100C0600000000000000000040C0784031
:1015E000C0784000043F04043F040400007088FCFD
:1015F00008300000001820FF211E0000F008F00055
:10160000E018000000211C031E211E0000F00888C5
:10161000700000001E2123241927211010160E002F
:10162000000000000000000000000000000000E0DA
:1016300018040200000000071820400000020418EF
:10164000E00000000040201807000000404080F04B
:10165000804040000202010F01020200000000F081
:10166000000000000101011F010101000000000055
:101670000000000080B070000000000000000000CA
:101680000000000000010101010101010000000053
:1016900000000000003030000000000000000000EA
:1016A00080601804006018060100000000E01008C7
:1016B0000810E000000F102020100F00001010F89C
:1016C000000000000020203F2020000000700808DB
:1016D000088870000030282422213000003008885B
:1016E000884830000018202020110E000000C02083
:1016F00010F8000000070424243F240000F80888A4
:10170000880808000019212020110E0000E0108830
:1017100088180000000F112020110E000038080862
:10172000C83808000000003F000000000070880872
:1017300008887000001C222121221C0000E01008F3
:101740000810E0000000312222110F00000000C04C
:10175000C0000000000000303000000000000080E9
:1017600000000000000080600000000000008040D9
:1017700020100800000102040810200040404040F2
:101780004040400004040404040404000008102045
:10179000408000000020100804020100007048088A
:1017A0000808F0000000003036010000C030C828F2
:1017B000E810E0000718272423140B000000C038AD
:1017C000E0000000203C23020227382008F8888827
:1017D00088700000203F202020110E00C030080833
:1017E00008083800071820202010080008F808080A
:1017F0000810E000203F202020100F0008F8888803
:10180000E8081000203F20202320180008F88888CE
:10181000E8081000203F200003000000C030080846
:101820000838000007182020221E020008F80800CF
:101830000008F808203F210101213F20000808F896
:10184000080800000020203F2020000000000808B9
:10185000F8080800C08080807F00000008F888C079
:1018600028180800203F20012638200008F808002A
:1018700000000000203F20202020300008F8F80061
:10188000F8F80800203F003F003F200008F830C073
:101890000008F808203F200007183F00E010080863
:1018A0000810E0000F10202020100F0008F8080892
:1018B0000808F000203F210101010000E0100808A5
:1018C0000810E0000F18242438504F0008F88888CA
:1018D00088887000203F2000030C302000708808AA
:1018E000080838000038202121221C00180808F8B8
:1018F000080818000000203F2000000008F8080039
:101900000008F808001F202020201F000878880009
:1019100000C83808000007380E010000F80800F879
:101920000008F800033C0700073C03000818688023
:101930008068180820302C03032C30200838C80099
:10194000C83808000000203F2000000010080808E8
:10195000C83808002038262120201800000000FE8A
:10196000020202000000007F40404000000C30C036
:1019700000000000000000010638C0000002020262
:10198000FE000000004040407F0000000000040214
:10199000020204000000000000000000000000003F
:1019A000000000008080808080808080000202042F
:1019B0000000000000000000000000000000808027
:1019C000808000000019242222223F2008F8008095
:1019D00080000000003F112020110E000000008058
:1019E00080800000000E11202020110000000080E7
:1019F0008088F800000E112020103F200000808019
:101A000080800000001F222222221300008080F02C
:101A1000888888180020203F202000000000808057
:101A200080808000006B94949493600008F800809C
:101A300080800000203F210000203F2000809898F7
:101A4000000000000020203F202000000000008057
:101A50009898000000C08080807F000008F8000097
:101A600080808000203F24022D302000000808F8EC
:101A7000000000000020203F2020000080808080A7
:101A800080808000203F20003F20003F8080008039
:101A900080800000203F210000203F200000808047
:101AA00080800000001F202020201F0080800080F8
:101AB0008000000080FFA12020110E0000000080A7
:101AC00080808000000E112020A0FF808080800098
:101AD0008080800020203F212000010000008080C5
:101AE000808080000033242424241900008080E0BA
:101AF000808000000000001F202000008080000087
:101B000000808000001F202020103F208080800067
:101B10000080808000010E30080601008080008077
:101B2000008080800F300C030C300F00008080009C
:101B3000808080000020312E0E31200080808000C7
:101B40000080808080818E70180601000080808077
:101B5000808080000021302C222130000000000015
:101B6000807C020200000000003F404000000000B6
:101B7000FF00000000000000FF0000000002027CE7
:101B8000800000000040403F00000000000601010E
:101B9000020204040000000000000000BC1B00085A
:101BA0000000002038000000E0110008F41B0008CD
:101BB0003800002000040000F011000800A24A04D0
:101BC00000000000000000000102030406070809ED
:101BD00000000000010203040102030406070809D3
:101BE00002040608000000000000000000000000E1
:041BF00000000000F1
:0400000508000131BD
:00000001FF
