:020000040800F2
:1000000008040020450100089B0100089301000836
:10001000970100088D01000825030008000000007A
:100020000000000000000000000000009F01000828
:1000300091010008000000009D010008A1020008D5
:100040005F0100085F0100085F0100085F01000810
:100050005F0100085F0100085F0100085F01000800
:100060005F0100085F0100085F0100085F010008F0
:100070005F0100085F0100085F0100085F010008E0
:100080005F0100085F0100085F0100085F010008D0
:100090005F0100085F0100085F0100085F010008C0
:1000A0005F0100085F0100085F0100085F010008B0
:1000B0005F0100085F0100085F0100085F010008A0
:1000C0005F0100085F0100085F0100085F01000890
:1000D0005F0100085F0100085F0100085F01000880
:1000E0005F0100085F0100085F0100085F01000870
:1000F0005F0100085F0100085F0100085F01000860
:100100005F0100085F0100085F0100085F0100084F
:100110005F0100085F0100085F0100085F0100083F
:100120005F0100085F0100085F0100085F0100082F
:10013000DFF80CD000F018F80048004795030008DD
:10014000080400200648804706480047FEE7FEE70F
:10015000FEE7FEE7FEE7FEE7FEE7FEE7FEE7FEE777
:10016000A902000831010008064C074D06E0E068CE
:1001700040F0010394E8070098471034AC42F6D3EE
:10018000FFF7DAFF9C030008BC03000800BFFEE78E
:10019000704700BFFEE700BFFEE77047704770473B
:1001A00010B50521034800F0AFF84CF2503000F0D4
:1001B000CBF810BD0034014010B500F001F810BDBF
:1001C0000CB50020019000903348006840F4803066
:1001D0003149086000BF3048006800F400300090EA
:1001E0000198401C0190009818B90198B0F5A06FD3
:1001F000F1D12948006800F4003010B101200090CE
:1002000001E0002000900098012843D123480068B5
:1002100040F01000214908600846006820F0030003
:1002200008600846006840F0020008601A4840680C
:10023000194948600846406848600846406840F4EC
:10024000806048600846406820F47C10486008469A
:10025000406840F4E81048600846006840F080704C
:10026000086000BF0C48006800F000700028F9D05A
:100270000948406820F00300074948600846406884
:1002800040F00200486000BF0348406800F00C00E6
:100290000828F9D10CBD00000010024000200240E7
:1002A00010B500F033F810BD10B51348006840F0E9
:1002B00001001149086008464068104908400E498D
:1002C0004860084600680E4908400B490860084627
:1002D000006820F4802008600846406820F4FE0092
:1002E00048604FF41F008860FFF766FF4FF0006022
:1002F0000449086010BD0000001002400000FFF833
:10030000FFFFF6FE08ED00E08186704704480068B4
:1003100020B103480068401E014908607047000092
:100320000000002000BFFEE702E008C8121F08C15D
:10033000002AFAD170477047002001E001C1121F66
:10034000002AFBD1704700000146114A12884A4337
:100350004FF0E0235A6100229A611A46126942F076
:1003600001021A6100BF4FF0E022106900F00102A3
:100370001AB100F48032002AF5D04FF0E022126961
:1003800022F001024FF0E0231A6100229A617047C7
:100390000600002001E0FFF703FFFCE7BC030008B4
:1003A000000000200800000028030008C403000823
:1003B00008000020000400003803000800000000CE
:0403C0000000000039
:0400000508000131BD
:00000001FF
